{
  "contractName": "Farm",
  "abi": [
    {
      "anonymous": false,
      "inputs": [
        {
          "indexed": false,
          "internalType": "uint256",
          "name": "_volume",
          "type": "uint256"
        },
        {
          "indexed": false,
          "internalType": "uint256",
          "name": "_supply",
          "type": "uint256"
        },
        {
          "indexed": false,
          "internalType": "uint256",
          "name": "_tokenId",
          "type": "uint256"
        },
        {
          "indexed": false,
          "internalType": "address",
          "name": "_booker",
          "type": "address"
        },
        {
          "indexed": false,
          "internalType": "uint256",
          "name": "_deposit",
          "type": "uint256"
        },
        {
          "indexed": false,
          "internalType": "bool",
          "name": "_delivered",
          "type": "bool"
        }
      ],
      "name": "Booking",
      "type": "event"
    },
    {
      "anonymous": false,
      "inputs": [
        {
          "indexed": false,
          "internalType": "uint256",
          "name": "_supply",
          "type": "uint256"
        },
        {
          "indexed": false,
          "internalType": "address",
          "name": "_booker",
          "type": "address"
        },
        {
          "indexed": false,
          "internalType": "uint256",
          "name": "_deposit",
          "type": "uint256"
        }
      ],
      "name": "CancelBook",
      "type": "event"
    },
    {
      "anonymous": false,
      "inputs": [
        {
          "indexed": false,
          "internalType": "uint256",
          "name": "_supply",
          "type": "uint256"
        },
        {
          "indexed": false,
          "internalType": "uint256",
          "name": "_price",
          "type": "uint256"
        },
        {
          "indexed": false,
          "internalType": "string",
          "name": "_supplyUnit",
          "type": "string"
        },
        {
          "indexed": false,
          "internalType": "uint256",
          "name": "_tokenId",
          "type": "uint256"
        }
      ],
      "name": "Harvesting",
      "type": "event"
    },
    {
      "anonymous": false,
      "inputs": [
        {
          "indexed": false,
          "internalType": "uint256",
          "name": "_tokenId",
          "type": "uint256"
        },
        {
          "indexed": false,
          "internalType": "string",
          "name": "_seedUsed",
          "type": "string"
        },
        {
          "indexed": false,
          "internalType": "string",
          "name": "_expectedYield",
          "type": "string"
        },
        {
          "indexed": false,
          "internalType": "string",
          "name": "_seedSupplier",
          "type": "string"
        }
      ],
      "name": "Planting",
      "type": "event"
    },
    {
      "anonymous": false,
      "inputs": [
        {
          "indexed": false,
          "internalType": "uint256",
          "name": "_tokenId",
          "type": "uint256"
        },
        {
          "indexed": false,
          "internalType": "string",
          "name": "_crop",
          "type": "string"
        },
        {
          "indexed": false,
          "internalType": "string",
          "name": "_fertilizer",
          "type": "string"
        }
      ],
      "name": "Preparations",
      "type": "event"
    },
    {
      "anonymous": false,
      "inputs": [
        {
          "indexed": false,
          "internalType": "uint256",
          "name": "_volume",
          "type": "uint256"
        },
        {
          "indexed": false,
          "internalType": "uint256",
          "name": "_deposit",
          "type": "uint256"
        },
        {
          "indexed": false,
          "internalType": "bool",
          "name": "_delivered",
          "type": "bool"
        }
      ],
      "name": "Received",
      "type": "event"
    },
    {
      "anonymous": false,
      "inputs": [
        {
          "indexed": false,
          "internalType": "string",
          "name": "_tokenState",
          "type": "string"
        },
        {
          "indexed": false,
          "internalType": "uint256",
          "name": "_completeSeason",
          "type": "uint256"
        }
      ],
      "name": "SeasonClosing",
      "type": "event"
    },
    {
      "anonymous": false,
      "inputs": [
        {
          "indexed": false,
          "internalType": "uint256",
          "name": "_seasonNumber",
          "type": "uint256"
        }
      ],
      "name": "SeasonOpening",
      "type": "event"
    },
    {
      "inputs": [
        {
          "internalType": "address",
          "name": "",
          "type": "address"
        }
      ],
      "name": "_bookStatus",
      "outputs": [
        {
          "internalType": "bool",
          "name": "delivered",
          "type": "bool"
        }
      ],
      "stateMutability": "view",
      "type": "function",
      "constant": true
    },
    {
      "inputs": [
        {
          "internalType": "address",
          "name": "",
          "type": "address"
        }
      ],
      "name": "_bookers",
      "outputs": [
        {
          "internalType": "uint256",
          "name": "",
          "type": "uint256"
        }
      ],
      "stateMutability": "view",
      "type": "function",
      "constant": true
    },
    {
      "inputs": [
        {
          "internalType": "address",
          "name": "",
          "type": "address"
        }
      ],
      "name": "_deposits",
      "outputs": [
        {
          "internalType": "uint256",
          "name": "",
          "type": "uint256"
        }
      ],
      "stateMutability": "view",
      "type": "function",
      "constant": true
    },
    {
      "inputs": [
        {
          "internalType": "uint256",
          "name": "",
          "type": "uint256"
        }
      ],
      "name": "_harvests",
      "outputs": [
        {
          "internalType": "uint256",
          "name": "supply",
          "type": "uint256"
        },
        {
          "internalType": "uint256",
          "name": "price",
          "type": "uint256"
        },
        {
          "internalType": "string",
          "name": "supplyUnit",
          "type": "string"
        }
      ],
      "stateMutability": "view",
      "type": "function",
      "constant": true
    },
    {
      "inputs": [
        {
          "internalType": "uint256",
          "name": "",
          "type": "uint256"
        }
      ],
      "name": "completedSeasons",
      "outputs": [
        {
          "internalType": "uint256",
          "name": "",
          "type": "uint256"
        }
      ],
      "stateMutability": "view",
      "type": "function",
      "constant": true
    },
    {
      "inputs": [
        {
          "internalType": "uint256",
          "name": "",
          "type": "uint256"
        }
      ],
      "name": "currentSeason",
      "outputs": [
        {
          "internalType": "uint256",
          "name": "",
          "type": "uint256"
        }
      ],
      "stateMutability": "view",
      "type": "function",
      "constant": true
    },
    {
      "inputs": [
        {
          "internalType": "uint256",
          "name": "",
          "type": "uint256"
        }
      ],
      "name": "tokenSeason",
      "outputs": [
        {
          "internalType": "enum FarmSeason.Season",
          "name": "season",
          "type": "uint8"
        }
      ],
      "stateMutability": "view",
      "type": "function",
      "constant": true
    },
    {
      "inputs": [
        {
          "internalType": "uint256",
          "name": "_tokenId",
          "type": "uint256"
        }
      ],
      "name": "getTokenSeason",
      "outputs": [
        {
          "internalType": "string",
          "name": "",
          "type": "string"
        }
      ],
      "stateMutability": "view",
      "type": "function",
      "constant": true
    },
    {
      "inputs": [
        {
          "internalType": "uint256",
          "name": "_tokenId",
          "type": "uint256"
        }
      ],
      "name": "openSeason",
      "outputs": [],
      "stateMutability": "nonpayable",
      "type": "function"
    },
    {
      "inputs": [
        {
          "internalType": "uint256",
          "name": "_tokenId",
          "type": "uint256"
        },
        {
          "internalType": "string",
          "name": "_crop",
          "type": "string"
        },
        {
          "internalType": "string",
          "name": "_fertilizer",
          "type": "string"
        }
      ],
      "name": "finishPreparations",
      "outputs": [],
      "stateMutability": "nonpayable",
      "type": "function"
    },
    {
      "inputs": [
        {
          "internalType": "uint256",
          "name": "_tokenId",
          "type": "uint256"
        },
        {
          "internalType": "string",
          "name": "_seedUsed",
          "type": "string"
        },
        {
          "internalType": "string",
          "name": "_expectedYield",
          "type": "string"
        },
        {
          "internalType": "string",
          "name": "_seedSupplier",
          "type": "string"
        }
      ],
      "name": "finishPlanting",
      "outputs": [],
      "stateMutability": "nonpayable",
      "type": "function"
    },
    {
      "inputs": [
        {
          "internalType": "uint256",
          "name": "_supply",
          "type": "uint256"
        },
        {
          "internalType": "uint256",
          "name": "_price",
          "type": "uint256"
        },
        {
          "internalType": "string",
          "name": "_supplyUnit",
          "type": "string"
        },
        {
          "internalType": "uint256",
          "name": "_tokenId",
          "type": "uint256"
        }
      ],
      "name": "createHarvest",
      "outputs": [],
      "stateMutability": "nonpayable",
      "type": "function"
    },
    {
      "inputs": [
        {
          "internalType": "uint256",
          "name": "_tokenId",
          "type": "uint256"
        },
        {
          "internalType": "uint256",
          "name": "_volume",
          "type": "uint256"
        }
      ],
      "name": "bookHarvest",
      "outputs": [],
      "stateMutability": "payable",
      "type": "function",
      "payable": true
    },
    {
      "inputs": [
        {
          "internalType": "uint256",
          "name": "_tokenId",
          "type": "uint256"
        },
        {
          "internalType": "uint256",
          "name": "_volume",
          "type": "uint256"
        },
        {
          "internalType": "address payable",
          "name": "_payee",
          "type": "address"
        }
      ],
      "name": "confirmReceived",
      "outputs": [],
      "stateMutability": "nonpayable",
      "type": "function"
    },
    {
      "inputs": [
        {
          "internalType": "uint256",
          "name": "_tokenId",
          "type": "uint256"
        },
        {
          "internalType": "address payable",
          "name": "_booker",
          "type": "address"
        },
        {
          "internalType": "address payable",
          "name": "_payee",
          "type": "address"
        },
        {
          "internalType": "uint256",
          "name": "_volume",
          "type": "uint256"
        }
      ],
      "name": "cancelBook",
      "outputs": [],
      "stateMutability": "nonpayable",
      "type": "function"
    },
    {
      "inputs": [
        {
          "internalType": "uint256",
          "name": "_tokenId",
          "type": "uint256"
        }
      ],
      "name": "closeSeason",
      "outputs": [],
      "stateMutability": "nonpayable",
      "type": "function"
    }
  ],
  "bytecode": "0x6080604052600360065534801561001557600080fd5b50613007806100256000396000f3fe6080604052600436106100f35760003560e01c80637de95cba1161008a578063ae6f856f11610059578063ae6f856f14610859578063b12d44151461090d578063c07e7167146109cf578063e293c52014610a1e576100f3565b80637de95cba146107325780639d2d66581461076d5780639dbfab50146107d2578063a54d08091461080a576100f3565b806334c3d1ab116100c657806334c3d1ab1461047657806351894121146104df57806353922db3146105445780637867d617146106ad576100f3565b806319ce9d84146100f857806319d3da97146102f85780631ccd03ac146103335780632528a80614610390575b600080fd5b34801561010457600080fd5b506102f66004803603608081101561011b57600080fd5b81019080803590602001909291908035906020019064010000000081111561014257600080fd5b82018360208201111561015457600080fd5b8035906020019184600183028401116401000000008311171561017657600080fd5b91908080601f016020809104026020016040519081016040528093929190818152602001838380828437600081840152601f19601f820116905080830192505050505050509192919290803590602001906401000000008111156101d957600080fd5b8201836020820111156101eb57600080fd5b8035906020019184600183028401116401000000008311171561020d57600080fd5b91908080601f016020809104026020016040519081016040528093929190818152602001838380828437600081840152601f19601f8201169050808301925050505050505091929192908035906020019064010000000081111561027057600080fd5b82018360208201111561028257600080fd5b803590602001918460018302840111640100000000831117156102a457600080fd5b91908080601f016020809104026020016040519081016040528093929190818152602001838380828437600081840152601f19601f820116905080830192505050505050509192919290505050610a83565b005b34801561030457600080fd5b506103316004803603602081101561031b57600080fd5b8101908080359060200190929190505050610d64565b005b34801561033f57600080fd5b5061036c6004803603602081101561035657600080fd5b8101908080359060200190929190505050610f66565b6040518082600481111561037c57fe5b60ff16815260200191505060405180910390f35b34801561039c57600080fd5b50610474600480360360808110156103b357600080fd5b810190808035906020019092919080359060200190929190803590602001906401000000008111156103e457600080fd5b8201836020820111156103f657600080fd5b8035906020019184600183028401116401000000008311171561041857600080fd5b91908080601f016020809104026020016040519081016040528093929190818152602001838380828437600081840152601f19601f82011690508083019250505050505050919291929080359060200190929190505050610f91565b005b34801561048257600080fd5b506104c56004803603602081101561049957600080fd5b81019080803573ffffffffffffffffffffffffffffffffffffffff1690602001909291905050506111c8565b604051808215151515815260200191505060405180910390f35b3480156104eb57600080fd5b5061052e6004803603602081101561050257600080fd5b81019080803573ffffffffffffffffffffffffffffffffffffffff1690602001909291905050506111f3565b6040518082815260200191505060405180910390f35b34801561055057600080fd5b506106ab6004803603606081101561056757600080fd5b81019080803590602001909291908035906020019064010000000081111561058e57600080fd5b8201836020820111156105a057600080fd5b803590602001918460018302840111640100000000831117156105c257600080fd5b91908080601f016020809104026020016040519081016040528093929190818152602001838380828437600081840152601f19601f8201169050808301925050505050505091929192908035906020019064010000000081111561062557600080fd5b82018360208201111561063757600080fd5b8035906020019184600183028401116401000000008311171561065957600080fd5b91908080601f016020809104026020016040519081016040528093929190818152602001838380828437600081840152601f19601f82011690508083019250505050505050919291929050505061120b565b005b3480156106b957600080fd5b50610730600480360360808110156106d057600080fd5b8101908080359060200190929190803573ffffffffffffffffffffffffffffffffffffffff169060200190929190803573ffffffffffffffffffffffffffffffffffffffff16906020019092919080359060200190929190505050611498565b005b34801561073e57600080fd5b5061076b6004803603602081101561075557600080fd5b81019080803590602001909291905050506119a4565b005b34801561077957600080fd5b506107bc6004803603602081101561079057600080fd5b81019080803573ffffffffffffffffffffffffffffffffffffffff169060200190929190505050611ad1565b6040518082815260200191505060405180910390f35b610808600480360360408110156107e857600080fd5b810190808035906020019092919080359060200190929190505050611ae9565b005b34801561081657600080fd5b506108436004803603602081101561082d57600080fd5b810190808035906020019092919050505061211a565b6040518082815260200191505060405180910390f35b34801561086557600080fd5b506108926004803603602081101561087c57600080fd5b8101908080359060200190929190505050612132565b6040518080602001828103825283818151815260200191508051906020019080838360005b838110156108d25780820151818401526020810190506108b7565b50505050905090810190601f1680156108ff5780820380516001836020036101000a031916815260200191505b509250505060405180910390f35b34801561091957600080fd5b506109466004803603602081101561093057600080fd5b810190808035906020019092919050505061216c565b6040518084815260200183815260200180602001828103825283818151815260200191508051906020019080838360005b83811015610992578082015181840152602081019050610977565b50505050905090810190601f1680156109bf5780820380516001836020036101000a031916815260200191505b5094505050505060405180910390f35b3480156109db57600080fd5b50610a08600480360360208110156109f257600080fd5b810190808035906020019092919050505061222e565b6040518082815260200191505060405180910390f35b348015610a2a57600080fd5b50610a8160048036036060811015610a4157600080fd5b810190808035906020019092919080359060200190929190803573ffffffffffffffffffffffffffffffffffffffff169060200190929190505050612246565b005b83600260008083815260200190815260200160002060000160009054906101000a900460ff166004811115610ab457fe5b816004811115610ac057fe5b14610b33576040517f08c379a00000000000000000000000000000000000000000000000000000000081526004018080602001828103825260198152602001807f494e56414c49443a736561736f6e20746f20646f20746869730000000000000081525060200191505060405180910390fd5b85610b3c612eea565b604051806060016040528088815260200187815260200186815250905080600860008a81526020019081526020016000206000820151816000019080519060200190610b89929190612f0b565b506020820151816001019080519060200190610ba6929190612f0b565b506040820151816002019080519060200190610bc3929190612f0b565b509050507f3207b5edf1c09e0dcef7a279f4c4b64507dbd0a275ba40da4ac23f6d2ca497238882600001518360200151846040015160405180858152602001806020018060200180602001848103845287818151815260200191508051906020019080838360005b83811015610c46578082015181840152602081019050610c2b565b50505050905090810190601f168015610c735780820380516001836020036101000a031916815260200191505b50848103835286818151815260200191508051906020019080838360005b83811015610cac578082015181840152602081019050610c91565b50505050905090810190601f168015610cd95780820380516001836020036101000a031916815260200191505b50848103825285818151815260200191508051906020019080838360005b83811015610d12578082015181840152602081019050610cf7565b50505050905090810190601f168015610d3f5780820380516001836020036101000a031916815260200191505b5097505050505050505060405180910390a150610d5b81612819565b50505050505050565b80600460008083815260200190815260200160002060000160009054906101000a900460ff166004811115610d9557fe5b816004811115610da157fe5b14610e14576040517f08c379a00000000000000000000000000000000000000000000000000000000081526004018080602001828103825260198152602001807f494e56414c49443a736561736f6e20746f20646f20746869730000000000000081525060200191505060405180910390fd5b60006004811115610e2157fe5b60008085815260200190815260200160002060000160006101000a81548160ff02191690836004811115610e5157fe5b0217905550600260008481526020019081526020016000206000815480929190600101919050555060016000848152602001908152602001600020600081548092919060010191905055506060610ea784612132565b90507fe4e37e67a6ba4e17043783620cd641b7f127e2b1f7ff54f0877d979f0c37cca08160016000878152602001908152602001600020546040518080602001838152602001828103825284818151815260200191508051906020019080838360005b83811015610f25578082015181840152602081019050610f0a565b50505050905090810190601f168015610f525780820380516001836020036101000a031916815260200191505b50935050505060405180910390a150505050565b60006020528060005260406000206000915090508060000160009054906101000a900460ff16905081565b80600360008083815260200190815260200160002060000160009054906101000a900460ff166004811115610fc257fe5b816004811115610fce57fe5b14611041576040517f08c379a00000000000000000000000000000000000000000000000000000000081526004018080602001828103825260198152602001807f494e56414c49443a736561736f6e20746f20646f20746869730000000000000081525060200191505060405180910390fd5b8260405180606001604052808881526020018781526020018681525060096000868152602001908152602001600020600082015181600001556020820151816001015560408201518160020190805190602001906110a0929190612f0b565b509050507febd5907469a443950ff775d88df2164d87727e5dad85e756e192b7dc768cf6a860096000868152602001908152602001600020600001546009600087815260200190815260200160002060010154600960008881526020019081526020016000206002018760405180858152602001848152602001806020018381526020018281038252848181546001816001161561010002031660029004815260200191508054600181600116156101000203166002900480156111a55780601f1061117a576101008083540402835291602001916111a5565b820191906000526020600020905b81548152906001019060200180831161118857829003601f168201915b50509550505050505060405180910390a16111bf81612819565b50505050505050565b60046020528060005260406000206000915090508060000160009054906101000a900460ff16905081565b60036020528060005260406000206000915090505481565b82600160008083815260200190815260200160002060000160009054906101000a900460ff16600481111561123c57fe5b81600481111561124857fe5b146112bb576040517f08c379a00000000000000000000000000000000000000000000000000000000081526004018080602001828103825260198152602001807f494e56414c49443a736561736f6e20746f20646f20746869730000000000000081525060200191505060405180910390fd5b84846007600088815260200190815260200160002060000190805190602001906112e6929190612f0b565b5083600760008881526020019081526020016000206001019080519060200190611311929190612f0b565b507f81a56e105ab573b5d45aa0dd01d52d346d7e36e3ccb8bc314c465b5ac4321d6b8660076000898152602001908152602001600020600001600760008a81526020019081526020016000206001016040518084815260200180602001806020018381038352858181546001816001161561010002031660029004815260200191508054600181600116156101000203166002900480156113f35780601f106113c8576101008083540402835291602001916113f3565b820191906000526020600020905b8154815290600101906020018083116113d657829003601f168201915b50508381038252848181546001816001161561010002031660029004815260200191508054600181600116156101000203166002900480156114765780601f1061144b57610100808354040283529160200191611476565b820191906000526020600020905b81548152906001019060200180831161145957829003601f168201915b50509550505050505060405180910390a161149081612819565b505050505050565b60008114156040518060400160405280600e81526020017f494e56414c49443a766f6c756d6500000000000000000000000000000000000081525081819061157b576040517f08c379a00000000000000000000000000000000000000000000000000000000081526004018080602001828103825283818151815260200191508051906020019080838360005b83811015611540578082015181840152602081019050611525565b50505050905090810190601f16801561156d5780820380516001836020036101000a031916815260200191505b509250505060405180910390fd5b50600360008673ffffffffffffffffffffffffffffffffffffffff1673ffffffffffffffffffffffffffffffffffffffff168152602001908152602001600020548311156040518060400160405280601e81526020017f524553545249435445443a756e726561736f6e61626c6520766f6c756d65000081525081819061169d576040517f08c379a00000000000000000000000000000000000000000000000000000000081526004018080602001828103825283818151815260200191508051906020019080838360005b83811015611662578082015181840152602081019050611647565b50505050905090810190601f16801561168f5780820380516001836020036101000a031916815260200191505b509250505060405180910390fd5b5087600460008083815260200190815260200160002060000160009054906101000a900460ff1660048111156116cf57fe5b8160048111156116db57fe5b1461174e576040517f08c379a00000000000000000000000000000000000000000000000000000000081526004018080602001828103825260198152602001807f494e56414c49443a736561736f6e20746f20646f20746869730000000000000081525060200191505060405180910390fd5b600061177988600960008e81526020019081526020016000206001015461288d90919063ffffffff16565b905060006117cf82600560008e73ffffffffffffffffffffffffffffffffffffffff1673ffffffffffffffffffffffffffffffffffffffff1681526020019081526020016000205461291390919063ffffffff16565b905080600560008d73ffffffffffffffffffffffffffffffffffffffff1673ffffffffffffffffffffffffffffffffffffffff168152602001908152602001600020819055506000611850611841846118336064600361295d90919063ffffffff16565b61288d90919063ffffffff16565b8461291390919063ffffffff16565b905061185c8c8b6129a7565b6118668d8b612a40565b7f0d9bf9f54ce76ff39ec339878540f6dfc7af7005ae5931999d711d86a6306e52600960008f8152602001908152602001600020600001548d84604051808481526020018373ffffffffffffffffffffffffffffffffffffffff1673ffffffffffffffffffffffffffffffffffffffff168152602001828152602001935050505060405180910390a18b73ffffffffffffffffffffffffffffffffffffffff166108fc829081150290604051600060405180830381858888f19350505050158015611935573d6000803e3d6000fd5b50600061194b828561291390919063ffffffff16565b90508b73ffffffffffffffffffffffffffffffffffffffff166108fc829081150290604051600060405180830381858888f19350505050158015611993573d6000803e3d6000fd5b505050505050505050505050505050565b80600080600083815260200190815260200160002060000160009054906101000a900460ff1660048111156119d557fe5b8160048111156119e157fe5b14611a54576040517f08c379a00000000000000000000000000000000000000000000000000000000081526004018080602001828103825260198152602001807f494e56414c49443a736561736f6e20746f20646f20746869730000000000000081525060200191505060405180910390fd5b8260026000858152602001908152602001600020600081548092919060010191905055507fefea724755081ebfa846cf2ebb00290b455dd6ca77568ad8b247518d8687555660026000868152602001908152602001600020546040518082815260200191505060405180910390a1611acb81612819565b50505050565b60056020528060005260406000206000915090505481565b60008114156040518060400160405280601081526020017f494e56414c49443a3020616d6f756e7400000000000000000000000000000000815250818190611bcc576040517f08c379a00000000000000000000000000000000000000000000000000000000081526004018080602001828103825283818151815260200191508051906020019080838360005b83811015611b91578082015181840152602081019050611b76565b50505050905090810190601f168015611bbe5780820380516001836020036101000a031916815260200191505b509250505060405180910390fd5b5060096000858152602001908152602001600020600001548311156040518060400160405280601e81526020017f524553545249435445443a616d6f756e74206e6f7420706f737369626c650000815250818190611cc5576040517f08c379a00000000000000000000000000000000000000000000000000000000081526004018080602001828103825283818151815260200191508051906020019080838360005b83811015611c8a578082015181840152602081019050611c6f565b50505050905090810190601f168015611cb75780820380516001836020036101000a031916815260200191505b509250505060405180910390fd5b50611cef85600960008981526020019081526020016000206001015461288d90919063ffffffff16565b34146040518060400160405280601981526020017f494e53554646494349454e543a626f6f6b696e67206665657300000000000000815250818190611dcf576040517f08c379a00000000000000000000000000000000000000000000000000000000081526004018080602001828103825283818151815260200191508051906020019080838360005b83811015611d94578082015181840152602081019050611d79565b50505050905090810190601f168015611dc15780820380516001836020036101000a031916815260200191505b509250505060405180910390fd5b5087600460008083815260200190815260200160002060000160009054906101000a900460ff166004811115611e0157fe5b816004811115611e0d57fe5b14611e80576040517f08c379a00000000000000000000000000000000000000000000000000000000081526004018080602001828103825260198152602001807f494e56414c49443a736561736f6e20746f20646f20746869730000000000000081525060200191505060405180910390fd5b611ed289600360003373ffffffffffffffffffffffffffffffffffffffff1673ffffffffffffffffffffffffffffffffffffffff16815260200190815260200160002054612a8790919063ffffffff16565b600360003373ffffffffffffffffffffffffffffffffffffffff1673ffffffffffffffffffffffffffffffffffffffff16815260200190815260200160002081905550611f3e89600960008d81526020019081526020016000206000015461291390919063ffffffff16565b600960008c81526020019081526020016000206000018190555034600560003373ffffffffffffffffffffffffffffffffffffffff1673ffffffffffffffffffffffffffffffffffffffff168152602001908152602001600020819055507f6525c501b7972e9a070b5a2b85db95e29fa53e4987732699c59d1b37c89061ac600360003373ffffffffffffffffffffffffffffffffffffffff1673ffffffffffffffffffffffffffffffffffffffff16815260200190815260200160002054600960008d8152602001908152602001600020600001548c33600560003373ffffffffffffffffffffffffffffffffffffffff1673ffffffffffffffffffffffffffffffffffffffff16815260200190815260200160002054600460003373ffffffffffffffffffffffffffffffffffffffff1673ffffffffffffffffffffffffffffffffffffffff16815260200190815260200160002060000160009054906101000a900460ff16604051808781526020018681526020018581526020018473ffffffffffffffffffffffffffffffffffffffff1673ffffffffffffffffffffffffffffffffffffffff16815260200183815260200182151515158152602001965050505050505060405180910390a150505050505050505050565b60026020528060005260406000206000915090505481565b6060600080600084815260200190815260200160002060000160009054906101000a900460ff16905061216481612b0f565b915050919050565b6009602052806000526040600020600091509050806000015490806001015490806002018054600181600116156101000203166002900480601f0160208091040260200160405190810160405280929190818152602001828054600181600116156101000203166002900480156122245780601f106121f957610100808354040283529160200191612224565b820191906000526020600020905b81548152906001019060200180831161220757829003601f168201915b5050505050905083565b60016020528060005260406000206000915090505481565b60008214156040518060400160405280601681526020017f494e56414c49443a626f6f6b696e6720766f6c756d6500000000000000000000815250818190612329576040517f08c379a00000000000000000000000000000000000000000000000000000000081526004018080602001828103825283818151815260200191508051906020019080838360005b838110156122ee5780820151818401526020810190506122d3565b50505050905090810190601f16801561231b5780820380516001836020036101000a031916815260200191505b509250505060405180910390fd5b50600360003373ffffffffffffffffffffffffffffffffffffffff1673ffffffffffffffffffffffffffffffffffffffff168152602001908152602001600020548411156040518060400160405280601081526020017f494e56414c49443a626f6f6b696e67730000000000000000000000000000000081525081819061244b576040517f08c379a00000000000000000000000000000000000000000000000000000000081526004018080602001828103825283818151815260200191508051906020019080838360005b838110156124105780820151818401526020810190506123f5565b50505050905090810190601f16801561243d5780820380516001836020036101000a031916815260200191505b509250505060405180910390fd5b5086600460008083815260200190815260200160002060000160009054906101000a900460ff16600481111561247d57fe5b81600481111561248957fe5b146124fc576040517f08c379a00000000000000000000000000000000000000000000000000000000081526004018080602001828103825260198152602001807f494e56414c49443a736561736f6e20746f20646f20746869730000000000000081525060200191505060405180910390fd5b61254e88600360003373ffffffffffffffffffffffffffffffffffffffff1673ffffffffffffffffffffffffffffffffffffffff1681526020019081526020016000205461291390919063ffffffff16565b600360003373ffffffffffffffffffffffffffffffffffffffff1673ffffffffffffffffffffffffffffffffffffffff1681526020019081526020016000208190555060006125bc89600960008d81526020019081526020016000206001015461288d90919063ffffffff16565b905061261081600560003373ffffffffffffffffffffffffffffffffffffffff1673ffffffffffffffffffffffffffffffffffffffff1681526020019081526020016000205461291390919063ffffffff16565b600560003373ffffffffffffffffffffffffffffffffffffffff1673ffffffffffffffffffffffffffffffffffffffff168152602001908152602001600020819055506001600460003373ffffffffffffffffffffffffffffffffffffffff1673ffffffffffffffffffffffffffffffffffffffff16815260200190815260200160002060000160006101000a81548160ff0219169083151502179055508773ffffffffffffffffffffffffffffffffffffffff166108fc829081150290604051600060405180830381858888f193505050501580156126f4573d6000803e3d6000fd5b507f8f1b22e0674fbb33c13eecffa5ca1a2ca2e257d12e8193a518aa003fd1417f1c600360003373ffffffffffffffffffffffffffffffffffffffff1673ffffffffffffffffffffffffffffffffffffffff16815260200190815260200160002054600560003373ffffffffffffffffffffffffffffffffffffffff1673ffffffffffffffffffffffffffffffffffffffff16815260200190815260200160002054600460003373ffffffffffffffffffffffffffffffffffffffff1673ffffffffffffffffffffffffffffffffffffffff16815260200190815260200160002060000160009054906101000a900460ff166040518084815260200183815260200182151515158152602001935050505060405180910390a150505050505050505050565b600160008083815260200190815260200160002060000160009054906101000a900460ff16600481111561284957fe5b01600481111561285557fe5b60008083815260200190815260200160002060000160006101000a81548160ff0219169083600481111561288557fe5b021790555050565b6000808314156128a0576000905061290d565b60008284029050828482816128b157fe5b0414612908576040517f08c379a0000000000000000000000000000000000000000000000000000000008152600401808060200182810382526021815260200180612fb16021913960400191505060405180910390fd5b809150505b92915050565b600061295583836040518060400160405280601e81526020017f536166654d6174683a207375627472616374696f6e206f766572666c6f770000815250612d64565b905092915050565b600061299f83836040518060400160405280601a81526020017f536166654d6174683a206469766973696f6e206279207a65726f000000000000815250612e24565b905092915050565b6129f981600360008573ffffffffffffffffffffffffffffffffffffffff1673ffffffffffffffffffffffffffffffffffffffff1681526020019081526020016000205461291390919063ffffffff16565b600360008473ffffffffffffffffffffffffffffffffffffffff1673ffffffffffffffffffffffffffffffffffffffff168152602001908152602001600020819055505050565b612a69816009600085815260200190815260200160002060000154612a8790919063ffffffff16565b60096000848152602001908152602001600020600001819055505050565b600080828401905083811015612b05576040517f08c379a000000000000000000000000000000000000000000000000000000000815260040180806020018281038252601b8152602001807f536166654d6174683a206164646974696f6e206f766572666c6f77000000000081525060200191505060405180910390fd5b8091505092915050565b60606005826004811115612b1f57fe5b1115612b93576040517f08c379a000000000000000000000000000000000000000000000000000000000815260040180806020018281038252600e8152602001807f494e56414c49443a736561736f6e00000000000000000000000000000000000081525060200191505060405180910390fd5b816004811115612b9f57fe5b60006004811115612bac57fe5b1415612bef576040518060400160405280600781526020017f446f726d616e74000000000000000000000000000000000000000000000000008152509050612d5f565b816004811115612bfb57fe5b60016004811115612c0857fe5b1415612c4b576040518060400160405280600b81526020017f5072657061726174696f6e0000000000000000000000000000000000000000008152509050612d5f565b816004811115612c5757fe5b60026004811115612c6457fe5b1415612ca7576040518060400160405280600881526020017f506c616e74696e670000000000000000000000000000000000000000000000008152509050612d5f565b816004811115612cb357fe5b60036004811115612cc057fe5b1415612d03576040518060400160405280600b81526020017f43726f702047726f7774680000000000000000000000000000000000000000008152509050612d5f565b816004811115612d0f57fe5b600480811115612d1b57fe5b1415612d5e576040518060400160405280600a81526020017f48617276657374696e67000000000000000000000000000000000000000000008152509050612d5f565b5b919050565b6000838311158290612e11576040517f08c379a00000000000000000000000000000000000000000000000000000000081526004018080602001828103825283818151815260200191508051906020019080838360005b83811015612dd6578082015181840152602081019050612dbb565b50505050905090810190601f168015612e035780820380516001836020036101000a031916815260200191505b509250505060405180910390fd5b5060008385039050809150509392505050565b60008083118290612ed0576040517f08c379a00000000000000000000000000000000000000000000000000000000081526004018080602001828103825283818151815260200191508051906020019080838360005b83811015612e95578082015181840152602081019050612e7a565b50505050905090810190601f168015612ec25780820380516001836020036101000a031916815260200191505b509250505060405180910390fd5b506000838581612edc57fe5b049050809150509392505050565b60405180606001604052806060815260200160608152602001606081525090565b828054600181600116156101000203166002900490600052602060002090601f016020900481019282601f10612f4c57805160ff1916838001178555612f7a565b82800160010185558215612f7a579182015b82811115612f79578251825591602001919060010190612f5e565b5b509050612f879190612f8b565b5090565b612fad91905b80821115612fa9576000816000905550600101612f91565b5090565b9056fe536166654d6174683a206d756c7469706c69636174696f6e206f766572666c6f77a2646970667358221220bf33c6db86e70515f339e2e6bc535a8c0a9730926c568aa5cfb6eb22eb2c7edf64736f6c63430006080033",
  "immutableReferences": {},
  "source": "// SPDX-License-Identifier: MIT\n\npragma solidity >=0.4.22 <0.7.0;\n\nimport '@openzeppelin/contracts/math/SafeMath.sol';\nimport '../Season/FarmSeason.sol';\nimport '../Booking/Book.sol';\n\ncontract Farm is FarmSeason, Book {\n\n  using SafeMath for uint256;\n\n  // Booking cancellation penalty\n  uint256 private _percent = 3;\n\n  // Map tokenized farm to preparations data\n  mapping(uint256 => LandPreparations) private preparations;\n\n  // Map tokenized farm to planting data\n  mapping(uint256 => PlantingType) private plantings;\n\n  // Map harvest to farm\n  mapping(uint256 => HarvestType) public _harvests;\n  \n  // Modifiers\n  modifier condition(bool _condition, string memory _msg) {\n    require(_condition, _msg);\n    _;\n  }\n  \n  /**\n   * @dev getSeasonKeyByValue This returns season enum value as a string\n   * @param _season Season value\n   */\n  function getSeasonKeyByValue(Season _season) internal pure returns (string memory) {\n    require(uint256(_season) <= 5, \"INVALID:season\");\n\n    // Loop\n    if (Season.Dormant == _season) return \"Dormant\";\n    if (Season.Preparation == _season) return \"Preparation\";\n    if (Season.Planting == _season) return \"Planting\";\n    if (Season.Growth == _season) return \"Crop Growth\";\n    if (Season.Harvesting == _season) return \"Harvesting\";\n  }\n\n  /**\n   * @dev getTokenSeason This returns the token state\n   * @param _tokenId The tokenized farm token id\n   */\n  function getTokenSeason(uint256 _tokenId) public view returns (string memory) {\n    Season _s = tokenSeason[_tokenId].season;\n    return getSeasonKeyByValue(_s);\n  }\n  \n  /**\n   * @dev openSeason This changes the state of the farm-land\n   * from dormant to preparation for planting\n   * @param _tokenId Tokenized farm token id\n   */\n  function openSeason(uint256 _tokenId)\n    public\n    override\n    inSeason(_tokenId, Season.Dormant)\n    transitionSeason(_tokenId)\n  {\n    currentSeason[_tokenId]++;\n    emit SeasonOpening(\n      currentSeason[_tokenId]\n    );\n  }\n\n  /**\n   * @dev finishPreparations This takes account what the\n   * farmer has achieved preparing for planting season\n   * @param _tokenId _crop, _fertilizer Farmer should answer this params\n   */\n  function finishPreparations(uint256 _tokenId, string memory _crop, string memory _fertilizer)\n    public\n    inSeason(_tokenId, Season.Preparation)\n    transitionSeason(_tokenId)\n  {\n    preparations[_tokenId].crop = _crop;\n    preparations[_tokenId].fertilizer = _fertilizer;\n    emit Preparations(_tokenId, preparations[_tokenId].crop, preparations[_tokenId].fertilizer);\n  }\n\n  /**\n   * @dev finishPlanting This takes account what the farmer\n   * achieved during planting season and crop growth\n   * @param _tokenId, _seedUsed, _expectedYield, _maturityDays,\n   * _idealClimate, _seedSupplier \n   */\n  function finishPlanting(\n    uint256 _tokenId,\n    string memory _seedUsed,\n    string memory _expectedYield,\n    string memory _seedSupplier\n  )\n    public\n    inSeason(_tokenId, Season.Planting)\n    transitionSeason(_tokenId)\n  {\n    PlantingType memory p;\n    p = PlantingType(_seedUsed, _expectedYield, _seedSupplier);\n    plantings[_tokenId] = p;\n    emit Planting(_tokenId, p.seedUsed, p.expectedYield, p.seedSupplier);\n  }\n\n  /**\n   * @dev createHarvest This allow farmer to broadcast harvest\n   * @param _supply, _price, _tokenId Supply ejected from the farm\n   */\n  function createHarvest(\n    uint256 _supply,\n    uint256 _price,\n    string memory _supplyUnit,\n    uint256 _tokenId\n  )\n    public\n    inSeason(_tokenId, Season.Growth)\n    transitionSeason(_tokenId)\n  {\n    _harvests[_tokenId] = HarvestType(_supply, _price, _supplyUnit);\n    emit Harvesting(\n      _harvests[_tokenId].supply,\n      _harvests[_tokenId].price,\n      _harvests[_tokenId].supplyUnit,\n      _tokenId\n    );\n  }\n\n  /**\n   * @dev bookHarvest This allows booking of farm harvests\n   * @param _tokenId, _volume Amount to book\n   */\n  function bookHarvest(\n    uint256 _tokenId,\n    uint256 _volume\n  )\n    public\n    condition(_volume != 0, \"INVALID:0 amount\")\n    condition(_volume <= _harvests[_tokenId].supply, \"RESTRICTED:amount not possible\")\n    condition(msg.value == _harvests[_tokenId].price.mul(_volume), \"INSUFFICIENT:booking fees\")\n    payable\n    inSeason(_tokenId, Season.Harvesting)\n    override\n  {\n    _bookers[msg.sender] = _bookers[msg.sender].add(_volume);\n    _harvests[_tokenId].supply = _harvests[_tokenId].supply.sub(_volume);\n    _deposits[msg.sender] = msg.value;\n    emit Booking(_bookers[msg.sender], _harvests[_tokenId].supply, _tokenId, msg.sender, _deposits[msg.sender], _bookStatus[msg.sender].delivered);\n\n  }\n\n  /**\n   * @dev confirmReceived This confirms bookings received\n   * @param _tokenId, _volume, _payee Volume to confirm\n   * received and payee(owner of tokenized farm) to receive\n   * payments\n   */\n  function confirmReceived(\n    uint256 _tokenId,\n    uint256 _volume,\n    address payable _payee\n  )\n    public\n    condition(_volume != 0, \"INVALID:booking volume\")\n    condition(_volume <= _bookers[msg.sender], \"INVALID:bookings\")\n    inSeason(_tokenId, Season.Harvesting)\n    override\n  {\n    // Burn booker volumes\n    _bookers[msg.sender] = _bookers[msg.sender].sub(_volume);\n    // Calculate owes to farmer\n    uint256 farmOwes = _harvests[_tokenId].price.mul(_volume);\n    // Burn booker deposit\n    _deposits[msg.sender] = _deposits[msg.sender].sub(farmOwes);\n\n    _bookStatus[msg.sender].delivered = true;\n\n    // Transfer owes to farmer\n    _payee.transfer(farmOwes);\n\n    emit Received(_bookers[msg.sender], _deposits[msg.sender], _bookStatus[msg.sender].delivered);\n  }\n\n  function updateSupply(uint256 _tokenId, uint256 _volume) internal {\n    _harvests[_tokenId].supply = _harvests[_tokenId].supply.add(_volume);\n  }\n\n  function updateBookings(address payable _booker, uint256 _volume) internal {\n    _bookers[_booker] = _bookers[_booker].sub(_volume);\n  }\n\n  /**\n   * @dev cancelBook This allows booker to cancel bookings\n   * @param _tokenId, _booker, _payee(farmer), _volume Amount to revert to supply\n   */\n  function cancelBook(\n    uint256 _tokenId,\n    address payable _booker,\n    address payable _payee,\n    uint256 _volume\n  )\n    public\n    condition(_volume != 0, \"INVALID:volume\")\n    condition(_volume <= _bookers[_booker], \"RESTRICTED:unreasonable volume\")\n    inSeason(_tokenId, Season.Harvesting)\n    override\n  {\n    // Assumed refund(to penalize)\n    uint256 _bookerRefund = _harvests[_tokenId].price.mul(_volume);\n    // New booker deposit\n    uint256 _bookerDeposit = _deposits[_booker].sub(_bookerRefund);\n    _deposits[_booker] = _bookerDeposit;\n    // Apply 3% penalty(amount to refund booker)\n    uint256 _refund = _bookerRefund.sub(((uint256(3).div(uint256(100))).mul(_bookerRefund)));\n    // Update bookings\n    updateBookings(_booker, _volume);\n    // Update harvest\n    updateSupply(_tokenId, _volume);\n    // Refund\n    emit CancelBook(\n      _harvests[_tokenId].supply,\n      _booker,\n      _bookerDeposit\n    );\n    _booker.transfer(_refund);\n    uint256 _reward = _bookerRefund.sub(_refund);\n    _payee.transfer(_reward);\n  }\n\n  /*\n   * @dev closeSeason This reset tokenized farm season after depleting harvest\n   * @param _tokenId Tokenized farm id\n   */\n  function closeSeason(uint256 _tokenId)\n    public\n    override\n    inSeason(_tokenId, Season.Harvesting)\n    {\n      tokenSeason[_tokenId].season = Season(uint256(0));\n      currentSeason[_tokenId]++;\n      completedSeasons[_tokenId]++;\n      string memory _newTokenSeason = getTokenSeason(_tokenId);\n      emit SeasonClosing(\n        _newTokenSeason,\n        completedSeasons[_tokenId]\n      );\n    }\n}\n",
  "sourcePath": "/home/lomolo/Projects/taxa/contracts/Farm/Farm.sol",
  "compiler": {
    "name": "solc",
    "version": "0.6.8+commit.0bbfe453.Emscripten.clang"
  },
  "schemaVersion": "3.2.3",
  "updatedAt": "2020-08-24T08:32:18.006Z",
  "networkType": "ethereum",
  "devdoc": {
    "methods": {
      "bookHarvest(uint256,uint256)": {
        "details": "bookHarvest This allows booking of farm harvests",
        "params": {
          "_tokenId": ", _volume Amount to book"
        }
      },
      "cancelBook(uint256,address,address,uint256)": {
        "details": "cancelBook This allows booker to cancel bookings",
        "params": {
          "_tokenId": ", _booker, _payee(farmer), _volume Amount to revert to supply"
        }
      },
      "confirmReceived(uint256,uint256,address)": {
        "details": "confirmReceived This confirms bookings received",
        "params": {
          "_tokenId": ", _volume, _payee Volume to confirm received and payee(owner of tokenized farm) to receive payments"
        }
      },
      "createHarvest(uint256,uint256,string,uint256)": {
        "details": "createHarvest This allow farmer to broadcast harvest",
        "params": {
          "_supply": ", _price, _tokenId Supply ejected from the farm"
        }
      },
      "finishPlanting(uint256,string,string,string)": {
        "details": "finishPlanting This takes account what the farmer achieved during planting season and crop growth",
        "params": {
          "_tokenId": ", _seedUsed, _expectedYield, _maturityDays, _idealClimate, _seedSupplier "
        }
      },
      "finishPreparations(uint256,string,string)": {
        "details": "finishPreparations This takes account what the farmer has achieved preparing for planting season",
        "params": {
          "_tokenId": "_crop, _fertilizer Farmer should answer this params"
        }
      },
      "getTokenSeason(uint256)": {
        "details": "getTokenSeason This returns the token state",
        "params": {
          "_tokenId": "The tokenized farm token id"
        }
      },
      "openSeason(uint256)": {
        "details": "openSeason This changes the state of the farm-land from dormant to preparation for planting",
        "params": {
          "_tokenId": "Tokenized farm token id"
        }
      }
    }
  },
  "userdoc": {
    "methods": {}
  }
}