{
  "contractName": "Farm",
  "abi": [
    {
      "anonymous": false,
      "inputs": [
        {
          "indexed": false,
          "internalType": "uint256",
          "name": "_volume",
          "type": "uint256"
        },
        {
          "indexed": false,
          "internalType": "uint256",
          "name": "_supply",
          "type": "uint256"
        },
        {
          "indexed": false,
          "internalType": "uint256",
          "name": "_tokenId",
          "type": "uint256"
        },
        {
          "indexed": false,
          "internalType": "address",
          "name": "_booker",
          "type": "address"
        },
        {
          "indexed": false,
          "internalType": "uint256",
          "name": "_deposit",
          "type": "uint256"
        }
      ],
      "name": "Booking",
      "type": "event"
    },
    {
      "anonymous": false,
      "inputs": [
        {
          "indexed": false,
          "internalType": "uint256",
          "name": "_supply",
          "type": "uint256"
        },
        {
          "indexed": false,
          "internalType": "address",
          "name": "_booker",
          "type": "address"
        },
        {
          "indexed": false,
          "internalType": "uint256",
          "name": "_deposit",
          "type": "uint256"
        }
      ],
      "name": "CancelBook",
      "type": "event"
    },
    {
      "anonymous": false,
      "inputs": [
        {
          "indexed": false,
          "internalType": "uint256",
          "name": "_supply",
          "type": "uint256"
        },
        {
          "indexed": false,
          "internalType": "uint256",
          "name": "_price",
          "type": "uint256"
        },
        {
          "indexed": false,
          "internalType": "uint256",
          "name": "_tokenId",
          "type": "uint256"
        }
      ],
      "name": "Harvesting",
      "type": "event"
    },
    {
      "anonymous": false,
      "inputs": [
        {
          "indexed": false,
          "internalType": "uint256",
          "name": "_tokenId",
          "type": "uint256"
        },
        {
          "indexed": false,
          "internalType": "string",
          "name": "_seedUsed",
          "type": "string"
        },
        {
          "indexed": false,
          "internalType": "string",
          "name": "_expectedYield",
          "type": "string"
        },
        {
          "indexed": false,
          "internalType": "string",
          "name": "_seedSupplier",
          "type": "string"
        }
      ],
      "name": "Planting",
      "type": "event"
    },
    {
      "anonymous": false,
      "inputs": [
        {
          "indexed": false,
          "internalType": "uint256",
          "name": "_tokenId",
          "type": "uint256"
        },
        {
          "indexed": false,
          "internalType": "string",
          "name": "_crop",
          "type": "string"
        },
        {
          "indexed": false,
          "internalType": "string",
          "name": "_fertilizer",
          "type": "string"
        }
      ],
      "name": "Preparations",
      "type": "event"
    },
    {
      "anonymous": false,
      "inputs": [
        {
          "indexed": false,
          "internalType": "uint256",
          "name": "_volume",
          "type": "uint256"
        },
        {
          "indexed": false,
          "internalType": "uint256",
          "name": "_deposit",
          "type": "uint256"
        }
      ],
      "name": "Received",
      "type": "event"
    },
    {
      "anonymous": false,
      "inputs": [
        {
          "indexed": false,
          "internalType": "string",
          "name": "_tokenState",
          "type": "string"
        },
        {
          "indexed": false,
          "internalType": "uint256",
          "name": "_completeSeason",
          "type": "uint256"
        }
      ],
      "name": "SeasonClosing",
      "type": "event"
    },
    {
      "anonymous": false,
      "inputs": [
        {
          "indexed": false,
          "internalType": "uint256",
          "name": "_seasonNumber",
          "type": "uint256"
        }
      ],
      "name": "SeasonOpening",
      "type": "event"
    },
    {
      "inputs": [
        {
          "internalType": "address",
          "name": "",
          "type": "address"
        }
      ],
      "name": "_bookers",
      "outputs": [
        {
          "internalType": "uint256",
          "name": "",
          "type": "uint256"
        }
      ],
      "stateMutability": "view",
      "type": "function",
      "constant": true
    },
    {
      "inputs": [
        {
          "internalType": "address",
          "name": "",
          "type": "address"
        }
      ],
      "name": "_deposits",
      "outputs": [
        {
          "internalType": "uint256",
          "name": "",
          "type": "uint256"
        }
      ],
      "stateMutability": "view",
      "type": "function",
      "constant": true
    },
    {
      "inputs": [
        {
          "internalType": "uint256",
          "name": "",
          "type": "uint256"
        }
      ],
      "name": "_harvests",
      "outputs": [
        {
          "internalType": "uint256",
          "name": "supply",
          "type": "uint256"
        },
        {
          "internalType": "uint256",
          "name": "price",
          "type": "uint256"
        }
      ],
      "stateMutability": "view",
      "type": "function",
      "constant": true
    },
    {
      "inputs": [
        {
          "internalType": "uint256",
          "name": "",
          "type": "uint256"
        }
      ],
      "name": "completedSeasons",
      "outputs": [
        {
          "internalType": "uint256",
          "name": "",
          "type": "uint256"
        }
      ],
      "stateMutability": "view",
      "type": "function",
      "constant": true
    },
    {
      "inputs": [
        {
          "internalType": "uint256",
          "name": "",
          "type": "uint256"
        }
      ],
      "name": "currentSeason",
      "outputs": [
        {
          "internalType": "uint256",
          "name": "",
          "type": "uint256"
        }
      ],
      "stateMutability": "view",
      "type": "function",
      "constant": true
    },
    {
      "inputs": [
        {
          "internalType": "uint256",
          "name": "",
          "type": "uint256"
        }
      ],
      "name": "tokenSeason",
      "outputs": [
        {
          "internalType": "enum FarmSeason.Season",
          "name": "season",
          "type": "uint8"
        }
      ],
      "stateMutability": "view",
      "type": "function",
      "constant": true
    },
    {
      "inputs": [
        {
          "internalType": "uint256",
          "name": "_tokenId",
          "type": "uint256"
        }
      ],
      "name": "getTokenSeason",
      "outputs": [
        {
          "internalType": "string",
          "name": "",
          "type": "string"
        }
      ],
      "stateMutability": "view",
      "type": "function",
      "constant": true
    },
    {
      "inputs": [
        {
          "internalType": "uint256",
          "name": "_tokenId",
          "type": "uint256"
        }
      ],
      "name": "openSeason",
      "outputs": [],
      "stateMutability": "nonpayable",
      "type": "function"
    },
    {
      "inputs": [
        {
          "internalType": "uint256",
          "name": "_tokenId",
          "type": "uint256"
        },
        {
          "internalType": "string",
          "name": "_crop",
          "type": "string"
        },
        {
          "internalType": "string",
          "name": "_fertilizer",
          "type": "string"
        }
      ],
      "name": "finishPreparations",
      "outputs": [],
      "stateMutability": "nonpayable",
      "type": "function"
    },
    {
      "inputs": [
        {
          "internalType": "uint256",
          "name": "_tokenId",
          "type": "uint256"
        },
        {
          "internalType": "string",
          "name": "_seedUsed",
          "type": "string"
        },
        {
          "internalType": "string",
          "name": "_expectedYield",
          "type": "string"
        },
        {
          "internalType": "string",
          "name": "_seedSupplier",
          "type": "string"
        }
      ],
      "name": "finishPlanting",
      "outputs": [],
      "stateMutability": "nonpayable",
      "type": "function"
    },
    {
      "inputs": [
        {
          "internalType": "uint256",
          "name": "_supply",
          "type": "uint256"
        },
        {
          "internalType": "uint256",
          "name": "_price",
          "type": "uint256"
        },
        {
          "internalType": "uint256",
          "name": "_tokenId",
          "type": "uint256"
        }
      ],
      "name": "createHarvest",
      "outputs": [],
      "stateMutability": "nonpayable",
      "type": "function"
    },
    {
      "inputs": [
        {
          "internalType": "uint256",
          "name": "_tokenId",
          "type": "uint256"
        },
        {
          "internalType": "uint256",
          "name": "_volume",
          "type": "uint256"
        }
      ],
      "name": "bookHarvest",
      "outputs": [],
      "stateMutability": "payable",
      "type": "function",
      "payable": true
    },
    {
      "inputs": [
        {
          "internalType": "uint256",
          "name": "_tokenId",
          "type": "uint256"
        },
        {
          "internalType": "uint256",
          "name": "_volume",
          "type": "uint256"
        },
        {
          "internalType": "address payable",
          "name": "_payee",
          "type": "address"
        }
      ],
      "name": "confirmReceived",
      "outputs": [],
      "stateMutability": "nonpayable",
      "type": "function"
    },
    {
      "inputs": [
        {
          "internalType": "uint256",
          "name": "_tokenId",
          "type": "uint256"
        },
        {
          "internalType": "address payable",
          "name": "_booker",
          "type": "address"
        },
        {
          "internalType": "address payable",
          "name": "_payee",
          "type": "address"
        },
        {
          "internalType": "uint256",
          "name": "_volume",
          "type": "uint256"
        }
      ],
      "name": "cancelBook",
      "outputs": [],
      "stateMutability": "nonpayable",
      "type": "function"
    },
    {
      "inputs": [
        {
          "internalType": "uint256",
          "name": "_tokenId",
          "type": "uint256"
        }
      ],
      "name": "closeSeason",
      "outputs": [],
      "stateMutability": "nonpayable",
      "type": "function"
    }
  ],
  "bytecode": "0x6080604052600360055534801561001557600080fd5b50612bd0806100256000396000f3fe6080604052600436106100e85760003560e01c80637de95cba1161008a578063ae6f856f11610059578063ae6f856f1461074e578063b12d441514610802578063c07e716714610858578063e293c520146108a7576100e8565b80637de95cba146106275780639d2d6658146106625780639dbfab50146106c7578063a54d0809146106ff576100e8565b806342aa9976116100c657806342aa99761461038557806351894121146103d457806353922db3146104395780637867d617146105a2576100e8565b806319ce9d84146100ed57806319d3da97146102ed5780631ccd03ac14610328575b600080fd5b3480156100f957600080fd5b506102eb6004803603608081101561011057600080fd5b81019080803590602001909291908035906020019064010000000081111561013757600080fd5b82018360208201111561014957600080fd5b8035906020019184600183028401116401000000008311171561016b57600080fd5b91908080601f016020809104026020016040519081016040528093929190818152602001838380828437600081840152601f19601f820116905080830192505050505050509192919290803590602001906401000000008111156101ce57600080fd5b8201836020820111156101e057600080fd5b8035906020019184600183028401116401000000008311171561020257600080fd5b91908080601f016020809104026020016040519081016040528093929190818152602001838380828437600081840152601f19601f8201169050808301925050505050505091929192908035906020019064010000000081111561026557600080fd5b82018360208201111561027757600080fd5b8035906020019184600183028401116401000000008311171561029957600080fd5b91908080601f016020809104026020016040519081016040528093929190818152602001838380828437600081840152601f19601f82011690508083019250505050505050919291929050505061090c565b005b3480156102f957600080fd5b506103266004803603602081101561031057600080fd5b8101908080359060200190929190505050610bed565b005b34801561033457600080fd5b506103616004803603602081101561034b57600080fd5b8101908080359060200190929190505050610dcc565b6040518082600481111561037157fe5b60ff16815260200191505060405180910390f35b34801561039157600080fd5b506103d2600480360360608110156103a857600080fd5b81019080803590602001909291908035906020019092919080359060200190929190505050610df7565b005b3480156103e057600080fd5b50610423600480360360208110156103f757600080fd5b81019080803573ffffffffffffffffffffffffffffffffffffffff169060200190929190505050610f6b565b6040518082815260200191505060405180910390f35b34801561044557600080fd5b506105a06004803603606081101561045c57600080fd5b81019080803590602001909291908035906020019064010000000081111561048357600080fd5b82018360208201111561049557600080fd5b803590602001918460018302840111640100000000831117156104b757600080fd5b91908080601f016020809104026020016040519081016040528093929190818152602001838380828437600081840152601f19601f8201169050808301925050505050505091929192908035906020019064010000000081111561051a57600080fd5b82018360208201111561052c57600080fd5b8035906020019184600183028401116401000000008311171561054e57600080fd5b91908080601f016020809104026020016040519081016040528093929190818152602001838380828437600081840152601f19601f820116905080830192505050505050509192919290505050610f83565b005b3480156105ae57600080fd5b50610625600480360360808110156105c557600080fd5b8101908080359060200190929190803573ffffffffffffffffffffffffffffffffffffffff169060200190929190803573ffffffffffffffffffffffffffffffffffffffff16906020019092919080359060200190929190505050611210565b005b34801561063357600080fd5b506106606004803603602081101561064a57600080fd5b810190808035906020019092919050505061171c565b005b34801561066e57600080fd5b506106b16004803603602081101561068557600080fd5b81019080803573ffffffffffffffffffffffffffffffffffffffff169060200190929190505050611849565b6040518082815260200191505060405180910390f35b6106fd600480360360408110156106dd57600080fd5b810190808035906020019092919080359060200190929190505050611861565b005b34801561070b57600080fd5b506107386004803603602081101561072257600080fd5b8101908080359060200190929190505050611e37565b6040518082815260200191505060405180910390f35b34801561075a57600080fd5b506107876004803603602081101561077157600080fd5b8101908080359060200190929190505050611e4f565b6040518080602001828103825283818151815260200191508051906020019080838360005b838110156107c75780820151818401526020810190506107ac565b50505050905090810190601f1680156107f45780820380516001836020036101000a031916815260200191505b509250505060405180910390f35b34801561080e57600080fd5b5061083b6004803603602081101561082557600080fd5b8101908080359060200190929190505050611e89565b604051808381526020018281526020019250505060405180910390f35b34801561086457600080fd5b506108916004803603602081101561087b57600080fd5b8101908080359060200190929190505050611ead565b6040518082815260200191505060405180910390f35b3480156108b357600080fd5b5061090a600480360360608110156108ca57600080fd5b810190808035906020019092919080359060200190929190803573ffffffffffffffffffffffffffffffffffffffff169060200190929190505050611ec5565b005b83600260008083815260200190815260200160002060000160009054906101000a900460ff16600481111561093d57fe5b81600481111561094957fe5b146109bc576040517f08c379a00000000000000000000000000000000000000000000000000000000081526004018080602001828103825260198152602001807f494e56414c49443a736561736f6e20746f20646f20746869730000000000000081525060200191505060405180910390fd5b856109c5612ab3565b604051806060016040528088815260200187815260200186815250905080600760008a81526020019081526020016000206000820151816000019080519060200190610a12929190612ad4565b506020820151816001019080519060200190610a2f929190612ad4565b506040820151816002019080519060200190610a4c929190612ad4565b509050507f3207b5edf1c09e0dcef7a279f4c4b64507dbd0a275ba40da4ac23f6d2ca497238882600001518360200151846040015160405180858152602001806020018060200180602001848103845287818151815260200191508051906020019080838360005b83811015610acf578082015181840152602081019050610ab4565b50505050905090810190601f168015610afc5780820380516001836020036101000a031916815260200191505b50848103835286818151815260200191508051906020019080838360005b83811015610b35578082015181840152602081019050610b1a565b50505050905090810190601f168015610b625780820380516001836020036101000a031916815260200191505b50848103825285818151815260200191508051906020019080838360005b83811015610b9b578082015181840152602081019050610b80565b50505050905090810190601f168015610bc85780820380516001836020036101000a031916815260200191505b5097505050505050505060405180910390a150610be4816123e2565b50505050505050565b80600460008083815260200190815260200160002060000160009054906101000a900460ff166004811115610c1e57fe5b816004811115610c2a57fe5b14610c9d576040517f08c379a00000000000000000000000000000000000000000000000000000000081526004018080602001828103825260198152602001807f494e56414c49443a736561736f6e20746f20646f20746869730000000000000081525060200191505060405180910390fd5b60006004811115610caa57fe5b60008085815260200190815260200160002060000160006101000a81548160ff02191690836004811115610cda57fe5b021790555060016000848152602001908152602001600020600081548092919060010191905055506060610d0d84611e4f565b90507fe4e37e67a6ba4e17043783620cd641b7f127e2b1f7ff54f0877d979f0c37cca08160016000878152602001908152602001600020546040518080602001838152602001828103825284818151815260200191508051906020019080838360005b83811015610d8b578082015181840152602081019050610d70565b50505050905090810190601f168015610db85780820380516001836020036101000a031916815260200191505b50935050505060405180910390a150505050565b60006020528060005260406000206000915090508060000160009054906101000a900460ff16905081565b80600360008083815260200190815260200160002060000160009054906101000a900460ff166004811115610e2857fe5b816004811115610e3457fe5b14610ea7576040517f08c379a00000000000000000000000000000000000000000000000000000000081526004018080602001828103825260198152602001807f494e56414c49443a736561736f6e20746f20646f20746869730000000000000081525060200191505060405180910390fd5b826040518060400160405280878152602001868152506008600086815260200190815260200160002060008201518160000155602082015181600101559050507ff6f55127c68320d5fbdf73f929273816eaab418c37152ad1d528120fe5044de0600860008681526020019081526020016000206000015460086000878152602001908152602001600020600101548660405180848152602001838152602001828152602001935050505060405180910390a1610f63816123e2565b505050505050565b60036020528060005260406000206000915090505481565b82600160008083815260200190815260200160002060000160009054906101000a900460ff166004811115610fb457fe5b816004811115610fc057fe5b14611033576040517f08c379a00000000000000000000000000000000000000000000000000000000081526004018080602001828103825260198152602001807f494e56414c49443a736561736f6e20746f20646f20746869730000000000000081525060200191505060405180910390fd5b848460066000888152602001908152602001600020600001908051906020019061105e929190612ad4565b5083600660008881526020019081526020016000206001019080519060200190611089929190612ad4565b507f81a56e105ab573b5d45aa0dd01d52d346d7e36e3ccb8bc314c465b5ac4321d6b8660066000898152602001908152602001600020600001600660008a815260200190815260200160002060010160405180848152602001806020018060200183810383528581815460018160011615610100020316600290048152602001915080546001816001161561010002031660029004801561116b5780601f106111405761010080835404028352916020019161116b565b820191906000526020600020905b81548152906001019060200180831161114e57829003601f168201915b50508381038252848181546001816001161561010002031660029004815260200191508054600181600116156101000203166002900480156111ee5780601f106111c3576101008083540402835291602001916111ee565b820191906000526020600020905b8154815290600101906020018083116111d157829003601f168201915b50509550505050505060405180910390a1611208816123e2565b505050505050565b60008114156040518060400160405280600e81526020017f494e56414c49443a766f6c756d650000000000000000000000000000000000008152508181906112f3576040517f08c379a00000000000000000000000000000000000000000000000000000000081526004018080602001828103825283818151815260200191508051906020019080838360005b838110156112b857808201518184015260208101905061129d565b50505050905090810190601f1680156112e55780820380516001836020036101000a031916815260200191505b509250505060405180910390fd5b50600360008673ffffffffffffffffffffffffffffffffffffffff1673ffffffffffffffffffffffffffffffffffffffff168152602001908152602001600020548311156040518060400160405280601e81526020017f524553545249435445443a756e726561736f6e61626c6520766f6c756d650000815250818190611415576040517f08c379a00000000000000000000000000000000000000000000000000000000081526004018080602001828103825283818151815260200191508051906020019080838360005b838110156113da5780820151818401526020810190506113bf565b50505050905090810190601f1680156114075780820380516001836020036101000a031916815260200191505b509250505060405180910390fd5b5087600460008083815260200190815260200160002060000160009054906101000a900460ff16600481111561144757fe5b81600481111561145357fe5b146114c6576040517f08c379a00000000000000000000000000000000000000000000000000000000081526004018080602001828103825260198152602001807f494e56414c49443a736561736f6e20746f20646f20746869730000000000000081525060200191505060405180910390fd5b60006114f188600860008e81526020019081526020016000206001015461245690919063ffffffff16565b9050600061154782600460008e73ffffffffffffffffffffffffffffffffffffffff1673ffffffffffffffffffffffffffffffffffffffff168152602001908152602001600020546124dc90919063ffffffff16565b905080600460008d73ffffffffffffffffffffffffffffffffffffffff1673ffffffffffffffffffffffffffffffffffffffff1681526020019081526020016000208190555060006115c86115b9846115ab6064600361252690919063ffffffff16565b61245690919063ffffffff16565b846124dc90919063ffffffff16565b90506115d48c8b612570565b6115de8d8b612609565b7f0d9bf9f54ce76ff39ec339878540f6dfc7af7005ae5931999d711d86a6306e52600860008f8152602001908152602001600020600001548d84604051808481526020018373ffffffffffffffffffffffffffffffffffffffff1673ffffffffffffffffffffffffffffffffffffffff168152602001828152602001935050505060405180910390a18b73ffffffffffffffffffffffffffffffffffffffff166108fc829081150290604051600060405180830381858888f193505050501580156116ad573d6000803e3d6000fd5b5060006116c382856124dc90919063ffffffff16565b90508b73ffffffffffffffffffffffffffffffffffffffff166108fc829081150290604051600060405180830381858888f1935050505015801561170b573d6000803e3d6000fd5b505050505050505050505050505050565b80600080600083815260200190815260200160002060000160009054906101000a900460ff16600481111561174d57fe5b81600481111561175957fe5b146117cc576040517f08c379a00000000000000000000000000000000000000000000000000000000081526004018080602001828103825260198152602001807f494e56414c49443a736561736f6e20746f20646f20746869730000000000000081525060200191505060405180910390fd5b8260026000858152602001908152602001600020600081548092919060010191905055507fefea724755081ebfa846cf2ebb00290b455dd6ca77568ad8b247518d8687555660026000868152602001908152602001600020546040518082815260200191505060405180910390a1611843816123e2565b50505050565b60046020528060005260406000206000915090505481565b60008114156040518060400160405280601081526020017f494e56414c49443a3020616d6f756e7400000000000000000000000000000000815250818190611944576040517f08c379a00000000000000000000000000000000000000000000000000000000081526004018080602001828103825283818151815260200191508051906020019080838360005b838110156119095780820151818401526020810190506118ee565b50505050905090810190601f1680156119365780820380516001836020036101000a031916815260200191505b509250505060405180910390fd5b5060086000858152602001908152602001600020600001548311156040518060400160405280601e81526020017f524553545249435445443a616d6f756e74206e6f7420706f737369626c650000815250818190611a3d576040517f08c379a00000000000000000000000000000000000000000000000000000000081526004018080602001828103825283818151815260200191508051906020019080838360005b83811015611a025780820151818401526020810190506119e7565b50505050905090810190601f168015611a2f5780820380516001836020036101000a031916815260200191505b509250505060405180910390fd5b50611a6785600860008981526020019081526020016000206001015461245690919063ffffffff16565b34146040518060400160405280601981526020017f494e53554646494349454e543a626f6f6b696e67206665657300000000000000815250818190611b47576040517f08c379a00000000000000000000000000000000000000000000000000000000081526004018080602001828103825283818151815260200191508051906020019080838360005b83811015611b0c578082015181840152602081019050611af1565b50505050905090810190601f168015611b395780820380516001836020036101000a031916815260200191505b509250505060405180910390fd5b5087600460008083815260200190815260200160002060000160009054906101000a900460ff166004811115611b7957fe5b816004811115611b8557fe5b14611bf8576040517f08c379a00000000000000000000000000000000000000000000000000000000081526004018080602001828103825260198152602001807f494e56414c49443a736561736f6e20746f20646f20746869730000000000000081525060200191505060405180910390fd5b611c4a89600360003373ffffffffffffffffffffffffffffffffffffffff1673ffffffffffffffffffffffffffffffffffffffff1681526020019081526020016000205461265090919063ffffffff16565b600360003373ffffffffffffffffffffffffffffffffffffffff1673ffffffffffffffffffffffffffffffffffffffff16815260200190815260200160002081905550611cb689600860008d8152602001908152602001600020600001546124dc90919063ffffffff16565b600860008c81526020019081526020016000206000018190555034600460003373ffffffffffffffffffffffffffffffffffffffff1673ffffffffffffffffffffffffffffffffffffffff168152602001908152602001600020819055507f6e687be3dae1aebf21a41af507fa3ca1f6ba0fe20bbeb512c1d1de932dfa06f0600360003373ffffffffffffffffffffffffffffffffffffffff1673ffffffffffffffffffffffffffffffffffffffff16815260200190815260200160002054600860008d8152602001908152602001600020600001548c33600460003373ffffffffffffffffffffffffffffffffffffffff1673ffffffffffffffffffffffffffffffffffffffff16815260200190815260200160002054604051808681526020018581526020018481526020018373ffffffffffffffffffffffffffffffffffffffff1673ffffffffffffffffffffffffffffffffffffffff1681526020018281526020019550505050505060405180910390a150505050505050505050565b60026020528060005260406000206000915090505481565b6060600080600084815260200190815260200160002060000160009054906101000a900460ff169050611e81816126d8565b915050919050565b60086020528060005260406000206000915090508060000154908060010154905082565b60016020528060005260406000206000915090505481565b60008214156040518060400160405280601681526020017f494e56414c49443a626f6f6b696e6720766f6c756d6500000000000000000000815250818190611fa8576040517f08c379a00000000000000000000000000000000000000000000000000000000081526004018080602001828103825283818151815260200191508051906020019080838360005b83811015611f6d578082015181840152602081019050611f52565b50505050905090810190601f168015611f9a5780820380516001836020036101000a031916815260200191505b509250505060405180910390fd5b50600360003373ffffffffffffffffffffffffffffffffffffffff1673ffffffffffffffffffffffffffffffffffffffff168152602001908152602001600020548411156040518060400160405280601081526020017f494e56414c49443a626f6f6b696e6773000000000000000000000000000000008152508181906120ca576040517f08c379a00000000000000000000000000000000000000000000000000000000081526004018080602001828103825283818151815260200191508051906020019080838360005b8381101561208f578082015181840152602081019050612074565b50505050905090810190601f1680156120bc5780820380516001836020036101000a031916815260200191505b509250505060405180910390fd5b5086600460008083815260200190815260200160002060000160009054906101000a900460ff1660048111156120fc57fe5b81600481111561210857fe5b1461217b576040517f08c379a00000000000000000000000000000000000000000000000000000000081526004018080602001828103825260198152602001807f494e56414c49443a736561736f6e20746f20646f20746869730000000000000081525060200191505060405180910390fd5b6121cd88600360003373ffffffffffffffffffffffffffffffffffffffff1673ffffffffffffffffffffffffffffffffffffffff168152602001908152602001600020546124dc90919063ffffffff16565b600360003373ffffffffffffffffffffffffffffffffffffffff1673ffffffffffffffffffffffffffffffffffffffff16815260200190815260200160002081905550600061223b89600860008d81526020019081526020016000206001015461245690919063ffffffff16565b905061228f81600460003373ffffffffffffffffffffffffffffffffffffffff1673ffffffffffffffffffffffffffffffffffffffff168152602001908152602001600020546124dc90919063ffffffff16565b600460003373ffffffffffffffffffffffffffffffffffffffff1673ffffffffffffffffffffffffffffffffffffffff168152602001908152602001600020819055508773ffffffffffffffffffffffffffffffffffffffff166108fc829081150290604051600060405180830381858888f19350505050158015612318573d6000803e3d6000fd5b507f49b838b1f120c3d2fb431047a22c4c3f41cbebfeec469a48c6d0f94db4b831b5600360003373ffffffffffffffffffffffffffffffffffffffff1673ffffffffffffffffffffffffffffffffffffffff16815260200190815260200160002054600460003373ffffffffffffffffffffffffffffffffffffffff1673ffffffffffffffffffffffffffffffffffffffff16815260200190815260200160002054604051808381526020018281526020019250505060405180910390a150505050505050505050565b600160008083815260200190815260200160002060000160009054906101000a900460ff16600481111561241257fe5b01600481111561241e57fe5b60008083815260200190815260200160002060000160006101000a81548160ff0219169083600481111561244e57fe5b021790555050565b60008083141561246957600090506124d6565b600082840290508284828161247a57fe5b04146124d1576040517f08c379a0000000000000000000000000000000000000000000000000000000008152600401808060200182810382526021815260200180612b7a6021913960400191505060405180910390fd5b809150505b92915050565b600061251e83836040518060400160405280601e81526020017f536166654d6174683a207375627472616374696f6e206f766572666c6f77000081525061292d565b905092915050565b600061256883836040518060400160405280601a81526020017f536166654d6174683a206469766973696f6e206279207a65726f0000000000008152506129ed565b905092915050565b6125c281600360008573ffffffffffffffffffffffffffffffffffffffff1673ffffffffffffffffffffffffffffffffffffffff168152602001908152602001600020546124dc90919063ffffffff16565b600360008473ffffffffffffffffffffffffffffffffffffffff1673ffffffffffffffffffffffffffffffffffffffff168152602001908152602001600020819055505050565b61263281600860008581526020019081526020016000206000015461265090919063ffffffff16565b60086000848152602001908152602001600020600001819055505050565b6000808284019050838110156126ce576040517f08c379a000000000000000000000000000000000000000000000000000000000815260040180806020018281038252601b8152602001807f536166654d6174683a206164646974696f6e206f766572666c6f77000000000081525060200191505060405180910390fd5b8091505092915050565b606060058260048111156126e857fe5b111561275c576040517f08c379a000000000000000000000000000000000000000000000000000000000815260040180806020018281038252600e8152602001807f494e56414c49443a736561736f6e00000000000000000000000000000000000081525060200191505060405180910390fd5b81600481111561276857fe5b6000600481111561277557fe5b14156127b8576040518060400160405280600781526020017f446f726d616e74000000000000000000000000000000000000000000000000008152509050612928565b8160048111156127c457fe5b600160048111156127d157fe5b1415612814576040518060400160405280600b81526020017f5072657061726174696f6e0000000000000000000000000000000000000000008152509050612928565b81600481111561282057fe5b6002600481111561282d57fe5b1415612870576040518060400160405280600881526020017f506c616e74696e670000000000000000000000000000000000000000000000008152509050612928565b81600481111561287c57fe5b6003600481111561288957fe5b14156128cc576040518060400160405280600b81526020017f43726f702047726f7774680000000000000000000000000000000000000000008152509050612928565b8160048111156128d857fe5b6004808111156128e457fe5b1415612927576040518060400160405280600a81526020017f48617276657374696e67000000000000000000000000000000000000000000008152509050612928565b5b919050565b60008383111582906129da576040517f08c379a00000000000000000000000000000000000000000000000000000000081526004018080602001828103825283818151815260200191508051906020019080838360005b8381101561299f578082015181840152602081019050612984565b50505050905090810190601f1680156129cc5780820380516001836020036101000a031916815260200191505b509250505060405180910390fd5b5060008385039050809150509392505050565b60008083118290612a99576040517f08c379a00000000000000000000000000000000000000000000000000000000081526004018080602001828103825283818151815260200191508051906020019080838360005b83811015612a5e578082015181840152602081019050612a43565b50505050905090810190601f168015612a8b5780820380516001836020036101000a031916815260200191505b509250505060405180910390fd5b506000838581612aa557fe5b049050809150509392505050565b60405180606001604052806060815260200160608152602001606081525090565b828054600181600116156101000203166002900490600052602060002090601f016020900481019282601f10612b1557805160ff1916838001178555612b43565b82800160010185558215612b43579182015b82811115612b42578251825591602001919060010190612b27565b5b509050612b509190612b54565b5090565b612b7691905b80821115612b72576000816000905550600101612b5a565b5090565b9056fe536166654d6174683a206d756c7469706c69636174696f6e206f766572666c6f77a2646970667358221220125ccf51788ef6b80d4de25bd7704a1d7c5bee0454125ec88dd1bcb163837aae64736f6c63430006080033",
  "immutableReferences": {},
  "source": "// SPDX-License-Identifier: MIT\n\npragma solidity >=0.4.22 <0.7.0;\n\nimport '@openzeppelin/contracts/math/SafeMath.sol';\nimport '../Season/FarmSeason.sol';\nimport '../Booking/Book.sol';\n\ncontract Farm is FarmSeason, Book {\n\n  using SafeMath for uint256;\n\n  // Booking cancellation penalty\n  uint256 private _percent = 3;\n\n  // Map tokenized farm to preparations data\n  mapping(uint256 => LandPreparations) private preparations;\n\n  // Map tokenized farm to planting data\n  mapping(uint256 => PlantingType) private plantings;\n\n  // Map harvest to farm\n  mapping(uint256 => HarvestType) public _harvests;\n  \n  // Modifiers\n  modifier condition(bool _condition, string memory _msg) {\n    require(_condition, _msg);\n    _;\n  }\n  \n  /**\n   * @dev getSeasonKeyByValue This returns season enum value as a string\n   * @param _season Season value\n   */\n  function getSeasonKeyByValue(Season _season) internal pure returns (string memory) {\n    require(uint256(_season) <= 5, \"INVALID:season\");\n\n    // Loop\n    if (Season.Dormant == _season) return \"Dormant\";\n    if (Season.Preparation == _season) return \"Preparation\";\n    if (Season.Planting == _season) return \"Planting\";\n    if (Season.Growth == _season) return \"Crop Growth\";\n    if (Season.Harvesting == _season) return \"Harvesting\";\n  }\n\n  /**\n   * @dev getTokenSeason This returns the token state\n   * @param _tokenId The tokenized farm token id\n   */\n  function getTokenSeason(uint256 _tokenId) public view returns (string memory) {\n    Season _s = tokenSeason[_tokenId].season;\n    return getSeasonKeyByValue(_s);\n  }\n  \n  /**\n   * @dev openSeason This changes the state of the farm-land\n   * from dormant to preparation for planting\n   * @param _tokenId Tokenized farm token id\n   */\n  function openSeason(uint256 _tokenId)\n    public\n    override\n    inSeason(_tokenId, Season.Dormant)\n    transitionSeason(_tokenId)\n  {\n    currentSeason[_tokenId]++;\n    emit SeasonOpening(\n      currentSeason[_tokenId]\n    );\n  }\n\n  /**\n   * @dev finishPreparations This takes account what the\n   * farmer has achieved preparing for planting season\n   * @param _tokenId _crop, _fertilizer Farmer should answer this params\n   */\n  function finishPreparations(uint256 _tokenId, string memory _crop, string memory _fertilizer)\n    public\n    inSeason(_tokenId, Season.Preparation)\n    transitionSeason(_tokenId)\n  {\n    preparations[_tokenId].crop = _crop;\n    preparations[_tokenId].fertilizer = _fertilizer;\n    emit Preparations(_tokenId, preparations[_tokenId].crop, preparations[_tokenId].fertilizer);\n  }\n\n  /**\n   * @dev finishPlanting This takes account what the farmer\n   * achieved during planting season and crop growth\n   * @param _tokenId, _seedUsed, _expectedYield, _maturityDays,\n   * _idealClimate, _seedSupplier \n   */\n  function finishPlanting(\n    uint256 _tokenId,\n    string memory _seedUsed,\n    string memory _expectedYield,\n    string memory _seedSupplier\n  )\n    public\n    inSeason(_tokenId, Season.Planting)\n    transitionSeason(_tokenId)\n  {\n    PlantingType memory p;\n    p = PlantingType(_seedUsed, _expectedYield, _seedSupplier);\n    plantings[_tokenId] = p;\n    emit Planting(_tokenId, p.seedUsed, p.expectedYield, p.seedSupplier);\n  }\n\n  /**\n   * @dev createHarvest This allow farmer to broadcast harvest\n   * @param _supply, _price, _tokenId Supply ejected from the farm\n   */\n  function createHarvest(\n    uint256 _supply,\n    uint256 _price,\n    uint256 _tokenId\n  )\n    public\n    inSeason(_tokenId, Season.Growth)\n    transitionSeason(_tokenId)\n  {\n    _harvests[_tokenId] = HarvestType(_supply, _price);\n    emit Harvesting(\n      _harvests[_tokenId].supply,\n      _harvests[_tokenId].price,\n      _tokenId\n    );\n  }\n\n  /**\n   * @dev bookHarvest This allows booking of farm harvests\n   * @param _tokenId, _volume Amount to book\n   */\n  function bookHarvest(\n    uint256 _tokenId,\n    uint256 _volume\n  )\n    public\n    condition(_volume != 0, \"INVALID:0 amount\")\n    condition(_volume <= _harvests[_tokenId].supply, \"RESTRICTED:amount not possible\")\n    condition(msg.value == _harvests[_tokenId].price.mul(_volume), \"INSUFFICIENT:booking fees\")\n    payable\n    inSeason(_tokenId, Season.Harvesting)\n    override\n  {\n    _bookers[msg.sender] = _bookers[msg.sender].add(_volume);\n    _harvests[_tokenId].supply = _harvests[_tokenId].supply.sub(_volume);\n    _deposits[msg.sender] = msg.value;\n    emit Booking(_bookers[msg.sender], _harvests[_tokenId].supply, _tokenId, msg.sender, _deposits[msg.sender]);\n\n  }\n\n  /**\n   * @dev confirmReceived This confirms bookings received\n   * @param _tokenId, _volume, _payee Volume to confirm\n   * received and payee(owner of tokenized farm) to receive\n   * payments\n   */\n  function confirmReceived(\n    uint256 _tokenId,\n    uint256 _volume,\n    address payable _payee\n  )\n    public\n    condition(_volume != 0, \"INVALID:booking volume\")\n    condition(_volume <= _bookers[msg.sender], \"INVALID:bookings\")\n    inSeason(_tokenId, Season.Harvesting)\n    override\n  {\n    // Burn booker volumes\n    _bookers[msg.sender] = _bookers[msg.sender].sub(_volume);\n    // Calculate owes to farmer\n    uint256 farmOwes = _harvests[_tokenId].price.mul(_volume);\n    // Burn booker deposit\n    _deposits[msg.sender] = _deposits[msg.sender].sub(farmOwes);\n    // Transfer owes to farmer\n    _payee.transfer(farmOwes);\n\n    emit Received(_bookers[msg.sender], _deposits[msg.sender]);\n  }\n\n  function updateSupply(uint256 _tokenId, uint256 _volume) internal {\n    _harvests[_tokenId].supply = _harvests[_tokenId].supply.add(_volume);\n  }\n\n  function updateBookings(address payable _booker, uint256 _volume) internal {\n    _bookers[_booker] = _bookers[_booker].sub(_volume);\n  }\n\n  /**\n   * @dev cancelBook This allows booker to cancel bookings\n   * @param _tokenId, _booker, _payee(farmer), _volume Amount to revert to supply\n   */\n  function cancelBook(\n    uint256 _tokenId,\n    address payable _booker,\n    address payable _payee,\n    uint256 _volume\n  )\n    public\n    condition(_volume != 0, \"INVALID:volume\")\n    condition(_volume <= _bookers[_booker], \"RESTRICTED:unreasonable volume\")\n    inSeason(_tokenId, Season.Harvesting)\n    override\n  {\n    // Assumed refund(to penalize)\n    uint256 _bookerRefund = _harvests[_tokenId].price.mul(_volume);\n    // New booker deposit\n    uint256 _bookerDeposit = _deposits[_booker].sub(_bookerRefund);\n    _deposits[_booker] = _bookerDeposit;\n    // Apply 3% penalty(amount to refund booker)\n    uint256 _refund = _bookerRefund.sub(((uint256(3).div(uint256(100))).mul(_bookerRefund)));\n    // Update bookings\n    updateBookings(_booker, _volume);\n    // Update harvest\n    updateSupply(_tokenId, _volume);\n    // Refund\n    emit CancelBook(\n      _harvests[_tokenId].supply,\n      _booker,\n      _bookerDeposit\n    );\n    _booker.transfer(_refund);\n    uint256 _reward = _bookerRefund.sub(_refund);\n    _payee.transfer(_reward);\n  }\n\n  /*\n   * @dev closeSeason This reset tokenized farm season after depleting harvest\n   * @param _tokenId Tokenized farm id\n   */\n  function closeSeason(uint256 _tokenId)\n    public\n    override\n    inSeason(_tokenId, Season.Harvesting)\n    {\n      tokenSeason[_tokenId].season = Season(uint256(0));\n      completedSeasons[_tokenId]++;\n      string memory _newTokenSeason = getTokenSeason(_tokenId);\n      emit SeasonClosing(\n        _newTokenSeason,\n        completedSeasons[_tokenId]\n      );\n    }\n}\n",
  "sourcePath": "/home/lomolo/Projects/taxa/contracts/Farm/Farm.sol",
  "compiler": {
    "name": "solc",
    "version": "0.6.8+commit.0bbfe453.Emscripten.clang"
  },
  "schemaVersion": "3.2.3",
  "updatedAt": "2020-08-12T16:13:18.227Z",
  "networkType": "ethereum",
  "devdoc": {
    "methods": {
      "bookHarvest(uint256,uint256)": {
        "details": "bookHarvest This allows booking of farm harvests",
        "params": {
          "_tokenId": ", _volume Amount to book"
        }
      },
      "cancelBook(uint256,address,address,uint256)": {
        "details": "cancelBook This allows booker to cancel bookings",
        "params": {
          "_tokenId": ", _booker, _payee(farmer), _volume Amount to revert to supply"
        }
      },
      "confirmReceived(uint256,uint256,address)": {
        "details": "confirmReceived This confirms bookings received",
        "params": {
          "_tokenId": ", _volume, _payee Volume to confirm received and payee(owner of tokenized farm) to receive payments"
        }
      },
      "createHarvest(uint256,uint256,uint256)": {
        "details": "createHarvest This allow farmer to broadcast harvest",
        "params": {
          "_supply": ", _price, _tokenId Supply ejected from the farm"
        }
      },
      "finishPlanting(uint256,string,string,string)": {
        "details": "finishPlanting This takes account what the farmer achieved during planting season and crop growth",
        "params": {
          "_tokenId": ", _seedUsed, _expectedYield, _maturityDays, _idealClimate, _seedSupplier "
        }
      },
      "finishPreparations(uint256,string,string)": {
        "details": "finishPreparations This takes account what the farmer has achieved preparing for planting season",
        "params": {
          "_tokenId": "_crop, _fertilizer Farmer should answer this params"
        }
      },
      "getTokenSeason(uint256)": {
        "details": "getTokenSeason This returns the token state",
        "params": {
          "_tokenId": "The tokenized farm token id"
        }
      },
      "openSeason(uint256)": {
        "details": "openSeason This changes the state of the farm-land from dormant to preparation for planting",
        "params": {
          "_tokenId": "Tokenized farm token id"
        }
      }
    }
  },
  "userdoc": {
    "methods": {}
  }
}