{
  "contractName": "Farm",
  "abi": [
    {
      "anonymous": false,
      "inputs": [
        {
          "indexed": false,
          "internalType": "uint256",
          "name": "_volume",
          "type": "uint256"
        },
        {
          "indexed": false,
          "internalType": "uint256",
          "name": "_supply",
          "type": "uint256"
        },
        {
          "indexed": false,
          "internalType": "uint256",
          "name": "_tokenId",
          "type": "uint256"
        },
        {
          "indexed": false,
          "internalType": "address",
          "name": "_booker",
          "type": "address"
        },
        {
          "indexed": false,
          "internalType": "uint256",
          "name": "_deposit",
          "type": "uint256"
        }
      ],
      "name": "Booking",
      "type": "event"
    },
    {
      "anonymous": false,
      "inputs": [
        {
          "indexed": false,
          "internalType": "uint256",
          "name": "_supply",
          "type": "uint256"
        },
        {
          "indexed": false,
          "internalType": "address",
          "name": "_booker",
          "type": "address"
        },
        {
          "indexed": false,
          "internalType": "uint256",
          "name": "_deposit",
          "type": "uint256"
        }
      ],
      "name": "CancelBook",
      "type": "event"
    },
    {
      "anonymous": false,
      "inputs": [
        {
          "indexed": false,
          "internalType": "uint256",
          "name": "_supply",
          "type": "uint256"
        },
        {
          "indexed": false,
          "internalType": "uint256",
          "name": "_price",
          "type": "uint256"
        },
        {
          "indexed": false,
          "internalType": "uint256",
          "name": "_tokenId",
          "type": "uint256"
        }
      ],
      "name": "Harvesting",
      "type": "event"
    },
    {
      "anonymous": false,
      "inputs": [
        {
          "indexed": false,
          "internalType": "uint256",
          "name": "_tokenId",
          "type": "uint256"
        },
        {
          "indexed": false,
          "internalType": "string",
          "name": "_seedUsed",
          "type": "string"
        },
        {
          "indexed": false,
          "internalType": "string",
          "name": "_expectedYield",
          "type": "string"
        },
        {
          "indexed": false,
          "internalType": "string",
          "name": "_seedSupplier",
          "type": "string"
        }
      ],
      "name": "Planting",
      "type": "event"
    },
    {
      "anonymous": false,
      "inputs": [
        {
          "indexed": false,
          "internalType": "uint256",
          "name": "_tokenId",
          "type": "uint256"
        },
        {
          "indexed": false,
          "internalType": "string",
          "name": "_crop",
          "type": "string"
        },
        {
          "indexed": false,
          "internalType": "string",
          "name": "_fertilizer",
          "type": "string"
        }
      ],
      "name": "Preparations",
      "type": "event"
    },
    {
      "anonymous": false,
      "inputs": [
        {
          "indexed": false,
          "internalType": "uint256",
          "name": "_volume",
          "type": "uint256"
        },
        {
          "indexed": false,
          "internalType": "uint256",
          "name": "_deposit",
          "type": "uint256"
        }
      ],
      "name": "Received",
      "type": "event"
    },
    {
      "anonymous": false,
      "inputs": [
        {
          "indexed": false,
          "internalType": "uint256",
          "name": "_seasonNumber",
          "type": "uint256"
        }
      ],
      "name": "SeasonOpening",
      "type": "event"
    },
    {
      "inputs": [
        {
          "internalType": "address",
          "name": "",
          "type": "address"
        }
      ],
      "name": "_bookers",
      "outputs": [
        {
          "internalType": "uint256",
          "name": "",
          "type": "uint256"
        }
      ],
      "stateMutability": "view",
      "type": "function",
      "constant": true
    },
    {
      "inputs": [
        {
          "internalType": "address",
          "name": "",
          "type": "address"
        }
      ],
      "name": "_deposits",
      "outputs": [
        {
          "internalType": "uint256",
          "name": "",
          "type": "uint256"
        }
      ],
      "stateMutability": "view",
      "type": "function",
      "constant": true
    },
    {
      "inputs": [
        {
          "internalType": "uint256",
          "name": "",
          "type": "uint256"
        }
      ],
      "name": "_harvests",
      "outputs": [
        {
          "internalType": "uint256",
          "name": "supply",
          "type": "uint256"
        },
        {
          "internalType": "uint256",
          "name": "price",
          "type": "uint256"
        }
      ],
      "stateMutability": "view",
      "type": "function",
      "constant": true
    },
    {
      "inputs": [
        {
          "internalType": "uint256",
          "name": "",
          "type": "uint256"
        }
      ],
      "name": "numberOfSeason",
      "outputs": [
        {
          "internalType": "uint256",
          "name": "",
          "type": "uint256"
        }
      ],
      "stateMutability": "view",
      "type": "function",
      "constant": true
    },
    {
      "inputs": [
        {
          "internalType": "uint256",
          "name": "",
          "type": "uint256"
        }
      ],
      "name": "tokenSeason",
      "outputs": [
        {
          "internalType": "enum FarmSeason.Season",
          "name": "season",
          "type": "uint8"
        }
      ],
      "stateMutability": "view",
      "type": "function",
      "constant": true
    },
    {
      "inputs": [
        {
          "internalType": "uint256",
          "name": "_tokenId",
          "type": "uint256"
        }
      ],
      "name": "getTokenSeason",
      "outputs": [
        {
          "internalType": "string",
          "name": "",
          "type": "string"
        }
      ],
      "stateMutability": "view",
      "type": "function",
      "constant": true
    },
    {
      "inputs": [
        {
          "internalType": "uint256",
          "name": "_tokenId",
          "type": "uint256"
        }
      ],
      "name": "openSeason",
      "outputs": [],
      "stateMutability": "nonpayable",
      "type": "function"
    },
    {
      "inputs": [
        {
          "internalType": "uint256",
          "name": "_tokenId",
          "type": "uint256"
        },
        {
          "internalType": "string",
          "name": "_crop",
          "type": "string"
        },
        {
          "internalType": "string",
          "name": "_fertilizer",
          "type": "string"
        }
      ],
      "name": "finishPreparations",
      "outputs": [],
      "stateMutability": "nonpayable",
      "type": "function"
    },
    {
      "inputs": [
        {
          "internalType": "uint256",
          "name": "_tokenId",
          "type": "uint256"
        },
        {
          "internalType": "string",
          "name": "_seedUsed",
          "type": "string"
        },
        {
          "internalType": "string",
          "name": "_expectedYield",
          "type": "string"
        },
        {
          "internalType": "string",
          "name": "_seedSupplier",
          "type": "string"
        }
      ],
      "name": "finishPlanting",
      "outputs": [],
      "stateMutability": "nonpayable",
      "type": "function"
    },
    {
      "inputs": [
        {
          "internalType": "uint256",
          "name": "_supply",
          "type": "uint256"
        },
        {
          "internalType": "uint256",
          "name": "_price",
          "type": "uint256"
        },
        {
          "internalType": "uint256",
          "name": "_tokenId",
          "type": "uint256"
        }
      ],
      "name": "createHarvest",
      "outputs": [],
      "stateMutability": "nonpayable",
      "type": "function"
    },
    {
      "inputs": [
        {
          "internalType": "uint256",
          "name": "_tokenId",
          "type": "uint256"
        },
        {
          "internalType": "uint256",
          "name": "_volume",
          "type": "uint256"
        }
      ],
      "name": "bookHarvest",
      "outputs": [],
      "stateMutability": "payable",
      "type": "function",
      "payable": true
    },
    {
      "inputs": [
        {
          "internalType": "uint256",
          "name": "_tokenId",
          "type": "uint256"
        },
        {
          "internalType": "uint256",
          "name": "_volume",
          "type": "uint256"
        },
        {
          "internalType": "address payable",
          "name": "_payee",
          "type": "address"
        }
      ],
      "name": "confirmReceived",
      "outputs": [],
      "stateMutability": "nonpayable",
      "type": "function"
    },
    {
      "inputs": [
        {
          "internalType": "uint256",
          "name": "_tokenId",
          "type": "uint256"
        },
        {
          "internalType": "address payable",
          "name": "_booker",
          "type": "address"
        },
        {
          "internalType": "address payable",
          "name": "_payee",
          "type": "address"
        },
        {
          "internalType": "uint256",
          "name": "_volume",
          "type": "uint256"
        }
      ],
      "name": "cancelBook",
      "outputs": [],
      "stateMutability": "nonpayable",
      "type": "function"
    }
  ],
  "bytecode": "0x6080604052600360045534801561001557600080fd5b50612929806100256000396000f3fe6080604052600436106100c25760003560e01c80637867d6171161007f5780639dbfab50116100595780639dbfab50146106b5578063ae6f856f146106ed578063b12d4415146107a1578063e293c520146107f7576100c2565b80637867d617146105905780637de95cba146106155780639d2d665814610650576100c2565b806319ce9d84146100c75780631ccd03ac146102c757806342aa9976146103245780634bc28f1d1461037357806351894121146103c257806353922db314610427575b600080fd5b3480156100d357600080fd5b506102c5600480360360808110156100ea57600080fd5b81019080803590602001909291908035906020019064010000000081111561011157600080fd5b82018360208201111561012357600080fd5b8035906020019184600183028401116401000000008311171561014557600080fd5b91908080601f016020809104026020016040519081016040528093929190818152602001838380828437600081840152601f19601f820116905080830192505050505050509192919290803590602001906401000000008111156101a857600080fd5b8201836020820111156101ba57600080fd5b803590602001918460018302840111640100000000831117156101dc57600080fd5b91908080601f016020809104026020016040519081016040528093929190818152602001838380828437600081840152601f19601f8201169050808301925050505050505091929192908035906020019064010000000081111561023f57600080fd5b82018360208201111561025157600080fd5b8035906020019184600183028401116401000000008311171561027357600080fd5b91908080601f016020809104026020016040519081016040528093929190818152602001838380828437600081840152601f19601f82011690508083019250505050505050919291929050505061085c565b005b3480156102d357600080fd5b50610300600480360360208110156102ea57600080fd5b8101908080359060200190929190505050610b3d565b6040518082600481111561031057fe5b60ff16815260200191505060405180910390f35b34801561033057600080fd5b506103716004803603606081101561034757600080fd5b81019080803590602001909291908035906020019092919080359060200190929190505050610b68565b005b34801561037f57600080fd5b506103ac6004803603602081101561039657600080fd5b8101908080359060200190929190505050610cdc565b6040518082815260200191505060405180910390f35b3480156103ce57600080fd5b50610411600480360360208110156103e557600080fd5b81019080803573ffffffffffffffffffffffffffffffffffffffff169060200190929190505050610cf4565b6040518082815260200191505060405180910390f35b34801561043357600080fd5b5061058e6004803603606081101561044a57600080fd5b81019080803590602001909291908035906020019064010000000081111561047157600080fd5b82018360208201111561048357600080fd5b803590602001918460018302840111640100000000831117156104a557600080fd5b91908080601f016020809104026020016040519081016040528093929190818152602001838380828437600081840152601f19601f8201169050808301925050505050505091929192908035906020019064010000000081111561050857600080fd5b82018360208201111561051a57600080fd5b8035906020019184600183028401116401000000008311171561053c57600080fd5b91908080601f016020809104026020016040519081016040528093929190818152602001838380828437600081840152601f19601f820116905080830192505050505050509192919290505050610d0c565b005b34801561059c57600080fd5b50610613600480360360808110156105b357600080fd5b8101908080359060200190929190803573ffffffffffffffffffffffffffffffffffffffff169060200190929190803573ffffffffffffffffffffffffffffffffffffffff16906020019092919080359060200190929190505050610f99565b005b34801561062157600080fd5b5061064e6004803603602081101561063857600080fd5b81019080803590602001909291905050506114a5565b005b34801561065c57600080fd5b5061069f6004803603602081101561067357600080fd5b81019080803573ffffffffffffffffffffffffffffffffffffffff1690602001909291905050506115d2565b6040518082815260200191505060405180910390f35b6106eb600480360360408110156106cb57600080fd5b8101908080359060200190929190803590602001909291905050506115ea565b005b3480156106f957600080fd5b506107266004803603602081101561071057600080fd5b8101908080359060200190929190505050611bc0565b6040518080602001828103825283818151815260200191508051906020019080838360005b8381101561076657808201518184015260208101905061074b565b50505050905090810190601f1680156107935780820380516001836020036101000a031916815260200191505b509250505060405180910390f35b3480156107ad57600080fd5b506107da600480360360208110156107c457600080fd5b8101908080359060200190929190505050611bfa565b604051808381526020018281526020019250505060405180910390f35b34801561080357600080fd5b5061085a6004803603606081101561081a57600080fd5b810190808035906020019092919080359060200190929190803573ffffffffffffffffffffffffffffffffffffffff169060200190929190505050611c1e565b005b83600260008083815260200190815260200160002060000160009054906101000a900460ff16600481111561088d57fe5b81600481111561089957fe5b1461090c576040517f08c379a00000000000000000000000000000000000000000000000000000000081526004018080602001828103825260198152602001807f494e56414c49443a736561736f6e20746f20646f20746869730000000000000081525060200191505060405180910390fd5b8561091561280c565b604051806060016040528088815260200187815260200186815250905080600660008a8152602001908152602001600020600082015181600001908051906020019061096292919061282d565b50602082015181600101908051906020019061097f92919061282d565b50604082015181600201908051906020019061099c92919061282d565b509050507f3207b5edf1c09e0dcef7a279f4c4b64507dbd0a275ba40da4ac23f6d2ca497238882600001518360200151846040015160405180858152602001806020018060200180602001848103845287818151815260200191508051906020019080838360005b83811015610a1f578082015181840152602081019050610a04565b50505050905090810190601f168015610a4c5780820380516001836020036101000a031916815260200191505b50848103835286818151815260200191508051906020019080838360005b83811015610a85578082015181840152602081019050610a6a565b50505050905090810190601f168015610ab25780820380516001836020036101000a031916815260200191505b50848103825285818151815260200191508051906020019080838360005b83811015610aeb578082015181840152602081019050610ad0565b50505050905090810190601f168015610b185780820380516001836020036101000a031916815260200191505b5097505050505050505060405180910390a150610b348161213b565b50505050505050565b60006020528060005260406000206000915090508060000160009054906101000a900460ff16905081565b80600360008083815260200190815260200160002060000160009054906101000a900460ff166004811115610b9957fe5b816004811115610ba557fe5b14610c18576040517f08c379a00000000000000000000000000000000000000000000000000000000081526004018080602001828103825260198152602001807f494e56414c49443a736561736f6e20746f20646f20746869730000000000000081525060200191505060405180910390fd5b826040518060400160405280878152602001868152506007600086815260200190815260200160002060008201518160000155602082015181600101559050507ff6f55127c68320d5fbdf73f929273816eaab418c37152ad1d528120fe5044de0600760008681526020019081526020016000206000015460076000878152602001908152602001600020600101548660405180848152602001838152602001828152602001935050505060405180910390a1610cd48161213b565b505050505050565b60016020528060005260406000206000915090505481565b60026020528060005260406000206000915090505481565b82600160008083815260200190815260200160002060000160009054906101000a900460ff166004811115610d3d57fe5b816004811115610d4957fe5b14610dbc576040517f08c379a00000000000000000000000000000000000000000000000000000000081526004018080602001828103825260198152602001807f494e56414c49443a736561736f6e20746f20646f20746869730000000000000081525060200191505060405180910390fd5b8484600560008881526020019081526020016000206000019080519060200190610de792919061282d565b5083600560008881526020019081526020016000206001019080519060200190610e1292919061282d565b507f81a56e105ab573b5d45aa0dd01d52d346d7e36e3ccb8bc314c465b5ac4321d6b8660056000898152602001908152602001600020600001600560008a8152602001908152602001600020600101604051808481526020018060200180602001838103835285818154600181600116156101000203166002900481526020019150805460018160011615610100020316600290048015610ef45780601f10610ec957610100808354040283529160200191610ef4565b820191906000526020600020905b815481529060010190602001808311610ed757829003601f168201915b5050838103825284818154600181600116156101000203166002900481526020019150805460018160011615610100020316600290048015610f775780601f10610f4c57610100808354040283529160200191610f77565b820191906000526020600020905b815481529060010190602001808311610f5a57829003601f168201915b50509550505050505060405180910390a1610f918161213b565b505050505050565b60008114156040518060400160405280600e81526020017f494e56414c49443a766f6c756d6500000000000000000000000000000000000081525081819061107c576040517f08c379a00000000000000000000000000000000000000000000000000000000081526004018080602001828103825283818151815260200191508051906020019080838360005b83811015611041578082015181840152602081019050611026565b50505050905090810190601f16801561106e5780820380516001836020036101000a031916815260200191505b509250505060405180910390fd5b50600260008673ffffffffffffffffffffffffffffffffffffffff1673ffffffffffffffffffffffffffffffffffffffff168152602001908152602001600020548311156040518060400160405280601e81526020017f524553545249435445443a756e726561736f6e61626c6520766f6c756d65000081525081819061119e576040517f08c379a00000000000000000000000000000000000000000000000000000000081526004018080602001828103825283818151815260200191508051906020019080838360005b83811015611163578082015181840152602081019050611148565b50505050905090810190601f1680156111905780820380516001836020036101000a031916815260200191505b509250505060405180910390fd5b5087600460008083815260200190815260200160002060000160009054906101000a900460ff1660048111156111d057fe5b8160048111156111dc57fe5b1461124f576040517f08c379a00000000000000000000000000000000000000000000000000000000081526004018080602001828103825260198152602001807f494e56414c49443a736561736f6e20746f20646f20746869730000000000000081525060200191505060405180910390fd5b600061127a88600760008e8152602001908152602001600020600101546121af90919063ffffffff16565b905060006112d082600360008e73ffffffffffffffffffffffffffffffffffffffff1673ffffffffffffffffffffffffffffffffffffffff1681526020019081526020016000205461223590919063ffffffff16565b905080600360008d73ffffffffffffffffffffffffffffffffffffffff1673ffffffffffffffffffffffffffffffffffffffff168152602001908152602001600020819055506000611351611342846113346064600361227f90919063ffffffff16565b6121af90919063ffffffff16565b8461223590919063ffffffff16565b905061135d8c8b6122c9565b6113678d8b612362565b7f0d9bf9f54ce76ff39ec339878540f6dfc7af7005ae5931999d711d86a6306e52600760008f8152602001908152602001600020600001548d84604051808481526020018373ffffffffffffffffffffffffffffffffffffffff1673ffffffffffffffffffffffffffffffffffffffff168152602001828152602001935050505060405180910390a18b73ffffffffffffffffffffffffffffffffffffffff166108fc829081150290604051600060405180830381858888f19350505050158015611436573d6000803e3d6000fd5b50600061144c828561223590919063ffffffff16565b90508b73ffffffffffffffffffffffffffffffffffffffff166108fc829081150290604051600060405180830381858888f19350505050158015611494573d6000803e3d6000fd5b505050505050505050505050505050565b80600080600083815260200190815260200160002060000160009054906101000a900460ff1660048111156114d657fe5b8160048111156114e257fe5b14611555576040517f08c379a00000000000000000000000000000000000000000000000000000000081526004018080602001828103825260198152602001807f494e56414c49443a736561736f6e20746f20646f20746869730000000000000081525060200191505060405180910390fd5b8260016000858152602001908152602001600020600081548092919060010191905055507fefea724755081ebfa846cf2ebb00290b455dd6ca77568ad8b247518d8687555660016000868152602001908152602001600020546040518082815260200191505060405180910390a16115cc8161213b565b50505050565b60036020528060005260406000206000915090505481565b60008114156040518060400160405280601081526020017f494e56414c49443a3020616d6f756e74000000000000000000000000000000008152508181906116cd576040517f08c379a00000000000000000000000000000000000000000000000000000000081526004018080602001828103825283818151815260200191508051906020019080838360005b83811015611692578082015181840152602081019050611677565b50505050905090810190601f1680156116bf5780820380516001836020036101000a031916815260200191505b509250505060405180910390fd5b5060076000858152602001908152602001600020600001548311156040518060400160405280601e81526020017f524553545249435445443a616d6f756e74206e6f7420706f737369626c6500008152508181906117c6576040517f08c379a00000000000000000000000000000000000000000000000000000000081526004018080602001828103825283818151815260200191508051906020019080838360005b8381101561178b578082015181840152602081019050611770565b50505050905090810190601f1680156117b85780820380516001836020036101000a031916815260200191505b509250505060405180910390fd5b506117f08560076000898152602001908152602001600020600101546121af90919063ffffffff16565b34146040518060400160405280601981526020017f494e53554646494349454e543a626f6f6b696e672066656573000000000000008152508181906118d0576040517f08c379a00000000000000000000000000000000000000000000000000000000081526004018080602001828103825283818151815260200191508051906020019080838360005b8381101561189557808201518184015260208101905061187a565b50505050905090810190601f1680156118c25780820380516001836020036101000a031916815260200191505b509250505060405180910390fd5b5087600460008083815260200190815260200160002060000160009054906101000a900460ff16600481111561190257fe5b81600481111561190e57fe5b14611981576040517f08c379a00000000000000000000000000000000000000000000000000000000081526004018080602001828103825260198152602001807f494e56414c49443a736561736f6e20746f20646f20746869730000000000000081525060200191505060405180910390fd5b6119d389600260003373ffffffffffffffffffffffffffffffffffffffff1673ffffffffffffffffffffffffffffffffffffffff168152602001908152602001600020546123a990919063ffffffff16565b600260003373ffffffffffffffffffffffffffffffffffffffff1673ffffffffffffffffffffffffffffffffffffffff16815260200190815260200160002081905550611a3f89600760008d81526020019081526020016000206000015461223590919063ffffffff16565b600760008c81526020019081526020016000206000018190555034600360003373ffffffffffffffffffffffffffffffffffffffff1673ffffffffffffffffffffffffffffffffffffffff168152602001908152602001600020819055507f6e687be3dae1aebf21a41af507fa3ca1f6ba0fe20bbeb512c1d1de932dfa06f0600260003373ffffffffffffffffffffffffffffffffffffffff1673ffffffffffffffffffffffffffffffffffffffff16815260200190815260200160002054600760008d8152602001908152602001600020600001548c33600360003373ffffffffffffffffffffffffffffffffffffffff1673ffffffffffffffffffffffffffffffffffffffff16815260200190815260200160002054604051808681526020018581526020018481526020018373ffffffffffffffffffffffffffffffffffffffff1673ffffffffffffffffffffffffffffffffffffffff1681526020018281526020019550505050505060405180910390a150505050505050505050565b6060600080600084815260200190815260200160002060000160009054906101000a900460ff169050611bf281612431565b915050919050565b60076020528060005260406000206000915090508060000154908060010154905082565b60008214156040518060400160405280601681526020017f494e56414c49443a626f6f6b696e6720766f6c756d6500000000000000000000815250818190611d01576040517f08c379a00000000000000000000000000000000000000000000000000000000081526004018080602001828103825283818151815260200191508051906020019080838360005b83811015611cc6578082015181840152602081019050611cab565b50505050905090810190601f168015611cf35780820380516001836020036101000a031916815260200191505b509250505060405180910390fd5b50600260003373ffffffffffffffffffffffffffffffffffffffff1673ffffffffffffffffffffffffffffffffffffffff168152602001908152602001600020548411156040518060400160405280601081526020017f494e56414c49443a626f6f6b696e677300000000000000000000000000000000815250818190611e23576040517f08c379a00000000000000000000000000000000000000000000000000000000081526004018080602001828103825283818151815260200191508051906020019080838360005b83811015611de8578082015181840152602081019050611dcd565b50505050905090810190601f168015611e155780820380516001836020036101000a031916815260200191505b509250505060405180910390fd5b5086600460008083815260200190815260200160002060000160009054906101000a900460ff166004811115611e5557fe5b816004811115611e6157fe5b14611ed4576040517f08c379a00000000000000000000000000000000000000000000000000000000081526004018080602001828103825260198152602001807f494e56414c49443a736561736f6e20746f20646f20746869730000000000000081525060200191505060405180910390fd5b611f2688600260003373ffffffffffffffffffffffffffffffffffffffff1673ffffffffffffffffffffffffffffffffffffffff1681526020019081526020016000205461223590919063ffffffff16565b600260003373ffffffffffffffffffffffffffffffffffffffff1673ffffffffffffffffffffffffffffffffffffffff168152602001908152602001600020819055506000611f9489600760008d8152602001908152602001600020600101546121af90919063ffffffff16565b9050611fe881600360003373ffffffffffffffffffffffffffffffffffffffff1673ffffffffffffffffffffffffffffffffffffffff1681526020019081526020016000205461223590919063ffffffff16565b600360003373ffffffffffffffffffffffffffffffffffffffff1673ffffffffffffffffffffffffffffffffffffffff168152602001908152602001600020819055508773ffffffffffffffffffffffffffffffffffffffff166108fc829081150290604051600060405180830381858888f19350505050158015612071573d6000803e3d6000fd5b507f49b838b1f120c3d2fb431047a22c4c3f41cbebfeec469a48c6d0f94db4b831b5600260003373ffffffffffffffffffffffffffffffffffffffff1673ffffffffffffffffffffffffffffffffffffffff16815260200190815260200160002054600360003373ffffffffffffffffffffffffffffffffffffffff1673ffffffffffffffffffffffffffffffffffffffff16815260200190815260200160002054604051808381526020018281526020019250505060405180910390a150505050505050505050565b600160008083815260200190815260200160002060000160009054906101000a900460ff16600481111561216b57fe5b01600481111561217757fe5b60008083815260200190815260200160002060000160006101000a81548160ff021916908360048111156121a757fe5b021790555050565b6000808314156121c2576000905061222f565b60008284029050828482816121d357fe5b041461222a576040517f08c379a00000000000000000000000000000000000000000000000000000000081526004018080602001828103825260218152602001806128d36021913960400191505060405180910390fd5b809150505b92915050565b600061227783836040518060400160405280601e81526020017f536166654d6174683a207375627472616374696f6e206f766572666c6f770000815250612686565b905092915050565b60006122c183836040518060400160405280601a81526020017f536166654d6174683a206469766973696f6e206279207a65726f000000000000815250612746565b905092915050565b61231b81600260008573ffffffffffffffffffffffffffffffffffffffff1673ffffffffffffffffffffffffffffffffffffffff1681526020019081526020016000205461223590919063ffffffff16565b600260008473ffffffffffffffffffffffffffffffffffffffff1673ffffffffffffffffffffffffffffffffffffffff168152602001908152602001600020819055505050565b61238b8160076000858152602001908152602001600020600001546123a990919063ffffffff16565b60076000848152602001908152602001600020600001819055505050565b600080828401905083811015612427576040517f08c379a000000000000000000000000000000000000000000000000000000000815260040180806020018281038252601b8152602001807f536166654d6174683a206164646974696f6e206f766572666c6f77000000000081525060200191505060405180910390fd5b8091505092915050565b6060600582600481111561244157fe5b11156124b5576040517f08c379a000000000000000000000000000000000000000000000000000000000815260040180806020018281038252600e8152602001807f494e56414c49443a736561736f6e00000000000000000000000000000000000081525060200191505060405180910390fd5b8160048111156124c157fe5b600060048111156124ce57fe5b1415612511576040518060400160405280600781526020017f446f726d616e74000000000000000000000000000000000000000000000000008152509050612681565b81600481111561251d57fe5b6001600481111561252a57fe5b141561256d576040518060400160405280600b81526020017f5072657061726174696f6e0000000000000000000000000000000000000000008152509050612681565b81600481111561257957fe5b6002600481111561258657fe5b14156125c9576040518060400160405280600881526020017f506c616e74696e670000000000000000000000000000000000000000000000008152509050612681565b8160048111156125d557fe5b600360048111156125e257fe5b1415612625576040518060400160405280600a81526020017f48617276657374696e67000000000000000000000000000000000000000000008152509050612681565b81600481111561263157fe5b60048081111561263d57fe5b1415612680576040518060400160405280600781526020017f426f6f6b696e67000000000000000000000000000000000000000000000000008152509050612681565b5b919050565b6000838311158290612733576040517f08c379a00000000000000000000000000000000000000000000000000000000081526004018080602001828103825283818151815260200191508051906020019080838360005b838110156126f85780820151818401526020810190506126dd565b50505050905090810190601f1680156127255780820380516001836020036101000a031916815260200191505b509250505060405180910390fd5b5060008385039050809150509392505050565b600080831182906127f2576040517f08c379a00000000000000000000000000000000000000000000000000000000081526004018080602001828103825283818151815260200191508051906020019080838360005b838110156127b757808201518184015260208101905061279c565b50505050905090810190601f1680156127e45780820380516001836020036101000a031916815260200191505b509250505060405180910390fd5b5060008385816127fe57fe5b049050809150509392505050565b60405180606001604052806060815260200160608152602001606081525090565b828054600181600116156101000203166002900490600052602060002090601f016020900481019282601f1061286e57805160ff191683800117855561289c565b8280016001018555821561289c579182015b8281111561289b578251825591602001919060010190612880565b5b5090506128a991906128ad565b5090565b6128cf91905b808211156128cb5760008160009055506001016128b3565b5090565b9056fe536166654d6174683a206d756c7469706c69636174696f6e206f766572666c6f77a2646970667358221220194be2a45db62231d71bb52e80b2079a9cb9eda0be1f4b3520aa8691051d2bf664736f6c63430006080033",
  "immutableReferences": {},
  "source": "// SPDX-License-Identifier: MIT\n\npragma solidity >=0.4.22 <0.7.0;\n\nimport '@openzeppelin/contracts/math/SafeMath.sol';\nimport '../Season/FarmSeason.sol';\nimport '../Booking/Book.sol';\n\ncontract Farm is FarmSeason, Book {\n\n  using SafeMath for uint256;\n\n  // Booking cancellation penalty\n  uint256 private _percent = 3;\n\n  // Map tokenized farm to preparations data\n  mapping(uint256 => LandPreparations) private preparations;\n\n  // Map tokenized farm to planting data\n  mapping(uint256 => PlantingType) private plantings;\n\n  // Map harvest to farm\n  mapping(uint256 => HarvestType) public _harvests;\n  \n  // Modifiers\n  modifier condition(bool _condition, string memory _msg) {\n    require(_condition, _msg);\n    _;\n  }\n  \n  /**\n   * @dev getSeasonKeyByValue This returns season enum value as a string\n   * @param _season Season value\n   */\n  function getSeasonKeyByValue(Season _season) internal pure returns (string memory) {\n    require(uint256(_season) <= 5, \"INVALID:season\");\n\n    // Loop\n    if (Season.Dormant == _season) return \"Dormant\";\n    if (Season.Preparation == _season) return \"Preparation\";\n    if (Season.Planting == _season) return \"Planting\";\n    if (Season.Harvesting == _season) return \"Harvesting\";\n    if (Season.Booking == _season) return \"Booking\";\n  }\n\n  /**\n   * @dev getTokenSeason This returns the token state\n   * @param _tokenId The tokenized farm token id\n   */\n  function getTokenSeason(uint256 _tokenId) public view returns (string memory) {\n    Season _s = tokenSeason[_tokenId].season;\n    return getSeasonKeyByValue(_s);\n  }\n  \n  /**\n   * @dev openSeason This changes the state of the farm-land\n   * from dormant to preparation for planting\n   * @param _tokenId Tokenized farm token id\n   */\n  function openSeason(uint256 _tokenId)\n    public\n    inSeason(_tokenId, Season.Dormant)\n    transitionSeason(_tokenId)\n  {\n    numberOfSeason[_tokenId]++;\n    emit SeasonOpening(\n      numberOfSeason[_tokenId]\n    );\n  }\n\n  /**\n   * @dev finishPreparations This takes account what the\n   * farmer has achieved preparing for planting season\n   * @param _tokenId _crop, _fertilizer Farmer should answer this params\n   */\n  function finishPreparations(uint256 _tokenId, string memory _crop, string memory _fertilizer)\n    public\n    inSeason(_tokenId, Season.Preparation)\n    transitionSeason(_tokenId)\n  {\n    preparations[_tokenId].crop = _crop;\n    preparations[_tokenId].fertilizer = _fertilizer;\n    emit Preparations(_tokenId, preparations[_tokenId].crop, preparations[_tokenId].fertilizer);\n  }\n\n  /**\n   * @dev finishPlanting This takes account what the farmer\n   * achieved during planting season and crop growth\n   * @param _tokenId, _seedUsed, _expectedYield, _maturityDays,\n   * _idealClimate, _seedSupplier \n   */\n  function finishPlanting(\n    uint256 _tokenId,\n    string memory _seedUsed,\n    string memory _expectedYield,\n    string memory _seedSupplier\n  )\n    public\n    inSeason(_tokenId, Season.Planting)\n    transitionSeason(_tokenId)\n  {\n    PlantingType memory p;\n    p = PlantingType(_seedUsed, _expectedYield, _seedSupplier);\n    plantings[_tokenId] = p;\n    emit Planting(_tokenId, p.seedUsed, p.expectedYield, p.seedSupplier);\n  }\n\n  /**\n   * @dev createHarvest This allow farmer to broadcast harvest\n   * @param _supply, _price, _tokenId Supply ejected from the farm\n   */\n  function createHarvest(\n    uint256 _supply,\n    uint256 _price,\n    uint256 _tokenId\n  )\n    public\n    inSeason(_tokenId, Season.Harvesting)\n    transitionSeason(_tokenId)\n  {\n    _harvests[_tokenId] = HarvestType(_supply, _price);\n    emit Harvesting(\n      _harvests[_tokenId].supply,\n      _harvests[_tokenId].price,\n      _tokenId\n    );\n  }\n\n  /**\n   * @dev bookHarvest This allows booking of farm harvests\n   * @param _tokenId, _volume Amount to book\n   */\n  function bookHarvest(\n    uint256 _tokenId,\n    uint256 _volume\n  )\n    public\n    condition(_volume != 0, \"INVALID:0 amount\")\n    condition(_volume <= _harvests[_tokenId].supply, \"RESTRICTED:amount not possible\")\n    condition(msg.value == _harvests[_tokenId].price.mul(_volume), \"INSUFFICIENT:booking fees\")\n    payable\n    inSeason(_tokenId, Season.Booking)\n    override\n  {\n    _bookers[msg.sender] = _bookers[msg.sender].add(_volume);\n    _harvests[_tokenId].supply = _harvests[_tokenId].supply.sub(_volume);\n    _deposits[msg.sender] = msg.value;\n    emit Booking(_bookers[msg.sender], _harvests[_tokenId].supply, _tokenId, msg.sender, _deposits[msg.sender]);\n\n  }\n\n  /**\n   * @dev confirmReceived This confirms bookings received\n   * @param _tokenId, _volume, _payee Volume to confirm\n   * received and payee(owner of tokenized farm) to receive\n   * payments\n   */\n  function confirmReceived(\n    uint256 _tokenId,\n    uint256 _volume,\n    address payable _payee\n  )\n    public\n    condition(_volume != 0, \"INVALID:booking volume\")\n    condition(_volume <= _bookers[msg.sender], \"INVALID:bookings\")\n    inSeason(_tokenId, Season.Booking)\n    override\n  {\n    // Burn booker volumes\n    _bookers[msg.sender] = _bookers[msg.sender].sub(_volume);\n    // Calculate owes to farmer\n    uint256 farmOwes = _harvests[_tokenId].price.mul(_volume);\n    // Burn booker deposit\n    _deposits[msg.sender] = _deposits[msg.sender].sub(farmOwes);\n    // Transfer owes to farmer\n    _payee.transfer(farmOwes);\n\n    emit Received(_bookers[msg.sender], _deposits[msg.sender]);\n  }\n\n  function updateSupply(uint256 _tokenId, uint256 _volume) internal {\n    _harvests[_tokenId].supply = _harvests[_tokenId].supply.add(_volume);\n  }\n\n  function updateBookings(address payable _booker, uint256 _volume) internal {\n    _bookers[_booker] = _bookers[_booker].sub(_volume);\n  }\n\n  /**\n   * @dev cancelBook This allows booker to cancel bookings\n   * @param _tokenId, _booker, _payee(farmer), _volume Amount to revert to supply\n   */\n  function cancelBook(\n    uint256 _tokenId,\n    address payable _booker,\n    address payable _payee,\n    uint256 _volume\n  )\n    public\n    condition(_volume != 0, \"INVALID:volume\")\n    condition(_volume <= _bookers[_booker], \"RESTRICTED:unreasonable volume\")\n    inSeason(_tokenId, Season.Booking)\n    override\n  {\n    // Assumed refund(to penalize)\n    uint256 _bookerRefund = _harvests[_tokenId].price.mul(_volume);\n    // New booker deposit\n    uint256 _bookerDeposit = _deposits[_booker].sub(_bookerRefund);\n    _deposits[_booker] = _bookerDeposit;\n    // Apply 3% penalty(amount to refund booker)\n    uint256 _refund = _bookerRefund.sub(((uint256(3).div(uint256(100))).mul(_bookerRefund)));\n        // Update bookings\n    updateBookings(_booker, _volume);\n    // Update harvest\n    updateSupply(_tokenId, _volume);\n    // Refund\n    emit CancelBook(\n      _harvests[_tokenId].supply,\n      _booker,\n      _bookerDeposit\n    );\n    _booker.transfer(_refund);\n    uint256 _reward = _bookerRefund.sub(_refund);\n    _payee.transfer(_reward);\n  }\n}\n",
  "sourcePath": "/home/lomolo/Projects/taxa/contracts/Farm/Farm.sol",
  "compiler": {
    "name": "solc",
    "version": "0.6.8+commit.0bbfe453.Emscripten.clang"
  },
  "schemaVersion": "3.2.0",
  "updatedAt": "2020-08-05T11:32:55.766Z",
  "networkType": "ethereum",
  "devdoc": {
    "methods": {
      "bookHarvest(uint256,uint256)": {
        "details": "bookHarvest This allows booking of farm harvests",
        "params": {
          "_tokenId": ", _volume Amount to book"
        }
      },
      "cancelBook(uint256,address,address,uint256)": {
        "details": "cancelBook This allows booker to cancel bookings",
        "params": {
          "_tokenId": ", _booker, _payee(farmer), _volume Amount to revert to supply"
        }
      },
      "confirmReceived(uint256,uint256,address)": {
        "details": "confirmReceived This confirms bookings received",
        "params": {
          "_tokenId": ", _volume, _payee Volume to confirm received and payee(owner of tokenized farm) to receive payments"
        }
      },
      "createHarvest(uint256,uint256,uint256)": {
        "details": "createHarvest This allow farmer to broadcast harvest",
        "params": {
          "_supply": ", _price, _tokenId Supply ejected from the farm"
        }
      },
      "finishPlanting(uint256,string,string,string)": {
        "details": "finishPlanting This takes account what the farmer achieved during planting season and crop growth",
        "params": {
          "_tokenId": ", _seedUsed, _expectedYield, _maturityDays, _idealClimate, _seedSupplier "
        }
      },
      "finishPreparations(uint256,string,string)": {
        "details": "finishPreparations This takes account what the farmer has achieved preparing for planting season",
        "params": {
          "_tokenId": "_crop, _fertilizer Farmer should answer this params"
        }
      },
      "getTokenSeason(uint256)": {
        "details": "getTokenSeason This returns the token state",
        "params": {
          "_tokenId": "The tokenized farm token id"
        }
      },
      "openSeason(uint256)": {
        "details": "openSeason This changes the state of the farm-land from dormant to preparation for planting",
        "params": {
          "_tokenId": "Tokenized farm token id"
        }
      }
    }
  },
  "userdoc": {
    "methods": {}
  }
}