{
  "contractName": "Farm",
  "abi": [
    {
      "anonymous": false,
      "inputs": [
        {
          "indexed": false,
          "internalType": "uint256",
          "name": "_volume",
          "type": "uint256"
        },
        {
          "indexed": false,
          "internalType": "uint256",
          "name": "_supply",
          "type": "uint256"
        },
        {
          "indexed": false,
          "internalType": "uint256",
          "name": "_tokenId",
          "type": "uint256"
        },
        {
          "indexed": false,
          "internalType": "address",
          "name": "_booker",
          "type": "address"
        },
        {
          "indexed": false,
          "internalType": "uint256",
          "name": "_deposit",
          "type": "uint256"
        }
      ],
      "name": "Booking",
      "type": "event"
    },
    {
      "anonymous": false,
      "inputs": [
        {
          "indexed": false,
          "internalType": "uint256",
          "name": "_supply",
          "type": "uint256"
        },
        {
          "indexed": false,
          "internalType": "address",
          "name": "_booker",
          "type": "address"
        },
        {
          "indexed": false,
          "internalType": "uint256",
          "name": "_deposit",
          "type": "uint256"
        }
      ],
      "name": "CancelBook",
      "type": "event"
    },
    {
      "anonymous": false,
      "inputs": [
        {
          "indexed": false,
          "internalType": "uint256",
          "name": "_supply",
          "type": "uint256"
        },
        {
          "indexed": false,
          "internalType": "uint256",
          "name": "_price",
          "type": "uint256"
        },
        {
          "indexed": false,
          "internalType": "uint256",
          "name": "_tokenId",
          "type": "uint256"
        }
      ],
      "name": "Harvesting",
      "type": "event"
    },
    {
      "anonymous": false,
      "inputs": [
        {
          "indexed": false,
          "internalType": "uint256",
          "name": "_tokenId",
          "type": "uint256"
        },
        {
          "indexed": false,
          "internalType": "string",
          "name": "_seedUsed",
          "type": "string"
        },
        {
          "indexed": false,
          "internalType": "string",
          "name": "_expectedYield",
          "type": "string"
        },
        {
          "indexed": false,
          "internalType": "string",
          "name": "_seedSupplier",
          "type": "string"
        }
      ],
      "name": "Planting",
      "type": "event"
    },
    {
      "anonymous": false,
      "inputs": [
        {
          "indexed": false,
          "internalType": "uint256",
          "name": "_tokenId",
          "type": "uint256"
        },
        {
          "indexed": false,
          "internalType": "string",
          "name": "_crop",
          "type": "string"
        },
        {
          "indexed": false,
          "internalType": "string",
          "name": "_fertilizer",
          "type": "string"
        }
      ],
      "name": "Preparations",
      "type": "event"
    },
    {
      "anonymous": false,
      "inputs": [
        {
          "indexed": false,
          "internalType": "uint256",
          "name": "_volume",
          "type": "uint256"
        },
        {
          "indexed": false,
          "internalType": "uint256",
          "name": "_deposit",
          "type": "uint256"
        }
      ],
      "name": "Received",
      "type": "event"
    },
    {
      "inputs": [
        {
          "internalType": "address",
          "name": "",
          "type": "address"
        }
      ],
      "name": "_bookers",
      "outputs": [
        {
          "internalType": "uint256",
          "name": "",
          "type": "uint256"
        }
      ],
      "stateMutability": "view",
      "type": "function",
      "constant": true
    },
    {
      "inputs": [
        {
          "internalType": "address",
          "name": "",
          "type": "address"
        }
      ],
      "name": "_deposits",
      "outputs": [
        {
          "internalType": "uint256",
          "name": "",
          "type": "uint256"
        }
      ],
      "stateMutability": "view",
      "type": "function",
      "constant": true
    },
    {
      "inputs": [
        {
          "internalType": "uint256",
          "name": "",
          "type": "uint256"
        }
      ],
      "name": "_harvests",
      "outputs": [
        {
          "internalType": "uint256",
          "name": "supply",
          "type": "uint256"
        },
        {
          "internalType": "uint256",
          "name": "price",
          "type": "uint256"
        }
      ],
      "stateMutability": "view",
      "type": "function",
      "constant": true
    },
    {
      "inputs": [
        {
          "internalType": "uint256",
          "name": "",
          "type": "uint256"
        }
      ],
      "name": "tokenSeason",
      "outputs": [
        {
          "internalType": "enum FarmSeason.Season",
          "name": "season",
          "type": "uint8"
        }
      ],
      "stateMutability": "view",
      "type": "function",
      "constant": true
    },
    {
      "inputs": [
        {
          "internalType": "uint256",
          "name": "_tokenId",
          "type": "uint256"
        }
      ],
      "name": "getTokenSeason",
      "outputs": [
        {
          "internalType": "string",
          "name": "",
          "type": "string"
        }
      ],
      "stateMutability": "view",
      "type": "function",
      "constant": true
    },
    {
      "inputs": [
        {
          "internalType": "uint256",
          "name": "_tokenId",
          "type": "uint256"
        }
      ],
      "name": "openSeason",
      "outputs": [],
      "stateMutability": "nonpayable",
      "type": "function"
    },
    {
      "inputs": [
        {
          "internalType": "uint256",
          "name": "_tokenId",
          "type": "uint256"
        },
        {
          "internalType": "string",
          "name": "_crop",
          "type": "string"
        },
        {
          "internalType": "string",
          "name": "_fertilizer",
          "type": "string"
        }
      ],
      "name": "finishPreparations",
      "outputs": [],
      "stateMutability": "nonpayable",
      "type": "function"
    },
    {
      "inputs": [
        {
          "internalType": "uint256",
          "name": "_tokenId",
          "type": "uint256"
        },
        {
          "internalType": "string",
          "name": "_seedUsed",
          "type": "string"
        },
        {
          "internalType": "string",
          "name": "_expectedYield",
          "type": "string"
        },
        {
          "internalType": "string",
          "name": "_seedSupplier",
          "type": "string"
        }
      ],
      "name": "finishPlanting",
      "outputs": [],
      "stateMutability": "nonpayable",
      "type": "function"
    },
    {
      "inputs": [
        {
          "internalType": "uint256",
          "name": "_supply",
          "type": "uint256"
        },
        {
          "internalType": "uint256",
          "name": "_price",
          "type": "uint256"
        },
        {
          "internalType": "uint256",
          "name": "_tokenId",
          "type": "uint256"
        }
      ],
      "name": "createHarvest",
      "outputs": [],
      "stateMutability": "nonpayable",
      "type": "function"
    },
    {
      "inputs": [
        {
          "internalType": "uint256",
          "name": "_tokenId",
          "type": "uint256"
        },
        {
          "internalType": "uint256",
          "name": "_volume",
          "type": "uint256"
        }
      ],
      "name": "bookHarvest",
      "outputs": [],
      "stateMutability": "payable",
      "type": "function",
      "payable": true
    },
    {
      "inputs": [
        {
          "internalType": "uint256",
          "name": "_tokenId",
          "type": "uint256"
        },
        {
          "internalType": "uint256",
          "name": "_volume",
          "type": "uint256"
        },
        {
          "internalType": "address payable",
          "name": "_payee",
          "type": "address"
        }
      ],
      "name": "confirmReceived",
      "outputs": [],
      "stateMutability": "nonpayable",
      "type": "function"
    },
    {
      "inputs": [
        {
          "internalType": "uint256",
          "name": "_tokenId",
          "type": "uint256"
        },
        {
          "internalType": "address payable",
          "name": "_booker",
          "type": "address"
        },
        {
          "internalType": "address payable",
          "name": "_payee",
          "type": "address"
        },
        {
          "internalType": "uint256",
          "name": "_volume",
          "type": "uint256"
        }
      ],
      "name": "cancelBook",
      "outputs": [],
      "stateMutability": "nonpayable",
      "type": "function"
    }
  ],
  "bytecode": "0x60806040526003805534801561001457600080fd5b5061283a806100246000396000f3fe6080604052600436106100a75760003560e01c80637de95cba116100645780637de95cba146105ab5780639d2d6658146105e65780639dbfab501461064b578063ae6f856f14610683578063b12d441514610737578063e293c5201461078d576100a7565b806319ce9d84146100ac5780631ccd03ac146102ac57806342aa997614610309578063518941211461035857806353922db3146103bd5780637867d61714610526575b600080fd5b3480156100b857600080fd5b506102aa600480360360808110156100cf57600080fd5b8101908080359060200190929190803590602001906401000000008111156100f657600080fd5b82018360208201111561010857600080fd5b8035906020019184600183028401116401000000008311171561012a57600080fd5b91908080601f016020809104026020016040519081016040528093929190818152602001838380828437600081840152601f19601f8201169050808301925050505050505091929192908035906020019064010000000081111561018d57600080fd5b82018360208201111561019f57600080fd5b803590602001918460018302840111640100000000831117156101c157600080fd5b91908080601f016020809104026020016040519081016040528093929190818152602001838380828437600081840152601f19601f8201169050808301925050505050505091929192908035906020019064010000000081111561022457600080fd5b82018360208201111561023657600080fd5b8035906020019184600183028401116401000000008311171561025857600080fd5b91908080601f016020809104026020016040519081016040528093929190818152602001838380828437600081840152601f19601f8201169050808301925050505050505091929192905050506107f2565b005b3480156102b857600080fd5b506102e5600480360360208110156102cf57600080fd5b8101908080359060200190929190505050610ad3565b604051808260048111156102f557fe5b60ff16815260200191505060405180910390f35b34801561031557600080fd5b506103566004803603606081101561032c57600080fd5b81019080803590602001909291908035906020019092919080359060200190929190505050610afe565b005b34801561036457600080fd5b506103a76004803603602081101561037b57600080fd5b81019080803573ffffffffffffffffffffffffffffffffffffffff169060200190929190505050610c72565b6040518082815260200191505060405180910390f35b3480156103c957600080fd5b50610524600480360360608110156103e057600080fd5b81019080803590602001909291908035906020019064010000000081111561040757600080fd5b82018360208201111561041957600080fd5b8035906020019184600183028401116401000000008311171561043b57600080fd5b91908080601f016020809104026020016040519081016040528093929190818152602001838380828437600081840152601f19601f8201169050808301925050505050505091929192908035906020019064010000000081111561049e57600080fd5b8201836020820111156104b057600080fd5b803590602001918460018302840111640100000000831117156104d257600080fd5b91908080601f016020809104026020016040519081016040528093929190818152602001838380828437600081840152601f19601f820116905080830192505050505050509192919290505050610c8a565b005b34801561053257600080fd5b506105a96004803603608081101561054957600080fd5b8101908080359060200190929190803573ffffffffffffffffffffffffffffffffffffffff169060200190929190803573ffffffffffffffffffffffffffffffffffffffff16906020019092919080359060200190929190505050610f17565b005b3480156105b757600080fd5b506105e4600480360360208110156105ce57600080fd5b8101908080359060200190929190505050611423565b005b3480156105f257600080fd5b506106356004803603602081101561060957600080fd5b81019080803573ffffffffffffffffffffffffffffffffffffffff1690602001909291905050506114e3565b6040518082815260200191505060405180910390f35b6106816004803603604081101561066157600080fd5b8101908080359060200190929190803590602001909291905050506114fb565b005b34801561068f57600080fd5b506106bc600480360360208110156106a657600080fd5b8101908080359060200190929190505050611ad1565b6040518080602001828103825283818151815260200191508051906020019080838360005b838110156106fc5780820151818401526020810190506106e1565b50505050905090810190601f1680156107295780820380516001836020036101000a031916815260200191505b509250505060405180910390f35b34801561074357600080fd5b506107706004803603602081101561075a57600080fd5b8101908080359060200190929190505050611b0b565b604051808381526020018281526020019250505060405180910390f35b34801561079957600080fd5b506107f0600480360360608110156107b057600080fd5b810190808035906020019092919080359060200190929190803573ffffffffffffffffffffffffffffffffffffffff169060200190929190505050611b2f565b005b83600260008083815260200190815260200160002060000160009054906101000a900460ff16600481111561082357fe5b81600481111561082f57fe5b146108a2576040517f08c379a00000000000000000000000000000000000000000000000000000000081526004018080602001828103825260198152602001807f494e56414c49443a736561736f6e20746f20646f20746869730000000000000081525060200191505060405180910390fd5b856108ab61271d565b604051806060016040528088815260200187815260200186815250905080600560008a815260200190815260200160002060008201518160000190805190602001906108f892919061273e565b50602082015181600101908051906020019061091592919061273e565b50604082015181600201908051906020019061093292919061273e565b509050507f3207b5edf1c09e0dcef7a279f4c4b64507dbd0a275ba40da4ac23f6d2ca497238882600001518360200151846040015160405180858152602001806020018060200180602001848103845287818151815260200191508051906020019080838360005b838110156109b557808201518184015260208101905061099a565b50505050905090810190601f1680156109e25780820380516001836020036101000a031916815260200191505b50848103835286818151815260200191508051906020019080838360005b83811015610a1b578082015181840152602081019050610a00565b50505050905090810190601f168015610a485780820380516001836020036101000a031916815260200191505b50848103825285818151815260200191508051906020019080838360005b83811015610a81578082015181840152602081019050610a66565b50505050905090810190601f168015610aae5780820380516001836020036101000a031916815260200191505b5097505050505050505060405180910390a150610aca8161204c565b50505050505050565b60006020528060005260406000206000915090508060000160009054906101000a900460ff16905081565b80600360008083815260200190815260200160002060000160009054906101000a900460ff166004811115610b2f57fe5b816004811115610b3b57fe5b14610bae576040517f08c379a00000000000000000000000000000000000000000000000000000000081526004018080602001828103825260198152602001807f494e56414c49443a736561736f6e20746f20646f20746869730000000000000081525060200191505060405180910390fd5b826040518060400160405280878152602001868152506006600086815260200190815260200160002060008201518160000155602082015181600101559050507ff6f55127c68320d5fbdf73f929273816eaab418c37152ad1d528120fe5044de0600660008681526020019081526020016000206000015460066000878152602001908152602001600020600101548660405180848152602001838152602001828152602001935050505060405180910390a1610c6a8161204c565b505050505050565b60016020528060005260406000206000915090505481565b82600160008083815260200190815260200160002060000160009054906101000a900460ff166004811115610cbb57fe5b816004811115610cc757fe5b14610d3a576040517f08c379a00000000000000000000000000000000000000000000000000000000081526004018080602001828103825260198152602001807f494e56414c49443a736561736f6e20746f20646f20746869730000000000000081525060200191505060405180910390fd5b8484600460008881526020019081526020016000206000019080519060200190610d6592919061273e565b5083600460008881526020019081526020016000206001019080519060200190610d9092919061273e565b507f81a56e105ab573b5d45aa0dd01d52d346d7e36e3ccb8bc314c465b5ac4321d6b8660046000898152602001908152602001600020600001600460008a8152602001908152602001600020600101604051808481526020018060200180602001838103835285818154600181600116156101000203166002900481526020019150805460018160011615610100020316600290048015610e725780601f10610e4757610100808354040283529160200191610e72565b820191906000526020600020905b815481529060010190602001808311610e5557829003601f168201915b5050838103825284818154600181600116156101000203166002900481526020019150805460018160011615610100020316600290048015610ef55780601f10610eca57610100808354040283529160200191610ef5565b820191906000526020600020905b815481529060010190602001808311610ed857829003601f168201915b50509550505050505060405180910390a1610f0f8161204c565b505050505050565b60008114156040518060400160405280600e81526020017f494e56414c49443a766f6c756d65000000000000000000000000000000000000815250818190610ffa576040517f08c379a00000000000000000000000000000000000000000000000000000000081526004018080602001828103825283818151815260200191508051906020019080838360005b83811015610fbf578082015181840152602081019050610fa4565b50505050905090810190601f168015610fec5780820380516001836020036101000a031916815260200191505b509250505060405180910390fd5b50600160008673ffffffffffffffffffffffffffffffffffffffff1673ffffffffffffffffffffffffffffffffffffffff168152602001908152602001600020548311156040518060400160405280601e81526020017f524553545249435445443a756e726561736f6e61626c6520766f6c756d65000081525081819061111c576040517f08c379a00000000000000000000000000000000000000000000000000000000081526004018080602001828103825283818151815260200191508051906020019080838360005b838110156110e15780820151818401526020810190506110c6565b50505050905090810190601f16801561110e5780820380516001836020036101000a031916815260200191505b509250505060405180910390fd5b5087600460008083815260200190815260200160002060000160009054906101000a900460ff16600481111561114e57fe5b81600481111561115a57fe5b146111cd576040517f08c379a00000000000000000000000000000000000000000000000000000000081526004018080602001828103825260198152602001807f494e56414c49443a736561736f6e20746f20646f20746869730000000000000081525060200191505060405180910390fd5b60006111f888600660008e8152602001908152602001600020600101546120c090919063ffffffff16565b9050600061124e82600260008e73ffffffffffffffffffffffffffffffffffffffff1673ffffffffffffffffffffffffffffffffffffffff1681526020019081526020016000205461214690919063ffffffff16565b905080600260008d73ffffffffffffffffffffffffffffffffffffffff1673ffffffffffffffffffffffffffffffffffffffff1681526020019081526020016000208190555060006112cf6112c0846112b26064600361219090919063ffffffff16565b6120c090919063ffffffff16565b8461214690919063ffffffff16565b90506112db8c8b6121da565b6112e58d8b612273565b7f0d9bf9f54ce76ff39ec339878540f6dfc7af7005ae5931999d711d86a6306e52600660008f8152602001908152602001600020600001548d84604051808481526020018373ffffffffffffffffffffffffffffffffffffffff1673ffffffffffffffffffffffffffffffffffffffff168152602001828152602001935050505060405180910390a18b73ffffffffffffffffffffffffffffffffffffffff166108fc829081150290604051600060405180830381858888f193505050501580156113b4573d6000803e3d6000fd5b5060006113ca828561214690919063ffffffff16565b90508b73ffffffffffffffffffffffffffffffffffffffff166108fc829081150290604051600060405180830381858888f19350505050158015611412573d6000803e3d6000fd5b505050505050505050505050505050565b80600080600083815260200190815260200160002060000160009054906101000a900460ff16600481111561145457fe5b81600481111561146057fe5b146114d3576040517f08c379a00000000000000000000000000000000000000000000000000000000081526004018080602001828103825260198152602001807f494e56414c49443a736561736f6e20746f20646f20746869730000000000000081525060200191505060405180910390fd5b826114dd8161204c565b50505050565b60026020528060005260406000206000915090505481565b60008114156040518060400160405280601081526020017f494e56414c49443a3020616d6f756e74000000000000000000000000000000008152508181906115de576040517f08c379a00000000000000000000000000000000000000000000000000000000081526004018080602001828103825283818151815260200191508051906020019080838360005b838110156115a3578082015181840152602081019050611588565b50505050905090810190601f1680156115d05780820380516001836020036101000a031916815260200191505b509250505060405180910390fd5b5060066000858152602001908152602001600020600001548311156040518060400160405280601e81526020017f524553545249435445443a616d6f756e74206e6f7420706f737369626c6500008152508181906116d7576040517f08c379a00000000000000000000000000000000000000000000000000000000081526004018080602001828103825283818151815260200191508051906020019080838360005b8381101561169c578082015181840152602081019050611681565b50505050905090810190601f1680156116c95780820380516001836020036101000a031916815260200191505b509250505060405180910390fd5b506117018560066000898152602001908152602001600020600101546120c090919063ffffffff16565b34146040518060400160405280601981526020017f494e53554646494349454e543a626f6f6b696e672066656573000000000000008152508181906117e1576040517f08c379a00000000000000000000000000000000000000000000000000000000081526004018080602001828103825283818151815260200191508051906020019080838360005b838110156117a657808201518184015260208101905061178b565b50505050905090810190601f1680156117d35780820380516001836020036101000a031916815260200191505b509250505060405180910390fd5b5087600460008083815260200190815260200160002060000160009054906101000a900460ff16600481111561181357fe5b81600481111561181f57fe5b14611892576040517f08c379a00000000000000000000000000000000000000000000000000000000081526004018080602001828103825260198152602001807f494e56414c49443a736561736f6e20746f20646f20746869730000000000000081525060200191505060405180910390fd5b6118e489600160003373ffffffffffffffffffffffffffffffffffffffff1673ffffffffffffffffffffffffffffffffffffffff168152602001908152602001600020546122ba90919063ffffffff16565b600160003373ffffffffffffffffffffffffffffffffffffffff1673ffffffffffffffffffffffffffffffffffffffff1681526020019081526020016000208190555061195089600660008d81526020019081526020016000206000015461214690919063ffffffff16565b600660008c81526020019081526020016000206000018190555034600260003373ffffffffffffffffffffffffffffffffffffffff1673ffffffffffffffffffffffffffffffffffffffff168152602001908152602001600020819055507f6e687be3dae1aebf21a41af507fa3ca1f6ba0fe20bbeb512c1d1de932dfa06f0600160003373ffffffffffffffffffffffffffffffffffffffff1673ffffffffffffffffffffffffffffffffffffffff16815260200190815260200160002054600660008d8152602001908152602001600020600001548c33600260003373ffffffffffffffffffffffffffffffffffffffff1673ffffffffffffffffffffffffffffffffffffffff16815260200190815260200160002054604051808681526020018581526020018481526020018373ffffffffffffffffffffffffffffffffffffffff1673ffffffffffffffffffffffffffffffffffffffff1681526020018281526020019550505050505060405180910390a150505050505050505050565b6060600080600084815260200190815260200160002060000160009054906101000a900460ff169050611b0381612342565b915050919050565b60066020528060005260406000206000915090508060000154908060010154905082565b60008214156040518060400160405280601681526020017f494e56414c49443a626f6f6b696e6720766f6c756d6500000000000000000000815250818190611c12576040517f08c379a00000000000000000000000000000000000000000000000000000000081526004018080602001828103825283818151815260200191508051906020019080838360005b83811015611bd7578082015181840152602081019050611bbc565b50505050905090810190601f168015611c045780820380516001836020036101000a031916815260200191505b509250505060405180910390fd5b50600160003373ffffffffffffffffffffffffffffffffffffffff1673ffffffffffffffffffffffffffffffffffffffff168152602001908152602001600020548411156040518060400160405280601081526020017f494e56414c49443a626f6f6b696e677300000000000000000000000000000000815250818190611d34576040517f08c379a00000000000000000000000000000000000000000000000000000000081526004018080602001828103825283818151815260200191508051906020019080838360005b83811015611cf9578082015181840152602081019050611cde565b50505050905090810190601f168015611d265780820380516001836020036101000a031916815260200191505b509250505060405180910390fd5b5086600460008083815260200190815260200160002060000160009054906101000a900460ff166004811115611d6657fe5b816004811115611d7257fe5b14611de5576040517f08c379a00000000000000000000000000000000000000000000000000000000081526004018080602001828103825260198152602001807f494e56414c49443a736561736f6e20746f20646f20746869730000000000000081525060200191505060405180910390fd5b611e3788600160003373ffffffffffffffffffffffffffffffffffffffff1673ffffffffffffffffffffffffffffffffffffffff1681526020019081526020016000205461214690919063ffffffff16565b600160003373ffffffffffffffffffffffffffffffffffffffff1673ffffffffffffffffffffffffffffffffffffffff168152602001908152602001600020819055506000611ea589600660008d8152602001908152602001600020600101546120c090919063ffffffff16565b9050611ef981600260003373ffffffffffffffffffffffffffffffffffffffff1673ffffffffffffffffffffffffffffffffffffffff1681526020019081526020016000205461214690919063ffffffff16565b600260003373ffffffffffffffffffffffffffffffffffffffff1673ffffffffffffffffffffffffffffffffffffffff168152602001908152602001600020819055508773ffffffffffffffffffffffffffffffffffffffff166108fc829081150290604051600060405180830381858888f19350505050158015611f82573d6000803e3d6000fd5b507f49b838b1f120c3d2fb431047a22c4c3f41cbebfeec469a48c6d0f94db4b831b5600160003373ffffffffffffffffffffffffffffffffffffffff1673ffffffffffffffffffffffffffffffffffffffff16815260200190815260200160002054600260003373ffffffffffffffffffffffffffffffffffffffff1673ffffffffffffffffffffffffffffffffffffffff16815260200190815260200160002054604051808381526020018281526020019250505060405180910390a150505050505050505050565b600160008083815260200190815260200160002060000160009054906101000a900460ff16600481111561207c57fe5b01600481111561208857fe5b60008083815260200190815260200160002060000160006101000a81548160ff021916908360048111156120b857fe5b021790555050565b6000808314156120d35760009050612140565b60008284029050828482816120e457fe5b041461213b576040517f08c379a00000000000000000000000000000000000000000000000000000000081526004018080602001828103825260218152602001806127e46021913960400191505060405180910390fd5b809150505b92915050565b600061218883836040518060400160405280601e81526020017f536166654d6174683a207375627472616374696f6e206f766572666c6f770000815250612597565b905092915050565b60006121d283836040518060400160405280601a81526020017f536166654d6174683a206469766973696f6e206279207a65726f000000000000815250612657565b905092915050565b61222c81600160008573ffffffffffffffffffffffffffffffffffffffff1673ffffffffffffffffffffffffffffffffffffffff1681526020019081526020016000205461214690919063ffffffff16565b600160008473ffffffffffffffffffffffffffffffffffffffff1673ffffffffffffffffffffffffffffffffffffffff168152602001908152602001600020819055505050565b61229c8160066000858152602001908152602001600020600001546122ba90919063ffffffff16565b60066000848152602001908152602001600020600001819055505050565b600080828401905083811015612338576040517f08c379a000000000000000000000000000000000000000000000000000000000815260040180806020018281038252601b8152602001807f536166654d6174683a206164646974696f6e206f766572666c6f77000000000081525060200191505060405180910390fd5b8091505092915050565b6060600582600481111561235257fe5b11156123c6576040517f08c379a000000000000000000000000000000000000000000000000000000000815260040180806020018281038252600e8152602001807f494e56414c49443a736561736f6e00000000000000000000000000000000000081525060200191505060405180910390fd5b8160048111156123d257fe5b600060048111156123df57fe5b1415612422576040518060400160405280600781526020017f446f726d616e74000000000000000000000000000000000000000000000000008152509050612592565b81600481111561242e57fe5b6001600481111561243b57fe5b141561247e576040518060400160405280600b81526020017f5072657061726174696f6e0000000000000000000000000000000000000000008152509050612592565b81600481111561248a57fe5b6002600481111561249757fe5b14156124da576040518060400160405280600881526020017f506c616e74696e670000000000000000000000000000000000000000000000008152509050612592565b8160048111156124e657fe5b600360048111156124f357fe5b1415612536576040518060400160405280600a81526020017f48617276657374696e67000000000000000000000000000000000000000000008152509050612592565b81600481111561254257fe5b60048081111561254e57fe5b1415612591576040518060400160405280600781526020017f426f6f6b696e67000000000000000000000000000000000000000000000000008152509050612592565b5b919050565b6000838311158290612644576040517f08c379a00000000000000000000000000000000000000000000000000000000081526004018080602001828103825283818151815260200191508051906020019080838360005b838110156126095780820151818401526020810190506125ee565b50505050905090810190601f1680156126365780820380516001836020036101000a031916815260200191505b509250505060405180910390fd5b5060008385039050809150509392505050565b60008083118290612703576040517f08c379a00000000000000000000000000000000000000000000000000000000081526004018080602001828103825283818151815260200191508051906020019080838360005b838110156126c85780820151818401526020810190506126ad565b50505050905090810190601f1680156126f55780820380516001836020036101000a031916815260200191505b509250505060405180910390fd5b50600083858161270f57fe5b049050809150509392505050565b60405180606001604052806060815260200160608152602001606081525090565b828054600181600116156101000203166002900490600052602060002090601f016020900481019282601f1061277f57805160ff19168380011785556127ad565b828001600101855582156127ad579182015b828111156127ac578251825591602001919060010190612791565b5b5090506127ba91906127be565b5090565b6127e091905b808211156127dc5760008160009055506001016127c4565b5090565b9056fe536166654d6174683a206d756c7469706c69636174696f6e206f766572666c6f77a26469706673582212200787f309820fcc85514d327b0384df36d809321f42e8ab7129b5f5cb3008343864736f6c63430006080033",
  "immutableReferences": {},
  "source": "// SPDX-License-Identifier: MIT\n\npragma solidity >=0.4.22 <0.7.0;\n\nimport '@openzeppelin/contracts/math/SafeMath.sol';\nimport './FarmSeason.sol';\nimport './Book.sol';\n\ncontract Farm is FarmSeason, Book {\n\n  using SafeMath for uint256;\n\n  // Booking cancellation penalty\n  uint256 private _percent = 3;\n\n  // Map tokenized farm to preparations data\n  mapping(uint256 => LandPreparations) private preparations;\n\n  // Map tokenized farm to planting data\n  mapping(uint256 => PlantingType) private plantings;\n\n  // Map harvest to farm\n  mapping(uint256 => HarvestType) public _harvests;\n  \n  // Modifiers\n  modifier condition(bool _condition, string memory _msg) {\n    require(_condition, _msg);\n    _;\n  }\n  \n  /**\n   * @dev getSeasonKeyByValue This returns season enum value as a string\n   * @param _season Season value\n   */\n  function getSeasonKeyByValue(Season _season) internal pure returns (string memory) {\n    require(uint256(_season) <= 5, \"INVALID:season\");\n\n    // Loop\n    if (Season.Dormant == _season) return \"Dormant\";\n    if (Season.Preparation == _season) return \"Preparation\";\n    if (Season.Planting == _season) return \"Planting\";\n    if (Season.Harvesting == _season) return \"Harvesting\";\n    if (Season.Booking == _season) return \"Booking\";\n  }\n\n  /**\n   * @dev getTokenSeason This returns the token state\n   * @param _tokenId The tokenized farm token id\n   */\n  function getTokenSeason(uint256 _tokenId) public view returns (string memory) {\n    Season _s = tokenSeason[_tokenId].season;\n    return getSeasonKeyByValue(_s);\n  }\n  \n  /**\n   * @dev openSeason This changes the state of the farm-land\n   * from dormant to preparation for planting\n   * @param _tokenId Tokenized farm token id\n   */\n  function openSeason(uint256 _tokenId)\n    public\n    inSeason(_tokenId, Season.Dormant)\n    transitionSeason(_tokenId)\n  {}\n\n  /**\n   * @dev finishPreparations This takes account what the\n   * farmer has achieved preparing for planting season\n   * @param _tokenId _crop, _fertilizer Farmer should answer this params\n   */\n  function finishPreparations(uint256 _tokenId, string memory _crop, string memory _fertilizer)\n    public\n    inSeason(_tokenId, Season.Preparation)\n    transitionSeason(_tokenId)\n  {\n    preparations[_tokenId].crop = _crop;\n    preparations[_tokenId].fertilizer = _fertilizer;\n    emit Preparations(_tokenId, preparations[_tokenId].crop, preparations[_tokenId].fertilizer);\n  }\n\n  /**\n   * @dev finishPlanting This takes account what the farmer\n   * achieved during planting season and crop growth\n   * @param _tokenId, _seedUsed, _expectedYield, _maturityDays,\n   * _idealClimate, _seedSupplier \n   */\n  function finishPlanting(\n    uint256 _tokenId,\n    string memory _seedUsed,\n    string memory _expectedYield,\n    string memory _seedSupplier\n  )\n    public\n    inSeason(_tokenId, Season.Planting)\n    transitionSeason(_tokenId)\n  {\n    PlantingType memory p;\n    p = PlantingType(_seedUsed, _expectedYield, _seedSupplier);\n    plantings[_tokenId] = p;\n    emit Planting(_tokenId, p.seedUsed, p.expectedYield, p.seedSupplier);\n  }\n\n  /**\n   * @dev createHarvest This allow farmer to broadcast harvest\n   * @param _supply, _price, _tokenId Supply ejected from the farm\n   */\n  function createHarvest(\n    uint256 _supply,\n    uint256 _price,\n    uint256 _tokenId\n  )\n    public\n    inSeason(_tokenId, Season.Harvesting)\n    transitionSeason(_tokenId)\n  {\n    _harvests[_tokenId] = HarvestType(_supply, _price);\n    emit Harvesting(\n      _harvests[_tokenId].supply,\n      _harvests[_tokenId].price,\n      _tokenId\n    );\n  }\n\n  /**\n   * @dev bookHarvest This allows booking of farm harvests\n   * @param _tokenId, _volume Amount to book\n   */\n  function bookHarvest(\n    uint256 _tokenId,\n    uint256 _volume\n  )\n    public\n    condition(_volume != 0, \"INVALID:0 amount\")\n    condition(_volume <= _harvests[_tokenId].supply, \"RESTRICTED:amount not possible\")\n    condition(msg.value == _harvests[_tokenId].price.mul(_volume), \"INSUFFICIENT:booking fees\")\n    payable\n    inSeason(_tokenId, Season.Booking)\n    override\n  {\n    _bookers[msg.sender] = _bookers[msg.sender].add(_volume);\n    _harvests[_tokenId].supply = _harvests[_tokenId].supply.sub(_volume);\n    _deposits[msg.sender] = msg.value;\n    emit Booking(_bookers[msg.sender], _harvests[_tokenId].supply, _tokenId, msg.sender, _deposits[msg.sender]);\n\n  }\n\n  /**\n   * @dev confirmReceived This confirms bookings received\n   * @param _tokenId, _volume, _payee Volume to confirm\n   * received and payee(owner of tokenized farm) to receive\n   * payments\n   */\n  function confirmReceived(\n    uint256 _tokenId,\n    uint256 _volume,\n    address payable _payee\n  )\n    public\n    condition(_volume != 0, \"INVALID:booking volume\")\n    condition(_volume <= _bookers[msg.sender], \"INVALID:bookings\")\n    inSeason(_tokenId, Season.Booking)\n    override\n  {\n    // Burn booker volumes\n    _bookers[msg.sender] = _bookers[msg.sender].sub(_volume);\n    // Calculate owes to farmer\n    uint256 farmOwes = _harvests[_tokenId].price.mul(_volume);\n    // Burn booker deposit\n    _deposits[msg.sender] = _deposits[msg.sender].sub(farmOwes);\n    // Transfer owes to farmer\n    _payee.transfer(farmOwes);\n\n    emit Received(_bookers[msg.sender], _deposits[msg.sender]);\n  }\n\n  function updateSupply(uint256 _tokenId, uint256 _volume) internal {\n    _harvests[_tokenId].supply = _harvests[_tokenId].supply.add(_volume);\n  }\n\n  function updateBookings(address payable _booker, uint256 _volume) internal {\n    _bookers[_booker] = _bookers[_booker].sub(_volume);\n  }\n\n  /**\n   * @dev cancelBook This allows booker to cancel bookings\n   * @param _tokenId, _booker, _payee(farmer), _volume Amount to revert to supply\n   */\n  function cancelBook(\n    uint256 _tokenId,\n    address payable _booker,\n    address payable _payee,\n    uint256 _volume\n  )\n    public\n    condition(_volume != 0, \"INVALID:volume\")\n    condition(_volume <= _bookers[_booker], \"RESTRICTED:unreasonable volume\")\n    inSeason(_tokenId, Season.Booking)\n    override\n  {\n    // Assumed refund(to penalize)\n    uint256 _bookerRefund = _harvests[_tokenId].price.mul(_volume);\n    // New booker deposit\n    uint256 _bookerDeposit = _deposits[_booker].sub(_bookerRefund);\n    _deposits[_booker] = _bookerDeposit;\n    // Apply 3% penalty(amount to refund booker)\n    uint256 _refund = _bookerRefund.sub(((uint256(3).div(uint256(100))).mul(_bookerRefund)));\n        // Update bookings\n    updateBookings(_booker, _volume);\n    // Update harvest\n    updateSupply(_tokenId, _volume);\n    // Refund\n    emit CancelBook(\n      _harvests[_tokenId].supply,\n      _booker,\n      _bookerDeposit\n    );\n    _booker.transfer(_refund);\n    uint256 _reward = _bookerRefund.sub(_refund);\n    _payee.transfer(_reward);\n  }\n}\n",
  "sourcePath": "/home/lomolo/Projects/octopus/contracts/Farm.sol",
  "compiler": {
    "name": "solc",
    "version": "0.6.8+commit.0bbfe453.Emscripten.clang"
  },
  "schemaVersion": "3.2.0",
  "updatedAt": "2020-07-16T12:58:52.959Z",
  "networkType": "ethereum",
  "devdoc": {
    "methods": {
      "bookHarvest(uint256,uint256)": {
        "details": "bookHarvest This allows booking of farm harvests",
        "params": {
          "_tokenId": ", _volume Amount to book"
        }
      },
      "cancelBook(uint256,address,address,uint256)": {
        "details": "cancelBook This allows booker to cancel bookings",
        "params": {
          "_tokenId": ", _booker, _payee(farmer), _volume Amount to revert to supply"
        }
      },
      "confirmReceived(uint256,uint256,address)": {
        "details": "confirmReceived This confirms bookings received",
        "params": {
          "_tokenId": ", _volume, _payee Volume to confirm received and payee(owner of tokenized farm) to receive payments"
        }
      },
      "createHarvest(uint256,uint256,uint256)": {
        "details": "createHarvest This allow farmer to broadcast harvest",
        "params": {
          "_supply": ", _price, _tokenId Supply ejected from the farm"
        }
      },
      "finishPlanting(uint256,string,string,string)": {
        "details": "finishPlanting This takes account what the farmer achieved during planting season and crop growth",
        "params": {
          "_tokenId": ", _seedUsed, _expectedYield, _maturityDays, _idealClimate, _seedSupplier "
        }
      },
      "finishPreparations(uint256,string,string)": {
        "details": "finishPreparations This takes account what the farmer has achieved preparing for planting season",
        "params": {
          "_tokenId": "_crop, _fertilizer Farmer should answer this params"
        }
      },
      "getTokenSeason(uint256)": {
        "details": "getTokenSeason This returns the token state",
        "params": {
          "_tokenId": "The tokenized farm token id"
        }
      },
      "openSeason(uint256)": {
        "details": "openSeason This changes the state of the farm-land from dormant to preparation for planting",
        "params": {
          "_tokenId": "Tokenized farm token id"
        }
      }
    }
  },
  "userdoc": {
    "methods": {}
  }
}