{
  "contractName": "Registry",
  "abi": [
    {
      "inputs": [],
      "stateMutability": "nonpayable",
      "type": "constructor"
    },
    {
      "anonymous": false,
      "inputs": [
        {
          "indexed": true,
          "internalType": "address",
          "name": "owner",
          "type": "address"
        },
        {
          "indexed": true,
          "internalType": "address",
          "name": "approved",
          "type": "address"
        },
        {
          "indexed": true,
          "internalType": "uint256",
          "name": "tokenId",
          "type": "uint256"
        }
      ],
      "name": "Approval",
      "type": "event"
    },
    {
      "anonymous": false,
      "inputs": [
        {
          "indexed": true,
          "internalType": "address",
          "name": "owner",
          "type": "address"
        },
        {
          "indexed": true,
          "internalType": "address",
          "name": "operator",
          "type": "address"
        },
        {
          "indexed": false,
          "internalType": "bool",
          "name": "approved",
          "type": "bool"
        }
      ],
      "name": "ApprovalForAll",
      "type": "event"
    },
    {
      "anonymous": false,
      "inputs": [
        {
          "indexed": false,
          "internalType": "string",
          "name": "_name",
          "type": "string"
        },
        {
          "indexed": false,
          "internalType": "string",
          "name": "_size",
          "type": "string"
        },
        {
          "indexed": false,
          "internalType": "string",
          "name": "_lon",
          "type": "string"
        },
        {
          "indexed": false,
          "internalType": "string",
          "name": "_lat",
          "type": "string"
        },
        {
          "indexed": false,
          "internalType": "string",
          "name": "_fileHash",
          "type": "string"
        },
        {
          "indexed": false,
          "internalType": "string",
          "name": "_soilType",
          "type": "string"
        },
        {
          "indexed": false,
          "internalType": "uint256",
          "name": "_tokenId",
          "type": "uint256"
        },
        {
          "indexed": false,
          "internalType": "address",
          "name": "_owner",
          "type": "address"
        }
      ],
      "name": "RegisterFarm",
      "type": "event"
    },
    {
      "anonymous": false,
      "inputs": [
        {
          "indexed": true,
          "internalType": "address",
          "name": "from",
          "type": "address"
        },
        {
          "indexed": true,
          "internalType": "address",
          "name": "to",
          "type": "address"
        },
        {
          "indexed": true,
          "internalType": "uint256",
          "name": "tokenId",
          "type": "uint256"
        }
      ],
      "name": "Transfer",
      "type": "event"
    },
    {
      "inputs": [
        {
          "internalType": "address",
          "name": "to",
          "type": "address"
        },
        {
          "internalType": "uint256",
          "name": "tokenId",
          "type": "uint256"
        }
      ],
      "name": "approve",
      "outputs": [],
      "stateMutability": "nonpayable",
      "type": "function"
    },
    {
      "inputs": [
        {
          "internalType": "address",
          "name": "owner",
          "type": "address"
        }
      ],
      "name": "balanceOf",
      "outputs": [
        {
          "internalType": "uint256",
          "name": "",
          "type": "uint256"
        }
      ],
      "stateMutability": "view",
      "type": "function",
      "constant": true
    },
    {
      "inputs": [],
      "name": "baseURI",
      "outputs": [
        {
          "internalType": "string",
          "name": "",
          "type": "string"
        }
      ],
      "stateMutability": "view",
      "type": "function",
      "constant": true
    },
    {
      "inputs": [
        {
          "internalType": "uint256",
          "name": "tokenId",
          "type": "uint256"
        }
      ],
      "name": "getApproved",
      "outputs": [
        {
          "internalType": "address",
          "name": "",
          "type": "address"
        }
      ],
      "stateMutability": "view",
      "type": "function",
      "constant": true
    },
    {
      "inputs": [
        {
          "internalType": "address",
          "name": "owner",
          "type": "address"
        },
        {
          "internalType": "address",
          "name": "operator",
          "type": "address"
        }
      ],
      "name": "isApprovedForAll",
      "outputs": [
        {
          "internalType": "bool",
          "name": "",
          "type": "bool"
        }
      ],
      "stateMutability": "view",
      "type": "function",
      "constant": true
    },
    {
      "inputs": [],
      "name": "name",
      "outputs": [
        {
          "internalType": "string",
          "name": "",
          "type": "string"
        }
      ],
      "stateMutability": "view",
      "type": "function",
      "constant": true
    },
    {
      "inputs": [
        {
          "internalType": "uint256",
          "name": "tokenId",
          "type": "uint256"
        }
      ],
      "name": "ownerOf",
      "outputs": [
        {
          "internalType": "address",
          "name": "",
          "type": "address"
        }
      ],
      "stateMutability": "view",
      "type": "function",
      "constant": true
    },
    {
      "inputs": [
        {
          "internalType": "uint256",
          "name": "",
          "type": "uint256"
        }
      ],
      "name": "registry",
      "outputs": [
        {
          "internalType": "string",
          "name": "name",
          "type": "string"
        },
        {
          "internalType": "string",
          "name": "size",
          "type": "string"
        },
        {
          "internalType": "string",
          "name": "longitude",
          "type": "string"
        },
        {
          "internalType": "string",
          "name": "latitude",
          "type": "string"
        },
        {
          "internalType": "string",
          "name": "fileHash",
          "type": "string"
        },
        {
          "internalType": "string",
          "name": "soilType",
          "type": "string"
        },
        {
          "internalType": "address payable",
          "name": "owner",
          "type": "address"
        }
      ],
      "stateMutability": "view",
      "type": "function",
      "constant": true
    },
    {
      "inputs": [
        {
          "internalType": "address",
          "name": "from",
          "type": "address"
        },
        {
          "internalType": "address",
          "name": "to",
          "type": "address"
        },
        {
          "internalType": "uint256",
          "name": "tokenId",
          "type": "uint256"
        }
      ],
      "name": "safeTransferFrom",
      "outputs": [],
      "stateMutability": "nonpayable",
      "type": "function"
    },
    {
      "inputs": [
        {
          "internalType": "address",
          "name": "from",
          "type": "address"
        },
        {
          "internalType": "address",
          "name": "to",
          "type": "address"
        },
        {
          "internalType": "uint256",
          "name": "tokenId",
          "type": "uint256"
        },
        {
          "internalType": "bytes",
          "name": "_data",
          "type": "bytes"
        }
      ],
      "name": "safeTransferFrom",
      "outputs": [],
      "stateMutability": "nonpayable",
      "type": "function"
    },
    {
      "inputs": [
        {
          "internalType": "address",
          "name": "operator",
          "type": "address"
        },
        {
          "internalType": "bool",
          "name": "approved",
          "type": "bool"
        }
      ],
      "name": "setApprovalForAll",
      "outputs": [],
      "stateMutability": "nonpayable",
      "type": "function"
    },
    {
      "inputs": [
        {
          "internalType": "bytes4",
          "name": "interfaceId",
          "type": "bytes4"
        }
      ],
      "name": "supportsInterface",
      "outputs": [
        {
          "internalType": "bool",
          "name": "",
          "type": "bool"
        }
      ],
      "stateMutability": "view",
      "type": "function",
      "constant": true
    },
    {
      "inputs": [],
      "name": "symbol",
      "outputs": [
        {
          "internalType": "string",
          "name": "",
          "type": "string"
        }
      ],
      "stateMutability": "view",
      "type": "function",
      "constant": true
    },
    {
      "inputs": [
        {
          "internalType": "uint256",
          "name": "index",
          "type": "uint256"
        }
      ],
      "name": "tokenByIndex",
      "outputs": [
        {
          "internalType": "uint256",
          "name": "",
          "type": "uint256"
        }
      ],
      "stateMutability": "view",
      "type": "function",
      "constant": true
    },
    {
      "inputs": [
        {
          "internalType": "address",
          "name": "owner",
          "type": "address"
        },
        {
          "internalType": "uint256",
          "name": "index",
          "type": "uint256"
        }
      ],
      "name": "tokenOfOwnerByIndex",
      "outputs": [
        {
          "internalType": "uint256",
          "name": "",
          "type": "uint256"
        }
      ],
      "stateMutability": "view",
      "type": "function",
      "constant": true
    },
    {
      "inputs": [
        {
          "internalType": "uint256",
          "name": "tokenId",
          "type": "uint256"
        }
      ],
      "name": "tokenURI",
      "outputs": [
        {
          "internalType": "string",
          "name": "",
          "type": "string"
        }
      ],
      "stateMutability": "view",
      "type": "function",
      "constant": true
    },
    {
      "inputs": [],
      "name": "totalSupply",
      "outputs": [
        {
          "internalType": "uint256",
          "name": "",
          "type": "uint256"
        }
      ],
      "stateMutability": "view",
      "type": "function",
      "constant": true
    },
    {
      "inputs": [
        {
          "internalType": "address",
          "name": "from",
          "type": "address"
        },
        {
          "internalType": "address",
          "name": "to",
          "type": "address"
        },
        {
          "internalType": "uint256",
          "name": "tokenId",
          "type": "uint256"
        }
      ],
      "name": "transferFrom",
      "outputs": [],
      "stateMutability": "nonpayable",
      "type": "function"
    },
    {
      "inputs": [
        {
          "internalType": "string",
          "name": "_name",
          "type": "string"
        },
        {
          "internalType": "string",
          "name": "_size",
          "type": "string"
        },
        {
          "internalType": "string",
          "name": "_lon",
          "type": "string"
        },
        {
          "internalType": "string",
          "name": "_lat",
          "type": "string"
        },
        {
          "internalType": "string",
          "name": "_fileHash",
          "type": "string"
        },
        {
          "internalType": "string",
          "name": "_soilType",
          "type": "string"
        },
        {
          "internalType": "uint256",
          "name": "_tokenId",
          "type": "uint256"
        }
      ],
      "name": "addFarm",
      "outputs": [],
      "stateMutability": "nonpayable",
      "type": "function"
    }
  ],
  "bytecode": "0x60806040523480156200001157600080fd5b506040518060400160405280600381526020017f466f6f00000000000000000000000000000000000000000000000000000000008152506040518060400160405280600381526020017f464f4f0000000000000000000000000000000000000000000000000000000000815250620000966301ffc9a760e01b6200011860201b60201c565b8160069080519060200190620000ae92919062000221565b508060079080519060200190620000c792919062000221565b50620000e06380ac58cd60e01b6200011860201b60201c565b620000f8635b5e139f60e01b6200011860201b60201c565b6200011063780e9d6360e01b6200011860201b60201c565b5050620002d0565b63ffffffff60e01b817bffffffffffffffffffffffffffffffffffffffffffffffffffffffff19161415620001b5576040517f08c379a000000000000000000000000000000000000000000000000000000000815260040180806020018281038252601c8152602001807f4552433136353a20696e76616c696420696e746572666163652069640000000081525060200191505060405180910390fd5b6001600080837bffffffffffffffffffffffffffffffffffffffffffffffffffffffff19167bffffffffffffffffffffffffffffffffffffffffffffffffffffffff1916815260200190815260200160002060006101000a81548160ff02191690831515021790555050565b828054600181600116156101000203166002900490600052602060002090601f016020900481019282601f106200026457805160ff191683800117855562000295565b8280016001018555821562000295579182015b828111156200029457825182559160200191906001019062000277565b5b509050620002a49190620002a8565b5090565b620002cd91905b80821115620002c9576000816000905550600101620002af565b5090565b90565b613ae180620002e06000396000f3fe608060405234801561001057600080fd5b50600436106101215760003560e01c80634f6ccce7116100ad57806395d89b411161007157806395d89b4114610c5f578063a22cb46514610ce2578063b88d4fde14610d32578063c87b56dd14610e37578063e985e9c514610ede57610121565b80634f6ccce7146107de5780635893253c146108205780636352211e14610b165780636c0360eb14610b8457806370a0823114610c0757610121565b806318160ddd116100f457806318160ddd146102ca57806323b872dd146102e857806325294009146103565780632f745c591461070e57806342842e0e1461077057610121565b806301ffc9a71461012657806306fdde031461018b578063081812fc1461020e578063095ea7b31461027c575b600080fd5b6101716004803603602081101561013c57600080fd5b8101908080357bffffffffffffffffffffffffffffffffffffffffffffffffffffffff19169060200190929190505050610f5a565b604051808215151515815260200191505060405180910390f35b610193610fc1565b6040518080602001828103825283818151815260200191508051906020019080838360005b838110156101d35780820151818401526020810190506101b8565b50505050905090810190601f1680156102005780820380516001836020036101000a031916815260200191505b509250505060405180910390f35b61023a6004803603602081101561022457600080fd5b8101908080359060200190929190505050611063565b604051808273ffffffffffffffffffffffffffffffffffffffff1673ffffffffffffffffffffffffffffffffffffffff16815260200191505060405180910390f35b6102c86004803603604081101561029257600080fd5b81019080803573ffffffffffffffffffffffffffffffffffffffff169060200190929190803590602001909291905050506110fe565b005b6102d2611242565b6040518082815260200191505060405180910390f35b610354600480360360608110156102fe57600080fd5b81019080803573ffffffffffffffffffffffffffffffffffffffff169060200190929190803573ffffffffffffffffffffffffffffffffffffffff16906020019092919080359060200190929190505050611253565b005b61070c600480360360e081101561036c57600080fd5b810190808035906020019064010000000081111561038957600080fd5b82018360208201111561039b57600080fd5b803590602001918460018302840111640100000000831117156103bd57600080fd5b91908080601f016020809104026020016040519081016040528093929190818152602001838380828437600081840152601f19601f8201169050808301925050505050505091929192908035906020019064010000000081111561042057600080fd5b82018360208201111561043257600080fd5b8035906020019184600183028401116401000000008311171561045457600080fd5b91908080601f016020809104026020016040519081016040528093929190818152602001838380828437600081840152601f19601f820116905080830192505050505050509192919290803590602001906401000000008111156104b757600080fd5b8201836020820111156104c957600080fd5b803590602001918460018302840111640100000000831117156104eb57600080fd5b91908080601f016020809104026020016040519081016040528093929190818152602001838380828437600081840152601f19601f8201169050808301925050505050505091929192908035906020019064010000000081111561054e57600080fd5b82018360208201111561056057600080fd5b8035906020019184600183028401116401000000008311171561058257600080fd5b91908080601f016020809104026020016040519081016040528093929190818152602001838380828437600081840152601f19601f820116905080830192505050505050509192919290803590602001906401000000008111156105e557600080fd5b8201836020820111156105f757600080fd5b8035906020019184600183028401116401000000008311171561061957600080fd5b91908080601f016020809104026020016040519081016040528093929190818152602001838380828437600081840152601f19601f8201169050808301925050505050505091929192908035906020019064010000000081111561067c57600080fd5b82018360208201111561068e57600080fd5b803590602001918460018302840111640100000000831117156106b057600080fd5b91908080601f016020809104026020016040519081016040528093929190818152602001838380828437600081840152601f19601f820116905080830192505050505050509192919290803590602001909291905050506112c9565b005b61075a6004803603604081101561072457600080fd5b81019080803573ffffffffffffffffffffffffffffffffffffffff1690602001909291908035906020019092919050505061188b565b6040518082815260200191505060405180910390f35b6107dc6004803603606081101561078657600080fd5b81019080803573ffffffffffffffffffffffffffffffffffffffff169060200190929190803573ffffffffffffffffffffffffffffffffffffffff169060200190929190803590602001909291905050506118e6565b005b61080a600480360360208110156107f457600080fd5b8101908080359060200190929190505050611906565b6040518082815260200191505060405180910390f35b61084c6004803603602081101561083657600080fd5b8101908080359060200190929190505050611929565b604051808060200180602001806020018060200180602001806020018873ffffffffffffffffffffffffffffffffffffffff1673ffffffffffffffffffffffffffffffffffffffff16815260200187810387528e818151815260200191508051906020019080838360005b838110156108d25780820151818401526020810190506108b7565b50505050905090810190601f1680156108ff5780820380516001836020036101000a031916815260200191505b5087810386528d818151815260200191508051906020019080838360005b8381101561093857808201518184015260208101905061091d565b50505050905090810190601f1680156109655780820380516001836020036101000a031916815260200191505b5087810385528c818151815260200191508051906020019080838360005b8381101561099e578082015181840152602081019050610983565b50505050905090810190601f1680156109cb5780820380516001836020036101000a031916815260200191505b5087810384528b818151815260200191508051906020019080838360005b83811015610a045780820151818401526020810190506109e9565b50505050905090810190601f168015610a315780820380516001836020036101000a031916815260200191505b5087810383528a818151815260200191508051906020019080838360005b83811015610a6a578082015181840152602081019050610a4f565b50505050905090810190601f168015610a975780820380516001836020036101000a031916815260200191505b50878103825289818151815260200191508051906020019080838360005b83811015610ad0578082015181840152602081019050610ab5565b50505050905090810190601f168015610afd5780820380516001836020036101000a031916815260200191505b509d505050505050505050505050505060405180910390f35b610b4260048036036020811015610b2c57600080fd5b8101908080359060200190929190505050611d1b565b604051808273ffffffffffffffffffffffffffffffffffffffff1673ffffffffffffffffffffffffffffffffffffffff16815260200191505060405180910390f35b610b8c611d52565b6040518080602001828103825283818151815260200191508051906020019080838360005b83811015610bcc578082015181840152602081019050610bb1565b50505050905090810190601f168015610bf95780820380516001836020036101000a031916815260200191505b509250505060405180910390f35b610c4960048036036020811015610c1d57600080fd5b81019080803573ffffffffffffffffffffffffffffffffffffffff169060200190929190505050611df4565b6040518082815260200191505060405180910390f35b610c67611ec9565b6040518080602001828103825283818151815260200191508051906020019080838360005b83811015610ca7578082015181840152602081019050610c8c565b50505050905090810190601f168015610cd45780820380516001836020036101000a031916815260200191505b509250505060405180910390f35b610d3060048036036040811015610cf857600080fd5b81019080803573ffffffffffffffffffffffffffffffffffffffff169060200190929190803515159060200190929190505050611f6b565b005b610e3560048036036080811015610d4857600080fd5b81019080803573ffffffffffffffffffffffffffffffffffffffff169060200190929190803573ffffffffffffffffffffffffffffffffffffffff1690602001909291908035906020019092919080359060200190640100000000811115610daf57600080fd5b820183602082011115610dc157600080fd5b80359060200191846001830284011164010000000083111715610de357600080fd5b91908080601f016020809104026020016040519081016040528093929190818152602001838380828437600081840152601f19601f820116905080830192505050505050509192919290505050612123565b005b610e6360048036036020811015610e4d57600080fd5b810190808035906020019092919050505061219b565b6040518080602001828103825283818151815260200191508051906020019080838360005b83811015610ea3578082015181840152602081019050610e88565b50505050905090810190601f168015610ed05780820380516001836020036101000a031916815260200191505b509250505060405180910390f35b610f4060048036036040811015610ef457600080fd5b81019080803573ffffffffffffffffffffffffffffffffffffffff169060200190929190803573ffffffffffffffffffffffffffffffffffffffff169060200190929190505050612484565b604051808215151515815260200191505060405180910390f35b6000806000837bffffffffffffffffffffffffffffffffffffffffffffffffffffffff19167bffffffffffffffffffffffffffffffffffffffffffffffffffffffff1916815260200190815260200160002060009054906101000a900460ff169050919050565b606060068054600181600116156101000203166002900480601f0160208091040260200160405190810160405280929190818152602001828054600181600116156101000203166002900480156110595780601f1061102e57610100808354040283529160200191611059565b820191906000526020600020905b81548152906001019060200180831161103c57829003601f168201915b5050505050905090565b600061106e82612518565b6110c3576040517f08c379a000000000000000000000000000000000000000000000000000000000815260040180806020018281038252602c8152602001806139d6602c913960400191505060405180910390fd5b6004600083815260200190815260200160002060009054906101000a900473ffffffffffffffffffffffffffffffffffffffff169050919050565b600061110982611d1b565b90508073ffffffffffffffffffffffffffffffffffffffff168373ffffffffffffffffffffffffffffffffffffffff161415611190576040517f08c379a0000000000000000000000000000000000000000000000000000000008152600401808060200182810382526021815260200180613a5a6021913960400191505060405180910390fd5b8073ffffffffffffffffffffffffffffffffffffffff166111af612535565b73ffffffffffffffffffffffffffffffffffffffff1614806111de57506111dd816111d8612535565b612484565b5b611233576040517f08c379a00000000000000000000000000000000000000000000000000000000081526004018080602001828103825260388152602001806139296038913960400191505060405180910390fd5b61123d838361253d565b505050565b600061124e60026125f6565b905090565b61126461125e612535565b8261260b565b6112b9576040517f08c379a0000000000000000000000000000000000000000000000000000000008152600401808060200182810382526031815260200180613a7b6031913960400191505060405180910390fd5b6112c48383836126ff565b505050565b6112d33382612942565b6040518060e001604052808881526020018781526020018681526020018581526020018481526020018381526020013373ffffffffffffffffffffffffffffffffffffffff16815250600a6000838152602001908152602001600020600082015181600001908051906020019061134b9291906137df565b5060208201518160010190805190602001906113689291906137df565b5060408201518160020190805190602001906113859291906137df565b5060608201518160030190805190602001906113a29291906137df565b5060808201518160040190805190602001906113bf9291906137df565b5060a08201518160050190805190602001906113dc9291906137df565b5060c08201518160060160006101000a81548173ffffffffffffffffffffffffffffffffffffffff021916908373ffffffffffffffffffffffffffffffffffffffff1602179055509050507feebd0645eac88ad3b9b9990d68e05cd8263fe4936502e1505e05d11242779633600a6000838152602001908152602001600020600001600a6000848152602001908152602001600020600101600a6000858152602001908152602001600020600201600a6000868152602001908152602001600020600301600a6000878152602001908152602001600020600401600a600088815260200190815260200160002060050187600a60008a815260200190815260200160002060060160009054906101000a900473ffffffffffffffffffffffffffffffffffffffff16604051808060200180602001806020018060200180602001806020018981526020018873ffffffffffffffffffffffffffffffffffffffff1673ffffffffffffffffffffffffffffffffffffffff16815260200187810387528f8181546001816001161561010002031660029004815260200191508054600181600116156101000203166002900480156115d95780601f106115ae576101008083540402835291602001916115d9565b820191906000526020600020905b8154815290600101906020018083116115bc57829003601f168201915b505087810386528e81815460018160011615610100020316600290048152602001915080546001816001161561010002031660029004801561165c5780601f106116315761010080835404028352916020019161165c565b820191906000526020600020905b81548152906001019060200180831161163f57829003601f168201915b505087810385528d8181546001816001161561010002031660029004815260200191508054600181600116156101000203166002900480156116df5780601f106116b4576101008083540402835291602001916116df565b820191906000526020600020905b8154815290600101906020018083116116c257829003601f168201915b505087810384528c8181546001816001161561010002031660029004815260200191508054600181600116156101000203166002900480156117625780601f1061173757610100808354040283529160200191611762565b820191906000526020600020905b81548152906001019060200180831161174557829003601f168201915b505087810383528b8181546001816001161561010002031660029004815260200191508054600181600116156101000203166002900480156117e55780601f106117ba576101008083540402835291602001916117e5565b820191906000526020600020905b8154815290600101906020018083116117c857829003601f168201915b505087810382528a8181546001816001161561010002031660029004815260200191508054600181600116156101000203166002900480156118685780601f1061183d57610100808354040283529160200191611868565b820191906000526020600020905b81548152906001019060200180831161184b57829003601f168201915b50509e50505050505050505050505050505060405180910390a150505050505050565b60006118de82600160008673ffffffffffffffffffffffffffffffffffffffff1673ffffffffffffffffffffffffffffffffffffffff16815260200190815260200160002061296090919063ffffffff16565b905092915050565b61190183838360405180602001604052806000815250612123565b505050565b60008061191d83600261297a90919063ffffffff16565b50905080915050919050565b600a602052806000526040600020600091509050806000018054600181600116156101000203166002900480601f0160208091040260200160405190810160405280929190818152602001828054600181600116156101000203166002900480156119d55780601f106119aa576101008083540402835291602001916119d5565b820191906000526020600020905b8154815290600101906020018083116119b857829003601f168201915b505050505090806001018054600181600116156101000203166002900480601f016020809104026020016040519081016040528092919081815260200182805460018160011615610100020316600290048015611a735780601f10611a4857610100808354040283529160200191611a73565b820191906000526020600020905b815481529060010190602001808311611a5657829003601f168201915b505050505090806002018054600181600116156101000203166002900480601f016020809104026020016040519081016040528092919081815260200182805460018160011615610100020316600290048015611b115780601f10611ae657610100808354040283529160200191611b11565b820191906000526020600020905b815481529060010190602001808311611af457829003601f168201915b505050505090806003018054600181600116156101000203166002900480601f016020809104026020016040519081016040528092919081815260200182805460018160011615610100020316600290048015611baf5780601f10611b8457610100808354040283529160200191611baf565b820191906000526020600020905b815481529060010190602001808311611b9257829003601f168201915b505050505090806004018054600181600116156101000203166002900480601f016020809104026020016040519081016040528092919081815260200182805460018160011615610100020316600290048015611c4d5780601f10611c2257610100808354040283529160200191611c4d565b820191906000526020600020905b815481529060010190602001808311611c3057829003601f168201915b505050505090806005018054600181600116156101000203166002900480601f016020809104026020016040519081016040528092919081815260200182805460018160011615610100020316600290048015611ceb5780601f10611cc057610100808354040283529160200191611ceb565b820191906000526020600020905b815481529060010190602001808311611cce57829003601f168201915b5050505050908060060160009054906101000a900473ffffffffffffffffffffffffffffffffffffffff16905087565b6000611d4b8260405180606001604052806029815260200161398b6029913960026129a99092919063ffffffff16565b9050919050565b606060098054600181600116156101000203166002900480601f016020809104026020016040519081016040528092919081815260200182805460018160011615610100020316600290048015611dea5780601f10611dbf57610100808354040283529160200191611dea565b820191906000526020600020905b815481529060010190602001808311611dcd57829003601f168201915b5050505050905090565b60008073ffffffffffffffffffffffffffffffffffffffff168273ffffffffffffffffffffffffffffffffffffffff161415611e7b576040517f08c379a000000000000000000000000000000000000000000000000000000000815260040180806020018281038252602a815260200180613961602a913960400191505060405180910390fd5b611ec2600160008473ffffffffffffffffffffffffffffffffffffffff1673ffffffffffffffffffffffffffffffffffffffff1681526020019081526020016000206129c8565b9050919050565b606060078054600181600116156101000203166002900480601f016020809104026020016040519081016040528092919081815260200182805460018160011615610100020316600290048015611f615780601f10611f3657610100808354040283529160200191611f61565b820191906000526020600020905b815481529060010190602001808311611f4457829003601f168201915b5050505050905090565b611f73612535565b73ffffffffffffffffffffffffffffffffffffffff168273ffffffffffffffffffffffffffffffffffffffff161415612014576040517f08c379a00000000000000000000000000000000000000000000000000000000081526004018080602001828103825260198152602001807f4552433732313a20617070726f766520746f2063616c6c65720000000000000081525060200191505060405180910390fd5b8060056000612021612535565b73ffffffffffffffffffffffffffffffffffffffff1673ffffffffffffffffffffffffffffffffffffffff16815260200190815260200160002060008473ffffffffffffffffffffffffffffffffffffffff1673ffffffffffffffffffffffffffffffffffffffff16815260200190815260200160002060006101000a81548160ff0219169083151502179055508173ffffffffffffffffffffffffffffffffffffffff166120ce612535565b73ffffffffffffffffffffffffffffffffffffffff167f17307eab39ab6107e8899845ad3d59bd9653f200f220920489ca2b5937696c3183604051808215151515815260200191505060405180910390a35050565b61213461212e612535565b8361260b565b612189576040517f08c379a0000000000000000000000000000000000000000000000000000000008152600401808060200182810382526031815260200180613a7b6031913960400191505060405180910390fd5b612195848484846129dd565b50505050565b60606121a682612518565b6121fb576040517f08c379a000000000000000000000000000000000000000000000000000000000815260040180806020018281038252602f815260200180613a2b602f913960400191505060405180910390fd5b6060600860008481526020019081526020016000208054600181600116156101000203166002900480601f0160208091040260200160405190810160405280929190818152602001828054600181600116156101000203166002900480156122a45780601f10612279576101008083540402835291602001916122a4565b820191906000526020600020905b81548152906001019060200180831161228757829003601f168201915b505050505090506000600980546001816001161561010002031660029004905014156122d3578091505061247f565b6000815111156123ac57600981604051602001808380546001816001161561010002031660029004801561233e5780601f1061231c57610100808354040283529182019161233e565b820191906000526020600020905b81548152906001019060200180831161232a575b505082805190602001908083835b6020831061236f578051825260208201915060208101905060208303925061234c565b6001836020036101000a0380198251168184511680821785525050505050509050019250505060405160208183030381529060405291505061247f565b60096123b784612a4f565b60405160200180838054600181600116156101000203166002900480156124155780601f106123f3576101008083540402835291820191612415565b820191906000526020600020905b815481529060010190602001808311612401575b505082805190602001908083835b602083106124465780518252602082019150602081019050602083039250612423565b6001836020036101000a038019825116818451168082178552505050505050905001925050506040516020818303038152906040529150505b919050565b6000600560008473ffffffffffffffffffffffffffffffffffffffff1673ffffffffffffffffffffffffffffffffffffffff16815260200190815260200160002060008373ffffffffffffffffffffffffffffffffffffffff1673ffffffffffffffffffffffffffffffffffffffff16815260200190815260200160002060009054906101000a900460ff16905092915050565b600061252e826002612b9690919063ffffffff16565b9050919050565b600033905090565b816004600083815260200190815260200160002060006101000a81548173ffffffffffffffffffffffffffffffffffffffff021916908373ffffffffffffffffffffffffffffffffffffffff160217905550808273ffffffffffffffffffffffffffffffffffffffff166125b083611d1b565b73ffffffffffffffffffffffffffffffffffffffff167f8c5be1e5ebec7d5bd14f71427d1e84f3dd0314c0f7b2291e5b200ac8c7c3b92560405160405180910390a45050565b600061260482600001612bb0565b9050919050565b600061261682612518565b61266b576040517f08c379a000000000000000000000000000000000000000000000000000000000815260040180806020018281038252602c8152602001806138fd602c913960400191505060405180910390fd5b600061267683611d1b565b90508073ffffffffffffffffffffffffffffffffffffffff168473ffffffffffffffffffffffffffffffffffffffff1614806126e557508373ffffffffffffffffffffffffffffffffffffffff166126cd84611063565b73ffffffffffffffffffffffffffffffffffffffff16145b806126f657506126f58185612484565b5b91505092915050565b8273ffffffffffffffffffffffffffffffffffffffff1661271f82611d1b565b73ffffffffffffffffffffffffffffffffffffffff161461278b576040517f08c379a0000000000000000000000000000000000000000000000000000000008152600401808060200182810382526029815260200180613a026029913960400191505060405180910390fd5b600073ffffffffffffffffffffffffffffffffffffffff168273ffffffffffffffffffffffffffffffffffffffff161415612811576040517f08c379a00000000000000000000000000000000000000000000000000000000081526004018080602001828103825260248152602001806138d96024913960400191505060405180910390fd5b61281c838383612bc1565b61282760008261253d565b61287881600160008673ffffffffffffffffffffffffffffffffffffffff1673ffffffffffffffffffffffffffffffffffffffff168152602001908152602001600020612bc690919063ffffffff16565b506128ca81600160008573ffffffffffffffffffffffffffffffffffffffff1673ffffffffffffffffffffffffffffffffffffffff168152602001908152602001600020612be090919063ffffffff16565b506128e181836002612bfa9092919063ffffffff16565b50808273ffffffffffffffffffffffffffffffffffffffff168473ffffffffffffffffffffffffffffffffffffffff167fddf252ad1be2c89b69c2b068fc378daa952ba7f163c4a11628f55a4df523b3ef60405160405180910390a4505050565b61295c828260405180602001604052806000815250612c2f565b5050565b600061296f8360000183612ca0565b60001c905092915050565b60008060008061298d8660000186612d23565b915091508160001c8160001c8090509350935050509250929050565b60006129bc846000018460001b84612dbc565b60001c90509392505050565b60006129d682600001612eb2565b9050919050565b6129e88484846126ff565b6129f484848484612ec3565b612a49576040517f08c379a00000000000000000000000000000000000000000000000000000000081526004018080602001828103825260328152602001806138a76032913960400191505060405180910390fd5b50505050565b60606000821415612a97576040518060400160405280600181526020017f30000000000000000000000000000000000000000000000000000000000000008152509050612b91565b600082905060005b60008214612ac1578080600101915050600a8281612ab957fe5b049150612a9f565b60608167ffffffffffffffff81118015612ada57600080fd5b506040519080825280601f01601f191660200182016040528015612b0d5781602001600182028036833780820191505090505b50905060006001830390508593505b60008414612b8957600a8481612b2e57fe5b0660300160f81b82828060019003935081518110612b4857fe5b60200101907effffffffffffffffffffffffffffffffffffffffffffffffffffffffffffff1916908160001a905350600a8481612b8157fe5b049350612b1c565b819450505050505b919050565b6000612ba8836000018360001b613108565b905092915050565b600081600001805490509050919050565b505050565b6000612bd8836000018360001b61312b565b905092915050565b6000612bf2836000018360001b613213565b905092915050565b6000612c26846000018460001b8473ffffffffffffffffffffffffffffffffffffffff1660001b613283565b90509392505050565b612c39838361335f565b612c466000848484612ec3565b612c9b576040517f08c379a00000000000000000000000000000000000000000000000000000000081526004018080602001828103825260328152602001806138a76032913960400191505060405180910390fd5b505050565b600081836000018054905011612d01576040517f08c379a00000000000000000000000000000000000000000000000000000000081526004018080602001828103825260228152602001806138856022913960400191505060405180910390fd5b826000018281548110612d1057fe5b9060005260206000200154905092915050565b60008082846000018054905011612d85576040517f08c379a00000000000000000000000000000000000000000000000000000000081526004018080602001828103825260228152602001806139b46022913960400191505060405180910390fd5b6000846000018481548110612d9657fe5b906000526020600020906002020190508060000154816001015492509250509250929050565b60008084600101600085815260200190815260200160002054905060008114158390612e83576040517f08c379a00000000000000000000000000000000000000000000000000000000081526004018080602001828103825283818151815260200191508051906020019080838360005b83811015612e48578082015181840152602081019050612e2d565b50505050905090810190601f168015612e755780820380516001836020036101000a031916815260200191505b509250505060405180910390fd5b50846000016001820381548110612e9657fe5b9060005260206000209060020201600101549150509392505050565b600081600001805490509050919050565b6000612ee48473ffffffffffffffffffffffffffffffffffffffff16613553565b612ef15760019050613100565b606061308763150b7a0260e01b612f06612535565b888787604051602401808573ffffffffffffffffffffffffffffffffffffffff1673ffffffffffffffffffffffffffffffffffffffff1681526020018473ffffffffffffffffffffffffffffffffffffffff1673ffffffffffffffffffffffffffffffffffffffff16815260200183815260200180602001828103825283818151815260200191508051906020019080838360005b83811015612fb6578082015181840152602081019050612f9b565b50505050905090810190601f168015612fe35780820380516001836020036101000a031916815260200191505b5095505050505050604051602081830303815290604052907bffffffffffffffffffffffffffffffffffffffffffffffffffffffff19166020820180517bffffffffffffffffffffffffffffffffffffffffffffffffffffffff83818316178352505050506040518060600160405280603281526020016138a7603291398773ffffffffffffffffffffffffffffffffffffffff1661359e9092919063ffffffff16565b905060008180602001905160208110156130a057600080fd5b8101908080519060200190929190505050905063150b7a0260e01b7bffffffffffffffffffffffffffffffffffffffffffffffffffffffff1916817bffffffffffffffffffffffffffffffffffffffffffffffffffffffff191614925050505b949350505050565b600080836001016000848152602001908152602001600020541415905092915050565b60008083600101600084815260200190815260200160002054905060008114613207576000600182039050600060018660000180549050039050600086600001828154811061317657fe5b906000526020600020015490508087600001848154811061319357fe5b90600052602060002001819055506001830187600101600083815260200190815260200160002081905550866000018054806131cb57fe5b6001900381819060005260206000200160009055905586600101600087815260200190815260200160002060009055600194505050505061320d565b60009150505b92915050565b600061321f83836135b6565b61327857826000018290806001815401808255809150506001900390600052602060002001600090919091909150558260000180549050836001016000848152602001908152602001600020819055506001905061327d565b600090505b92915050565b600080846001016000858152602001908152602001600020549050600081141561332a57846000016040518060400160405280868152602001858152509080600181540180825580915050600190039060005260206000209060020201600090919091909150600082015181600001556020820151816001015550508460000180549050856001016000868152602001908152602001600020819055506001915050613358565b8285600001600183038154811061333d57fe5b90600052602060002090600202016001018190555060009150505b9392505050565b600073ffffffffffffffffffffffffffffffffffffffff168273ffffffffffffffffffffffffffffffffffffffff161415613402576040517f08c379a00000000000000000000000000000000000000000000000000000000081526004018080602001828103825260208152602001807f4552433732313a206d696e7420746f20746865207a65726f206164647265737381525060200191505060405180910390fd5b61340b81612518565b1561347e576040517f08c379a000000000000000000000000000000000000000000000000000000000815260040180806020018281038252601c8152602001807f4552433732313a20746f6b656e20616c7265616479206d696e7465640000000081525060200191505060405180910390fd5b61348a60008383612bc1565b6134db81600160008573ffffffffffffffffffffffffffffffffffffffff1673ffffffffffffffffffffffffffffffffffffffff168152602001908152602001600020612be090919063ffffffff16565b506134f281836002612bfa9092919063ffffffff16565b50808273ffffffffffffffffffffffffffffffffffffffff16600073ffffffffffffffffffffffffffffffffffffffff167fddf252ad1be2c89b69c2b068fc378daa952ba7f163c4a11628f55a4df523b3ef60405160405180910390a45050565b60008060007fc5d2460186f7233c927e7db2dcc703c0e500b653ca82273b7bfad8045d85a47060001b9050833f915080821415801561359557506000801b8214155b92505050919050565b60606135ad84846000856135d9565b90509392505050565b600080836001016000848152602001908152602001600020541415905092915050565b60606135e485613553565b613656576040517f08c379a000000000000000000000000000000000000000000000000000000000815260040180806020018281038252601d8152602001807f416464726573733a2063616c6c20746f206e6f6e2d636f6e747261637400000081525060200191505060405180910390fd5b600060608673ffffffffffffffffffffffffffffffffffffffff1685876040518082805190602001908083835b602083106136a65780518252602082019150602081019050602083039250613683565b6001836020036101000a03801982511681845116808217855250505050505090500191505060006040518083038185875af1925050503d8060008114613708576040519150601f19603f3d011682016040523d82523d6000602084013e61370d565b606091505b509150915081156137225780925050506137d7565b6000815111156137355780518082602001fd5b836040517f08c379a00000000000000000000000000000000000000000000000000000000081526004018080602001828103825283818151815260200191508051906020019080838360005b8381101561379c578082015181840152602081019050613781565b50505050905090810190601f1680156137c95780820380516001836020036101000a031916815260200191505b509250505060405180910390fd5b949350505050565b828054600181600116156101000203166002900490600052602060002090601f016020900481019282601f1061382057805160ff191683800117855561384e565b8280016001018555821561384e579182015b8281111561384d578251825591602001919060010190613832565b5b50905061385b919061385f565b5090565b61388191905b8082111561387d576000816000905550600101613865565b5090565b9056fe456e756d657261626c655365743a20696e646578206f7574206f6620626f756e64734552433732313a207472616e7366657220746f206e6f6e20455243373231526563656976657220696d706c656d656e7465724552433732313a207472616e7366657220746f20746865207a65726f20616464726573734552433732313a206f70657261746f7220717565727920666f72206e6f6e6578697374656e7420746f6b656e4552433732313a20617070726f76652063616c6c6572206973206e6f74206f776e6572206e6f7220617070726f76656420666f7220616c6c4552433732313a2062616c616e636520717565727920666f7220746865207a65726f20616464726573734552433732313a206f776e657220717565727920666f72206e6f6e6578697374656e7420746f6b656e456e756d657261626c654d61703a20696e646578206f7574206f6620626f756e64734552433732313a20617070726f76656420717565727920666f72206e6f6e6578697374656e7420746f6b656e4552433732313a207472616e73666572206f6620746f6b656e2074686174206973206e6f74206f776e4552433732314d657461646174613a2055524920717565727920666f72206e6f6e6578697374656e7420746f6b656e4552433732313a20617070726f76616c20746f2063757272656e74206f776e65724552433732313a207472616e736665722063616c6c6572206973206e6f74206f776e6572206e6f7220617070726f766564a26469706673582212203d889eeaed93600cd9729598b1ff3a534174f0f865a765a05a51fd587667db8364736f6c63430006080033",
  "immutableReferences": {},
  "source": "// SPDX-License-Identifier: MIT\n\npragma solidity >=0.4.22 <0.7.0;\n\nimport '@openzeppelin/contracts/token/ERC721/ERC721.sol';\n\ncontract Registry is ERC721 {\n\n  constructor() public ERC721('Foo', 'FOO') {}\n\n  // Events\n  event RegisterFarm(\n    string _name,\n    string _size,\n    string _lon,\n    string _lat,\n    string _fileHash,\n    string _soilType,\n    uint256 _tokenId,\n    address _owner\n  );\n\n  // Farm type\n  struct Farm {\n    string name;\n    string size;\n    string longitude;\n    string latitude;\n    string fileHash;\n    string soilType;\n    address payable owner;\n  }\n\n  // Map token to farm(tokenize farm)\n  mapping(uint256 => Farm) public registry;\n\n  /**\n   * @dev addFarm Tokenize farm and add to registry\n   * @param _name, _size, _lon, _lat, _fileHash, _soilType, _tokenId\n   */\n  function addFarm(\n    string memory _name,\n    string memory _size,\n    string memory _lon,\n    string memory _lat,\n    string memory _fileHash,\n    string memory _soilType,\n    uint256 _tokenId\n  ) \n    public\n  {\n    // Mint token and map tokenized farm\n    _safeMint(msg.sender, _tokenId);\n    registry[_tokenId] = Farm(_name, _size, _lon, _lat, _fileHash, _soilType, msg.sender);\n    emit RegisterFarm(\n      registry[_tokenId].name,\n      registry[_tokenId].size,\n      registry[_tokenId].longitude,\n      registry[_tokenId].latitude,\n      registry[_tokenId].fileHash,\n      registry[_tokenId].soilType,\n      _tokenId,\n      registry[_tokenId].owner\n    );\n  }\n}\n\n",
  "sourcePath": "/home/lomolo/Projects/taxa/contracts/Registry/Registry.sol",
  "compiler": {
    "name": "solc",
    "version": "0.6.8+commit.0bbfe453.Emscripten.clang"
  },
  "schemaVersion": "3.2.0",
  "updatedAt": "2020-08-05T11:33:33.445Z",
  "networkType": "ethereum",
  "devdoc": {
    "methods": {
      "addFarm(string,string,string,string,string,string,uint256)": {
        "details": "addFarm Tokenize farm and add to registry",
        "params": {
          "_name": ", _size, _lon, _lat, _fileHash, _soilType, _tokenId"
        }
      },
      "approve(address,uint256)": {
        "details": "See {IERC721-approve}."
      },
      "balanceOf(address)": {
        "details": "See {IERC721-balanceOf}."
      },
      "baseURI()": {
        "details": "Returns the base URI set via {_setBaseURI}. This will be automatically added as a prefix in {tokenURI} to each token's URI, or to the token ID if no specific URI is set for that token ID."
      },
      "getApproved(uint256)": {
        "details": "See {IERC721-getApproved}."
      },
      "isApprovedForAll(address,address)": {
        "details": "See {IERC721-isApprovedForAll}."
      },
      "name()": {
        "details": "See {IERC721Metadata-name}."
      },
      "ownerOf(uint256)": {
        "details": "See {IERC721-ownerOf}."
      },
      "safeTransferFrom(address,address,uint256)": {
        "details": "See {IERC721-safeTransferFrom}."
      },
      "safeTransferFrom(address,address,uint256,bytes)": {
        "details": "See {IERC721-safeTransferFrom}."
      },
      "setApprovalForAll(address,bool)": {
        "details": "See {IERC721-setApprovalForAll}."
      },
      "supportsInterface(bytes4)": {
        "details": "See {IERC165-supportsInterface}.     * Time complexity O(1), guaranteed to always use less than 30 000 gas."
      },
      "symbol()": {
        "details": "See {IERC721Metadata-symbol}."
      },
      "tokenByIndex(uint256)": {
        "details": "See {IERC721Enumerable-tokenByIndex}."
      },
      "tokenOfOwnerByIndex(address,uint256)": {
        "details": "See {IERC721Enumerable-tokenOfOwnerByIndex}."
      },
      "tokenURI(uint256)": {
        "details": "See {IERC721Metadata-tokenURI}."
      },
      "totalSupply()": {
        "details": "See {IERC721Enumerable-totalSupply}."
      },
      "transferFrom(address,address,uint256)": {
        "details": "See {IERC721-transferFrom}."
      }
    }
  },
  "userdoc": {
    "methods": {}
  }
}